:020000040800F2
:1000000020150020D500000879720008615700080B
:1000100000000000000000000000000000000000E0
:10002000000000000000000000000000C58E000875
:100030000000000000000000D9760008A5A3000819
:10004000E7000008E70000085D8B0008E7000008F3
:10005000E70000081D1800082D1800083D180008CA
:1000600000000000E70000085D140008E700000839
:10007000E7000008E700000800000000E7000008B3
:10008000000000002DA50008000000000000000096
:100090001DA5000800000000E7000008E7000008B8
:1000A000E7000008E7000008E70000088DB6000838
:1000B000E5B60008E70000080000000000000000AE
:1000C0000348854600F03EFB00480047FDBF00089E
:1000D000201500200448804704480047FEE7FEE75B
:1000E000FEE7FEE7FEE7FEE751A40008C1000008B6
:1000F00030B50B46014600202022012409E00D46C0
:10010000D5409D4205D31D469540491B2546954047
:1001100040191546521E002DF1DC30BD70B500248B
:100120002546002801DA01244042002901DA012590
:100130004942FFF7DDFFAC4200D04042002C00D026
:10014000494270BDF0B51FB40646002082B0054696
:100150004024019100901BE0019922460F46304651
:1001600000F058FA049A059B801A994110D3104662
:100170001946224600F03EFA361A8F410197224670
:1001800001200021009F00F035FA38184D41009001
:100190002046641E0028DFDC019B00982946324679
:1001A00007B0F0BD03460B439B0703D009E008C925
:1001B000121F08C0042AFAD203E00B780370401C17
:1001C000491C521EF9D27047D2B201E00270401CA5
:1001D000491EFBD270470022F6E710B513460A46C7
:1001E00004461946FFF7F0FF204610BD30B504461F
:1001F0000020034600E05B1C934203D2E05CCD5C30
:10020000401BF8D030BD30B505460020034600E065
:100210005B1C934205D2EC5CC85C201A01D1002C17
:10022000F6D130BD0321001D401E037812021A438F
:10023000491EF9D510467047034603220870000A8C
:10024000491C521EFAD5184670470000F0B5074603
:100250000846584087B0C00F049048000E46590029
:1002600040084908BC1A884105D2384631461E4626
:1002700017460B4602465800400810434CD0300D3C
:10028000039040055900400D490D0590401A029019
:10029000402872DA18030121000B09050843019078
:1002A00004980092002805D001995242002088410C
:1002B00000920190029840210A1A0199009800F0DA
:1002C00099F905460C466B4607CB00F0B4F9C01906
:1002D0007141039A0E0D0023D71756401A467A40F3
:1002E000164344D0049A002A2DD0029A012A039A78
:1002F00015DC1205C01A914101263605001C71411A
:10030000D20F059ED2070093019202962A462346F9
:1003100000F0B1F907B0F0BD38463146FAE71605EE
:10032000224A0F46B218C01AB74101210905001C24
:100330004F4100187F41114618187941E20F1043D0
:100340006D19644113E0E2076D0815436408C207A4
:100350001443039A01261205C01A91413605001C68
:100360007141CE07400830434908C01851412A4620
:10037000234600F073F9CDE7FFE70498012240001F
:10038000C117121A00238B4104983146C417381A3A
:10039000A141EEE730B40124E407634030BC55E7E7
:1003A00030B40124E407614030BC4FE70000E0FFB7
:1003B000F0B51FB488B00B990998002448400999FA
:1003C000C00F490049080991C0070B9900904900E6
:1003D00049080B9109990898A64608431CD00B9927
:1003E0000A98084318D0099801244000420D48009B
:1003F000410D099824050003000B204309900B9838
:100400000003000B20430B9050181C494018002299
:1004100001901446104605E0002001460DB0F0BDE5
:10042000032801DA034600E003239C46C11A0AAE02
:100430000AE05F0008ADED5B4F00F75B7D430027EE
:10044000AA187C41491C5B1E6145F2DD410004ABEA
:100450005A522104120C0A43240C401C0828DFDBEA
:10046000019802900099704601910090059B049AB2
:100470000799069800F0FFF8D0E700000DFCFFFF99
:10048000F0B50C465C4085B0E40FE40703944C00E3
:100490000026640859009446490802460296224301
:1004A00021D062460A431ED06200570D4A000E0357
:1004B0002303550D012402462C492405781B1B0BF0
:1004C000360B401823432643614600901C46501AC1
:1004D000B44103D30098401C009002E092180098A9
:1004E0005B41002803DA0020014605B0F0BD002082
:1004F000012109050746864611E064461D46141B86
:10050000B54106D36546521BB341744607430C43BD
:10051000A646CD0740084908284392185B41054686
:100520000D43EAD11046184313D060461946504097
:100530007140084306D06046101AB34106D201222A
:10054000002306E000220123DB0702E00122D24360
:100550005310009874460105381C6141029C039DAC
:100560000019694100F07AF8BFE70000FD030000C0
:1005700070B54B005B0803430BD04B005C0D0026AD
:1005800033466542B341D417AD1AA34102DB0020C4
:10059000014670BD12053018514170BD0EB50549B8
:1005A0000291002100910A460B46019100F063F888
:1005B00003B000BD330400004A0009030123090B06
:1005C0001B051943094B10B5520D9A4201DA002060
:1005D00010BD064B34339A4203DC9A1A00F01AF825
:1005E00010BD03495118884010BD0000FF030000F2
:1005F000CDFBFFFF10B5202A04DB0146203A9140D5
:10060000002010BD914020239C1A0346E34019436B
:10061000904010BD10B5202A04DB0846203AD04097
:10062000002110BD0B46D340D0402024A21A914097
:100630000843194610BD10B5202A06DBCB17084623
:10064000203A1041C1170B4306E00B461341D0403E
:100650002024A21A91400843194610BD10B5002B62
:1006600008DA0024401C614192185B411A4301D111
:100670004008400010BDF0B51FB482B005460C0024
:1006800003D008460BF0C2F902E00BF0BFF92030AE
:100690000246009021462846FFF7ACFF049B059ACE
:1006A00004460F4618431143084314D0184610431C
:1006B0001BD0009840210A1A18460599FFF7AAFF97
:1006C00005460E46009A05990498FFF793FF0843E4
:1006D00005D0012004E02046394607B0F0BD0020D7
:1006E000C11705430E432C43374300990E98630509
:1006F000401A7905E40A00220C43FD0A0A3002D5AB
:1007000000200146E9E70105101969410C9C0D9D87
:1007100000196941FFF7A2FFDFE7000010B50029CB
:1007200004DB0124E40740428C412146002B04DB1A
:100730001C460123DB075242A341994200D190425B
:1007400010BD0000064C0125064E05E0E36807CC0D
:100750002B430C3C98471034B442F7D3FFF7B4FC5A
:1007600030C5000850C5000830B58C180278401C10
:1007700013071B0F01D10378401C120906D1027820
:10078000401C03E005780D70401C491C5B1EF9D12C
:1007900001E00B70491C521EFBD1A142E6D30020A0
:1007A00030BD000010B50A46054C02212170607072
:1007B000E11C1046FFF740FD0120A070002010BD95
:1007C0000001002038B50446064805490068FFF7D7
:1007D0008FFC604300E0401E00900028FBD138BD34
:1007E00040420F00DC0000200149002048707047A3
:1007F000E400002000487047D20B0020042070471E
:100800005566778870B5044600688168490720D529
:10081000816810264907002905DA8168890702D412
:1008200081683143816002F075F905460DE002F000
:1008300071F9401B0A2808D9A06D3043A065E06D0E
:1008400001210843E065084670BD206880684007C4
:10085000EDD4002070BDF8B50446006881688907B2
:10086000890F012925D10168C90722D08168052295
:1008700011401025012601290FD181680222114360
:10088000816021680320086002F044F907460CE00B
:1008900002F040F9C01B0A2807D9A06D2843A065C3
:1008A000E06D3043E0650120F8BD20688068C00736
:1008B000EED10020F8BD0000F8B50446006881685C
:1008C0008907890F012902D10168C90722D18168EE
:1008D000114A10261140012500290ED181682943B3
:1008E00081600120FFF76EFF02F014F907460CE06B
:1008F00002F010F9C01B0A2807D9A06D3043A0658B
:10090000E06D2843E0650120F8BD20680068C04321
:10091000C007EDD10020F8BD17000080FFB581B001
:1009200002981546052209381F46382871D2A807B3
:1009300003D53948807802286BD0E80708D03648BC
:10094000192127380761490164200BF033FC82B27A
:10095000324E00244D206043801900790938382830
:1009600004D2641CE4B2052CF4D352E0052C50D21E
:10097000A80703D42848C178491CC170B8B284467E
:10098000802D2DD0202D2BD0402D29D001990879F4
:10099000CF7803024D2060433B43801903701B0A4C
:1009A00043708B784F781B023B4383701B0AC370E4
:1009B000029B0371097A41710272110A417200218E
:1009C0008171C57162468272120AC27201730D3062
:1009D000029A0199FFF7E6FBE80610D5012111E024
:1009E0004D20604380190B990170090A41700A99E2
:1009F0008170090AC170029901710C99DBE76806E0
:100A000004D502214D20604380198171204605B034
:100A1000F0BDFF20FBE70000070100207B0F002056
:100A200010B50648002101704170817014210448FE
:100A3000FFF7D1FB00F068FD002010BD070100208A
:100A4000C80B002000B504F05FFF0C49002811D04E
:100A500004F064FF00280DD004F000FF002809D046
:100A600004F010FF002805D004F002FF002801D098
:100A7000012000E000204870C0B200BD0701002046
:100A80000249C8798979000208437047C80B0020E1
:100A90000148807870470000C80B002001480079A9
:100AA00070470000C80B00200249487A097A00020A
:100AB00008437047C80B002010B500281DD013490B
:100AC0000446C860001DFFF7ADFB002819D0204682
:100AD0000830FFF7A7FB002813D020461830FFF797
:100AE000A1FB00280DD02046FFF79CFB002808D072
:100AF000064902202731887010BD05A00AF076FF54
:100B0000FEE707A00AF072FFFEE70000E000002009
:100B100046756E63206973204E554C4C210D0A00BA
:100B20004C6F73732043616C6C4261636B210D0ADF
:100B300000000000F8B5454C0546434F2046E168EB
:100B40007A78273006780C31012A0BD1072E09D08C
:100B5000002E30D1062404700846FFF763FB0146DF
:100B600020464FE02278072A25D0052A23D0964236
:100B700006D026700846FFF755FB014630468847E9
:100B8000324E27363078002816D0032814D001289A
:100B900019D0042826D0022843D006284ED0072892
:100BA00009D1002430467C7003212338FFF713FB62
:100BB00000F0AAFCB471F8BD8C2125486561FFF7EF
:100BC0000AFB012038E0F01DFFF72CFB6169691A70
:100BD0008842F0D265612846A56100F0E9FA042058
:100BE00030701AE0A0691B49281A88420CD90520E8
:100BF000307019A00AF0FAFEE0680C30FFF712FB23
:100C0000014630788847F8BD60691749281A88423C
:100C1000F9D92846656100F0CBFA14A00AF0E6FE87
:100C2000F8BD60697D21281A09018842F8D9284653
:100C3000656104F083FE04203070F8BD01207870F7
:100C40000AF01EFEF8BD0000C80B0020E0000020E6
:100C5000EF0E0020307500004A6F696E2054696DF8
:100C6000654F7574210D0A008813000042656163A9
:100C70006F6E20526571210D0A00000010B500F062
:100C800009FD02490120887110BD00000701002004
:100C9000FFB581B00E46074607F07EFF00F0AEFBC1
:100CA000224C234D002810D000F02EFC0F2F01D332
:100CB000A77001E00F20A070002E01D01E2E01D3DE
:100CC000E67005E01E20E07002E0607801280DD09B
:100CD000002028706070A071E07120712072607235
:100CE0001248082213490A30FFF75CFA03980028DB
:100CF00007D01149FFF7FCF9481CE91DFFF79CFAE2
:100D000007E07D20E91D0001FFF796FA0BA00AF02D
:100D10006DFE0498002805D005490B31FFF78CFAC9
:100D200005B0F0BD0BA00AF061FEFEE7C80B002085
:100D30000701002025C40008881300004A6F696E6F
:100D400044656C6179206973204E554C4C210D0A25
:100D500000000000446576696365204D41432041F1
:100D6000646472206F7220534E206973204E554C7C
:100D70004C210D0A00000000014840787047000037
:100D8000C80B002010B5044606F0A8FC204604F06D
:100D9000C5FC002010BD0000FFB5044681B00078FE
:100DA0000A9F022821D0C243520723D07D4B891EBF
:100DB000012825D0112823D005281AD0062859D07B
:100DC00003287DD0400614D5774D1A4669782079DE
:100DD0008C46D179927909021143EE1C00910128C9
:100DE0006FD0604601286DD091E02046394606F06C
:100DF000A7FCD5E0601C04F057FD00280AD1CFE025
:100E0000CEB22079E1780002651C084304F068FD49
:100E1000002802D0012005B0F0BD28791979884258
:100E200070D1E878A9780002084303990AF0C0FC61
:100E3000687829780002084304F052FD002809D0A0
:100E40002078112803D1E8793946FFF7ABFC5749E0
:100E500000204870687829780002084304F040FDBB
:100E6000002806D0009731462846049B039A06F0D6
:100E7000CFFC95E04D48641C2B30FFF7D3F90146B9
:100E800008222046FFF7B2F9002869D12046083031
:100E9000054600F013FE0A2819D20E225043444A98
:100EA000617C8018417003998170090AC170617D6D
:100EB000227D090211430171090A4171082202E0F1
:100EC0000AE01AE041E02946801DFFF76BF9374937
:100ED00002202031087063E0CDB2152D01D0182D0D
:100EE0005ED1601C04F0E0FC002859D03B46294646
:100EF000601C039A07F06CF852E0617A1A79601D61
:100F0000914201D0022086E76146002901D00620E7
:100F100081E74178027809021143009A914218D181
:100F200061782970C179A97041780278090211436A
:100F30003170090A7170C1788078090201431A483A
:100F40004171090A817101206870E91D3846FFF777
:100F500073F970783178000208430099884201D013
:100F6000052058E72078C00603D5A8783946FFF752
:100F700019FC20793A2148434019E278611D2F3845
:100F8000FFF710F9A0782179884209D10648009727
:100F90000B302978049B039A06F03AFC0320687012
:100FA000002038E7C80B0020E50D0020E7000020F6
:100FB000EF0E0020FEB5194D1446EA79AF79120202
:100FC0003A43089EA24201D115A023E0134A1432ED
:100FD0000092224600F064F901466878012801D0A9
:100FE00014A017E0687A2A7A00021043A04202D0C7
:100FF00015488442E8D140290BD800200090019088
:1010000002460290054833461430FFF787FC002063
:10101000FEBD0EA00AF0EAFC0120FEBDC80B0020B8
:1010200044737441646472206973206572726F72D4
:10103000210D0A00446576206973206F66666C692D
:101040006E65210D0A000000FFFF00005246206C73
:10105000656E206572726F72210D0A003EB51446EE
:10106000084A00F051F90146074B0848DB78002296
:101070006D460DC5234640220248FFF74FFC002075
:101080003EBD0000DC0B002007010020FFFF000038
:1010900010B50549002008702731087003494870D1
:1010A00000F032FA10BD0000E0000020C80B002064
:1010B00010B5044609F01EFB204607F099FA2046B9
:1010C000FFF760FE10BD0000014900200870704766
:1010D000E700002002480178491C017070470000B9
:1010E000E70000207047000010B5034988700AF03F
:1010F000C7FB002010BD0000C80B002010B5002861
:1011000005D0044908710AF0BBFB002010BD012086
:1011100010BD0000C80B002000B507F0CBFC024951
:101120000020887000BD0000E700002002488178A0
:10113000491C817070470000E7000020024901202F
:1011400048710020704700000701002001488068B6
:1011500070470000CC00002010B5642001F0EDFACB
:101160000021064803F0CAF9054801780029FCD09F
:101170000021024803F0E6F910BD0000F00A00204B
:10118000CC00002008B502460748232303714271B2
:1011900000910649001D4B7B5A1C4A730022022114
:1011A00000F0DEF9002008BD6C05002008000020DA
:1011B000F1B5184D84B005206C1C28701527082245
:1011C00015492046FEF7EEFF1448FFF72BF80822DA
:1011D0000146A018FEF7E6FF012020740F48002604
:1011E0000B38C178A174E67466748078207539462E
:1011F000681C00F026F929468875A07C029017210A
:101200000096019620222846049BFFF787FB0020CA
:1012100005B0F0BDDC0B00201DC400081201002049
:1012200005484178002904D0C078002801D000206A
:10123000704701207047000078000020F8B58C4608
:10124000014610460930C5B21C46581C01232370C4
:10125000CB788E781B02334303701B0A43700F4B0D
:10126000DE799F7936023E438670360AC6701B7956
:1012700003714B79802633434371C979C1710021D1
:10128000017261460930FEF78DFF2946601C00F0AF
:10129000D8F861194870AD1CE8B2F8BDC80B002041
:1012A000F8B5844608460930069CC5B2F42901D930
:1012B0000020F8BD112626706270120AA270104A32
:1012C0002046D679977936023E43E670360A267173
:1012D00012796271F02282710022C271094AD278B9
:1012E000027243720A4661460A30FEF75BFF2946E6
:1012F000601C00F0A6F861194870AD1CE8B2F8BD9A
:10130000C80B002007010020F7B508460A30144634
:101310000E46C5B2342901D90020FEBD1720207029
:10132000671C0E48FEF77EFF014608223846FEF78E
:1013300039FFF0203872094832460B38C07878728D
:1013400038460A300099FEF72DFF2946601C00F050
:1013500078F861194870AD1CE8B2FEBD120100209A
:1013600038B50446FFF708FD012803D10C48007A80
:10137000012801D0012038BD0A480B2101710A491A
:1013800049784171084900941C394B7C001D5A1C56
:101390004A740022022100F0E3F8002038BD00006A
:1013A0003C0700206C0500202400002010B50246F8
:1013B0000020054B05E01478491E4440185DC9B271
:1013C000521C0029F7D110BD2DC4000810B50A48E1
:1013D00001785A290DD1044620346178A52908D115
:1013E0001F21401C00F020F82178814201D100200B
:1013F00010BD012010BD00003C07002010B5094CB5
:1014000020785A280BD1E07CA52808D11121601C36
:1014100000F017F8A17C814201D1002010BD01200D
:1014200010BD0000C80B0020034610B53320002279
:1014300004E09C5C2018521CC0B2D2B28A42F8D39D
:1014400010BD034610B50020024604E09C5C201845
:10145000521CC0B2D2B28A42F8D310BD10B50248B5
:1014600000F080FF10BD00008C06002010B504685D
:1014700063608368102B036803D099600068C260C2
:1014800010BD9A600068C16010BD000008B5064834
:10149000C26A02210A43C262C06A084000908902FF
:1014A000024801F0AFF908BD0010024000040050EE
:1014B00000B50B4887B0C26A02210A43C262C06A03
:1014C00008400590880200900020019002900320BF
:1014D00003906946034801F051FA07B000BD0000CF
:1014E00000100240000400500020401CC0B214282C
:1014F000FBD3704710B52021024800F0CDF9002041
:1015000010BD00002000080810B52021024800F09E
:10151000C3F9002010BD00000000080870B50D469A
:101520000E4C091D049E217001216170A370E270B0
:1015300001462A46201D0AF0EBFD2078801EC1B22C
:10154000A01CFFF771FF6119087120783246401C1A
:10155000C1B22046FFF782FD002070BD6C0500205F
:10156000FFB581B01E4617460D46FFF705FC012862
:1015700003D11448007A012802D0012005B0F0BD43
:10158000114C281D207001206070A670E7702A465B
:10159000201D01990AF0BCFD2078801EC1B2A01C5C
:1015A000FFF742FF61190871FFF77EFA02460A98B9
:1015B000009020780023401CC1B22046FFF7FAFCBF
:1015C0000020DBE73C0700206C050020F8B52F4B1E
:1015D0001E78002E13D00021012E12D02C4C022E8A
:1015E00019D0224695781279032E27D0042E25D0C3
:1015F0001A467032052E31D0062E3BD044E0986258
:10160000F8BD1C8B9A6A6500821A6419A242F7D948
:101610009862197010E01D8B9A6A6E00821AAD19DB
:10162000AA42EDD998621970FFF76EFF0AF0F6F83A
:10163000E178607807F0B6F905F042FE134B9E6A38
:101640001B8B861B5F00DB199E42D9D90F4B98621A
:101650001970E11C284607F0C3F9F8BD9C6A3C26C6
:10166000051B1C8B7443A542F7D9986219700220A0
:101670005070F8BD1D8B9C6A6E00041BAD19AC4206
:10168000F7D99862042050701970F8BD0800002046
:101690003C070020FEB5194A012313701346143B82
:1016A0005C7A1E7A240234435470240A9470DC79E4
:1016B0009E79240234430546D470501C240AC47019
:1016C0001B7903712523437100240D4B8471DE784F
:1016D000C67104729B780A214372FFF7B2FE074974
:1016E0000C26C872009401942B4600223146034810
:1016F0000294FFF713F93046FEBD0000DC0B00201A
:1017000007010020F8B50546FFF736FB012803D195
:101710001E48007A012801D00120F8BD1C4C092088
:10172000207001201B496070087DA070401C087566
:101730000021E17021711749261D703148786071D0
:101740008878B070C879F070084654388078307165
:101750000721A01CFFF768FE7071FFF70DFB012841
:1017600007D020782A46401CC1B22046FFF776FCFD
:101770000AE0FFF799F90246009520780023401C03
:10178000C1B20348FFF716FC0020F8BD3C0700205B
:101790006C05002008000020FEB50746012040032C
:1017A0006946888001200290FFF7E6FA012801D0FF
:1017B0000120FEBD174C0D200226207016496670D0
:1017C000087BA070401C08730020E0702071251D6C
:1017D000324601A9601D0AF0A3FCEE7003202871B7
:1017E000042202A9681D0AF09BFC2078801EC1B269
:1017F000A01CFFF719FE6872FFF756F90246009722
:1018000020780023401CC1B22046FFF7D3FB002004
:10181000FEBD00006C0500200800002010B501206E
:1018200001F0A0F8022001F09DF810BD10B50420D1
:1018300001F098F8082001F095F810BD10B51020BF
:1018400001F090F8202001F08DF8402001F08AF896
:10185000802001F087F8FF20013001F083F801209B
:10186000400201F07FF80120800201F07BF80120A6
:10187000C00201F077F80120000301F073F80120A5
:10188000400301F06FF80120800301F06BF80120A4
:10189000C00301F067F810BD70B50D46064600F0B4
:1018A0009FFF002403E0301900F052FF241DAC42DA
:1018B000F9D300F061FF70BD10B5214A0021906995
:1018C000C305204804D5416902231943416191159C
:1018D00093699B0505D54369012423434361630252
:1018E000194393695B0505D5436908242343436184
:1018F000E301194393691B0505D543690424234378
:1019000043616302194393699B0405D5436910241D
:10191000234343616302194393699B0304D54469DC
:1019200020231C43446119439369DB0305D54369B4
:10193000402423434361A0020143916110BD000094
:10194000002002404001002070B5054601F0E2F899
:101950000646184C0AE0681C08D0002D04D001F09F
:10196000D9F8801BA84201D9032070BDA069C00727
:10197000F1D1A069800701D50220A061A069C0054E
:1019800011D4A06980050ED4A06940050BD4A069CC
:10199000000508D4A069800405D4A069800302D49E
:1019A000A069C00303D5FFF787FF012070BD0020A9
:1019B00070BD000000200240F8B56320C043FF2640
:1019C0001D4F0024009020460E214843395C032916
:1019D0001FD2C51968792979000208430BD1A81DC7
:1019E00008221649FEF702FC002822D168792979DD
:1019F0000002084315D06878012812D1E978A87848
:101A0000090609140143009881420ADD2646009127
:101A100007E0C11948790A790102114308A009F0C9
:101A2000E5FF641CE4B20A2CCDD30A2E01D2304665
:101A3000F8BD2046F8BD0000EF0E002025C40008C8
:101A4000506172655F4E776B416464723A25303441
:101A50007820747279206A6F696E206D61780D0A42
:101A60000000000010B5094A0021CB00D458844280
:101A700007D89B189B68834203D9C8008018007957
:101A800010BD491CC9B21529EFD3FEE74CC30008AD
:101A900010B5074801F032F9064A1168884201D3AF
:101AA000411A02E0044B591A09181060084610BD8B
:101AB000980B0020D8000020FFFF000070B500F058
:101AC00019F80A2810D3094D00240E20604340194C
:101AD00008220749801DFEF789FB002803D0641CFB
:101AE000E4B20A2CF1D3204670BD0000EF0E0020B6
:101AF00025C4000870B50546007800280FD00A4EAE
:101B000000240E206043801908222946801DFEF71C
:101B10006DFB002805D0641CE4B20A2CF1D3FF2031
:101B200070BD204670BD0000EF0E002080210170C6
:101B30000121417081703821C17005490A78027114
:101B40004A7842718A788271C978C1717047000001
:101B500000080008F8B5054604464035287D0026F3
:101B6000012808D001202875206881688907890F1D
:101B700001290ED101E00220F8BD0168C90708D093
:101B8000A06D20210843A06501260020287530465D
:101B9000F8BDA16DFF220132914302221143A165DC
:101BA000C1688907890F0091C16889088900C160EF
:101BB0002068816892071143816000F0ABFF0746FF
:101BC0000EE000F0A7FFC01B0A2809D9A06D022172
:101BD000884310210843A065002028750120F8BD26
:101BE000206880680028ECDB2068C168009A1143F7
:101BF000C160A06D80088000401CA065C5E70000A2
:101C0000F8B506460D464036317D01290DD001213B
:101C1000317501688A68520709D5816D2022114308
:101C20008165002030750120F8BD0220F8BD174BFA
:101C30006A68D80547109A42154C8A6A2B6812D0F8
:101C40005B035B0B1A438A622968490305D5A168C7
:101C50000143A1600A20FEF7B5FD2868800312D574
:101C6000A06838430EE05B035B0B9A438A622968E5
:101C7000490302D5A1688143A1602868800302D589
:101C8000A068B843A06000203075F8BD01100000C6
:101C90000027014070B5040043D0A06D0221084325
:101CA000A0652046FEF7AEFD0026054600283AD086
:101CB000012D32D0206841681F4A114041602168DF
:101CC000D043086020688168012212079143816037
:101CD0002068C168194A1140C16020680169184A2A
:101CE0001140016120684169C908C900416120684B
:101CF000016A144A1140016220688030416BC909B1
:101D0000C901416320688030416BC909C901416341
:101D1000204600F0FFF8E665A665403426752846A3
:101D200070BD012070BD2046FEF795FD05460128D7
:101D3000F3D00120A065BDE760F7FFFF00023E83FE
:101D400002FCFF3F00F000F00068006C70470000EC
:101D500070B5040006D0A06D264600254036002848
:101D600002D006E0012070BDE5653575204600F023
:101D7000E5F8A06DC00603D421688868400705D542
:101D8000A06D10210843A0653575EBE7A06DFF221B
:101D90000132904302221043A06588688207920FA7
:101DA0005A48012A02D10A68D2072BD1032362685C
:101DB0009B079A4205D05B429A4202D05B009A424E
:101DC00009D10A69920092080A6121680A69636868
:101DD0001A430A610CE00A69920092080A6181685C
:101DE0000F2292049143816081686268114381608F
:101DF0002168CA6818239A43CA602168CA68A36820
:101E00001A43CA6081680122520691438160816849
:101E1000228F52061143816020688168C90004D472
:101E2000816801221207114381602068C168384A25
:101E30001140C1602169E068022923D000210843D4
:101E4000216A226B4903520011430843616B084326
:101E5000A16989030843E169C90308432168CA6885
:101E60001043C860A06A0146FF39C23905D0E16A53
:101E700008432168CA681043C860606A01210128CC
:101E800002D00BE00421DAE7206A002823D0A06DFD
:101E900020221043A065E06D0843E065206C012816
:101EA00020681FD00169C90703D0016949084900AA
:101EB000016120684169C908C90041612068416920
:101EC000E26B11434161E565A06D80088000401C14
:101ED000A065002070BD2068C26801231B041A435E
:101EE000C260DBE70269FF239B009A43026120681E
:101EF0000269636CE66C1A43A36C33431A430261B4
:101F0000206802690A430261D3E70000002701400C
:101F10001902FEFF10B500680649884209D106483B
:101F2000416B42159143416305200321000700F0F6
:101F300069FC10BD0024014000100240F0B50068AB
:101F4000114985B088421CD11048416B421511439C
:101F500041630124032500266A46052770C23F0716
:101F60006946384600F00AFD02206A46039551C2D0
:101F70006946384600F002FD01220221384600F091
:101F8000C2FD05B0F0BD0000002401400010024079
:101F9000F8B504464069254640350E4608280BD062
:101FA0002068C068C00709D0A06D20210843A06543
:101FB000002028750120F8BD082700E00C2700F05C
:101FC000A9FD009011E0701C0FD0002E05D000F08C
:101FD000A1FD0099401AB04207D9A06D0421084321
:101FE000A065002028750320F8BD206800683842ED
:101FF000E9D0A06D012149020843A0652068C168AD
:1020000009058A0F0C21002A1AD1226A002A17D149
:102010000268120714D5826853070122002B08DBDF
:1020200043688B434360A06D130298431043A0653F
:1020300006E0A06D20231843A065E06D1043E06525
:10204000A069002801D1206801600020F8BD0000CF
:1020500070B50446216800208968490721D42546C7
:102060004035297D01291CD001212975E16901290B
:1020700004D02046FEF720FC002811D1A16D0A4AA9
:102080001140FF2201321143A1650021E16529754C
:1020900022681C21116021688A6804231A438A601F
:1020A00070BD022070BD0000FEF1FFFFF8B50446D0
:1020B0000068016849084900016000F02BFD002715
:1020C0002546064620350EE000F024FD811B7D20CC
:1020D000C000814207D9E06B20210843E0632F71E3
:1020E00003206871F8BD20680068C007ECD12F712B
:1020F000012068710020F8BD70B50024024620322E
:102100005179022903D00421C16301243CE0016814
:102110000B680E25AB430B6001680B685B085B0026
:102120000B601A4B0168994201D1012121E0174B44
:102130001433994201D110211BE0144B28339942EA
:1021400001D1891515E0114B3C33994201D1891415
:102150000FE00E4B5033994202D10121090408E0EF
:102160000A4B6433994202D10121090501E00121A2
:102170000906064B083B596001215171002111717C
:10218000816B002900D08847204670BD08000240BE
:10219000F0B5002821D0014620318C46497902292A
:1021A0001BD001680A68520852000A6002680021C8
:1021B000116002685160026891600268D160684CE9
:1021C000674D674E664F664A0168143428353C36C1
:1021D0005037914203D101231DE00120F0BDA142FF
:1021E00001D1102317E0A94202D1FF23013312E0ED
:1021F000B14202D101231B030DE0B94202D10123F8
:102200001B0408E0564B6433994202D101231B059D
:1022100001E001231B06524908394B6001689142D5
:1022200001D102231BE0A14201D1202317E0A942E2
:1022300002D101235B0212E0B14202D101235B0310
:102240000DE0B94202D101235B0408E0444B643342
:10225000994202D101235B0501E001235B0640495D
:1022600008394B600168914201D108231BE0A1426B
:1022700001D1802317E0A94202D10123DB0212E041
:10228000B14202D10123DB030DE0B94202D10123A7
:10229000DB0408E0324B6433994202D10123DB05B1
:1022A00001E00123DB062E4908394B6001689142A9
:1022B00001D104231BE0A14201D1402317E0A94230
:1022C00002D101239B0212E0B14202D101239B0300
:1022D0000DE0B94202D101239B0408E0204B643396
:1022E000994202D101239B0501E001239B061C4971
:1022F00008394B601A4903687831934203D18A6ADE
:102300001209120124E0A34202D18A6AF0231EE0DE
:10231000AB4203D18A6A0F231B0218E0B34203D1F8
:102320008A6A0F231B0312E0BB4203D18A6A0F2380
:102330001B040CE00A4A6432934203D18A6A0F23D9
:102340001B0504E08B4204D18A6A0F231B069A43C3
:102350008A620021C1636046417101710846F0BD87
:1023600008000240F8B504469D4801689C4A9C4E0E
:102370009B4F0832206813041C363037904201D13D
:1023800008221EE0B04201D180221AE0B84202D1F8
:102390000122D20215E0924A4432904202D1012237
:1023A000D2030EE08E4A5832904201D11A4608E01C
:1023B0008B4A6C32904202D10122D20501E0012207
:1023C000D20625461140203500293BD00168090777
:1023D00038D501680822914301608149206808319D
:1023E000884201D108201EE0B04201D180201AE0CD
:1023F000B84202D10120C00215E079494431884237
:1024000002D10120C0030EE075495831884201D144
:10241000184608E072496C31884202D10120C0059B
:1024200001E00120C0066E494860E06B01210843CD
:10243000E0630420687100202871616B002901D0DD
:102440002046884766480168654A206808321315A7
:10245000904201D104221EE0B04201D140221AE094
:10246000B84201D11A4616E05D4A4432904202D188
:10247000012292030FE05A4A5832904202D10122BF
:10248000920408E0564A6C32904202D10122920531
:1024900001E001229206114238D00168490735D582
:1024A0000168890603D4026804218A4302604C490A
:1024B00020680831884201D104201EE0B04201D1D9
:1024C00040201AE0B84201D1184616E04449443190
:1024D000884202D1012080030FE0414958318842EF
:1024E00002D10120800408E03D496C31884202D1CC
:1024F0000120800501E0012080063949486005205F
:102500006871216B002901D0204688473448016852
:10251000334A206808325315904201D102221EE04E
:10252000B04201D120221AE0B84201D11A4616E089
:102530002B4A4432904202D1012252030FE0284A32
:102540005832904202D10122520408E0244A6C32EF
:10255000904202D10122520501E0012252061142AD
:102560003CD00168890739D50168890603D4016820
:102570000222914301601A4920680831884201D142
:1025800002201EE0B04201D120201AE0B84201D161
:10259000184616E012494431884202D10120400316
:1025A0000FE00F495831884202D10120400408E071
:1025B0000B496C31884202D10120400501E0012025
:1025C000400607494860E06BE06301206871002025
:1025D0002871E16A002901D020468847F8BD000033
:1025E0000000024070B5002805D003462033597919
:1025F000002902D003E0012070BD002119710221E1
:102600005971046822683749C5680A40816846697B
:10261000294305693543294385692943C569294308
:10262000056A2943114321602F492F4C02687831F4
:10263000A24206D18A6A120912018A628A6A406835
:1026400049E0294C1434A24207D18A6AF024A243FB
:102650008A628A6A406800013DE0234C2834A24225
:1026600008D18A6A0F242402A2438A628A6A4068D7
:10267000000230E01C4C3C34A24208D18A6A0F248C
:102680002403A2438A628A6A4068000323E0164C4E
:102690005034A24208D18A6A0F242404A2438A62D9
:1026A0008A6A8088000416E00F4C6434A24208D184
:1026B0008A6A0F242405A2438A628A6A80880005F8
:1026C00009E08A4209D18A6A0F242406A2438A6259
:1026D0008A6A0079000602438A620120587100204C
:1026E00070BD00000FC0FFFF08000240F8B50446AF
:1026F00020300579012D1ED0012505710226467175
:1027000020680768AF4307602046FEF7AFFE2068E9
:1027100001683143016020680168042211430160AF
:10272000206801680822114301602068016829437C
:1027300001600020F8BD0220F8BD31B500F0EAF9D3
:10274000044600F0E7F90099001B8842F9D338BD30
:1027500070B5074D04462846FFF7F6F8002805D166
:102760000449486120602846FFF7EEF870BD00007C
:1027700050C300004001002003484168012211437A
:10278000416000207047000000200240F8B5124D63
:102790000746287C14460E46012807D001202874DD
:1027A0000E48FFF7D1F8002802D00CE00220F8BD57
:1027B00000216961022F09D0012F09D0002F09D013
:1027C0000648FFF7C1F800212974F8BD3460FAE724
:1027D0003480F8E73470F6E74001002050C3000071
:1027E00005484168C90705D00449C1600449C16072
:1027F000002070470120704700200240EFCDAB89D8
:1028000005040302F0B500235DE001249C4022464C
:102810000A4057D006685F000325BD402E43AC46F2
:102820000660DD08AD002D182E6AAE465D07EF0E7E
:102830000F25BD40AE4375462E6286686546AE43A1
:1028400086604568A5434560C4686546AC43C4607E
:102850009D081F4CAD002D19AF689C07260F0F2453
:10286000B440A4463C4005273F07B84201D10027A9
:1028700014E0184FB84201D101270FE0164FB842BB
:1028800001D102270AE0154FB84201D1032705E024
:10289000134FB84201D1052700E00627B740A742F1
:1028A00010D1AE686446A643AE600E4C25689543D1
:1028B0002560656895436560A5689543A560E568F2
:1028C0009543E5605B1C0A46DA409ED1F0BD0000EE
:1028D000000001400004005000080050000C0050AF
:1028E000001C00500004014010B5044602F0D4FB67
:1028F0000121490301208C4203D1134906E088706D
:1029000010BD012109038C4204D110498A78002AA4
:10291000F5D010BD0121C9028C4208D10C490A78BA
:10292000002A00D108700BA009F060F810BD042C3B
:10293000FCD104210A4800F0DDF8C007F6D003F00E
:1029400041FF03F06BFB10BD270000202A00002090
:102950001F000020447620494E54210D0A0000003B
:102960000004005010B504494A69024202D048618F
:10297000FFF7BAFF10BD000000040140F8B50023C6
:102980000124A2E027469F403A4070D04D68022DB6
:1029900001D0122D14D1DD08AD002D1800952D6A3F
:1029A0005E07AC46F50E0F26AE46AE406546B54313
:1029B000AC460E697546AE4065462E43009D2E62BC
:1029C0004D68012D05D0022D03D0112D01D0122DFF
:1029D00016D185680326AC465D00AE46AE4065461E
:1029E000B543AC46CE687546AE4065462E4386601C
:1029F00046680D79BE43ED06ED0F9D4035434560B9
:102A000006685F000325BD40AE46AE430D79B4466F
:102A1000AE07B60FBE4065462E430660C6687546D3
:102A2000AE438D68BD403543C5604D68ED004BD564
:102A3000294D6E6B26436E639E08284DB6007519AE
:102A4000AC46AD689E07360F0F27B740BD4305273C
:102A50003F07B84201D1002715E0214FB84201D10C
:102A6000012710E01F4FB84202D102270BE02BE0F4
:102A70001D4FB84201D1032705E01C4FB84201D1D8
:102A8000052700E00627B7402F436546AF60184D85
:102A90002E684F689643FF0300D516432E606E687C
:102AA0004F689643BF0300D516436E60AE684F680B
:102AB0009643FF0200D51643AE60EE684F6896431A
:102AC000BF0200D51643EE605B1C0A681546DD4068
:102AD00000D057E7F8BD00000010024000000140A0
:102AE0000004005000080050000C0050001C005072
:102AF000000401400069084000D00120704742698D
:102B00004A4042617047002A01D08161704781626A
:102B10007047000001480068704700000000002076
:102B200002480168491C0160704700000000002055
:102B300010B506480168402211430160002000F0F2
:102B400007F800F0DFF8002010BD00000020024070
:102B500010B5044607487D21C9000068FDF7C8FA92
:102B600001F01CFB00222146501E00F009F9002054
:102B700010BD0000DC00002030B5022402462032E7
:102B8000134694734268012A09D0826AA405A242BE
:102B900005D10268D46807256D02AC43D460026891
:102BA0001569012425431561026891610068016976
:102BB0000422114301619C73002030BD02220146B2
:102BC00020318A73006802695208520002610120B4
:102BD00088730020704710B500280FD002220146EC
:102BE00020310C468A7301680A69520852000A6152
:102BF00000F04EF80020A073607310BD012010BDDE
:102C0000F8B5040005D025462035A87B002802D061
:102C100006E00120F8BD00206873204600F04EF861
:102C20000220A8732068C26884466368012B01D122
:102C30001E20824313486169814201D0124802403C
:102C40001248A668024018463043676A266A3E4327
:102C50003043A66A30431043012B03D12369E26855
:102C60001A431043074A914205D0A2691143E26911
:102C70000243084610436146C8600120A873002043
:102C8000F8BD0000FFFF00003F1FFFFFFEF119FF2E
:102C900010B500680649884208D10648816B490092
:102CA0004908816320210448FFF7ACFD10BD0000F6
:102CB000007C0040001002400004005000B5006895
:102CC0000B4985B0884210D10A48816BC204114378
:102CD0008163202000900221002001910290049144
:102CE000039069460448FFF749FE05B000BD0000A7
:102CF000007C004000100240000400500068C069E1
:102D00007047000010B50C48416B0122114341632C
:102D1000816B02041143816300221146501F00F0B1
:102D20002FF800221146901E00F02AF800221146CA
:102D3000501E00F025F810BD00100240C106C90E5B
:102D400001208840014908607047000080E100E0F0
:102D5000C106C90E01208840014908607047000083
:102D600000E100E005490968C206D20E012090404A
:102D7000014201D0012070470020704700E200E0CE
:102D800010B504F07BFA10BD0A4B1A689208920045
:102D900002431A60084803690422134303610129AE
:102DA00006D040BF20BF20BF016991430161704739
:102DB00030BFF9E70070004000ED00E0F8B547498A
:102DC000034601240020E403434D444A4031082BCC
:102DD00070D00EDC012B3DD0022B55D0042B19D125
:102DE000CB680326B602334059D0CF14BB4243D040
:102DF00058E0102B6BD0202B0CD10B6909690325EF
:102E000001272D043F0429407E00B94203D19905D2
:102E10002CE02046F8BDB14203D19907FAD53048DD
:102E2000F8BDA942FCD111688903F9D511680320C6
:102E30000005014001200005091A09D0091A05D032
:102E4000814201D12748F8BD2748F8BD2748F8BD81
:102E50002748F8BDCB689B079B0F0AD0022B0BD0ED
:102E6000012B0ED0032BF4D1096989050029D0DB91
:102E7000F8BD00F0BBF9F8BD11684907FBD528463D
:102E8000F8BD00F0C3F9F8BDCB680C26334006D07E
:102E9000082BF1D0042BF4D00C2BE5D0F8BD00F0BA
:102EA00095F9F8BD012292029342EAD0B342DBD0F9
:102EB000F8BDFFE7C96803231B031940EFD00124C5
:102EC00064036310A142D7D09942DAD0F0E7916B46
:102ED0004902E4D4ECE700000024F40000100240B2
:102EE0008890000020A1070000093D0040420F002B
:102EF00080841E00F8B504460078544D800672D5D3
:102F0000524E0027403EB06BC00004D4B06BA90500
:102F10000843B06301274E480168C90511D4016810
:102F2000821511430160FFF7F5FD009005E0FFF702
:102F3000F1FD0099401A642837D845480068C0055B
:102F4000F5D532680321090560680A4001409142C5
:102F500008D08103890F032904D13168890301D581
:102F60000120F8BD2A69032109040A4022D0084043
:102F700090421FD0207880061CD528692A69884392
:102F80000121C9040A432A612A698A432A61286106
:102F9000C0050FD5FFF7BEFD009008E0FFF7BAFDB2
:102FA0000099411A2B48814201D90320F8BD2869B4
:102FB0008005F3D561688803800F032805D1326846
:102FC0000005824301400A43326028690322616898
:102FD0001204114008432861002F04D0B16B012076
:102FE00000078143B1632078C00705D0E868A16875
:102FF000800880000843E8602078800705D5E868ED
:103000000C218843E1680843E8602078400706D532
:10301000E86803218902884321690843E860207831
:10302000000706D5E868032109038843616908435E
:10303000E8602078000606D5E86803218904884303
:10304000A1690843E8600020F8BD0000401002407C
:103050000070004088130000F8B5054653480E463E
:103060000068C007C00FB0420AD250480168490842
:103070004900314301600068C007C00FB0426FD102
:1030800028784B4C800705D5E068F0218843A96873
:103090000843E0602878C00752D06868022817D03B
:1030A000032818D02168012818D08905002957DA8B
:1030B000E168890889000143E160FFF72BFD696839
:1030C0000746022912D003291CD0012926D033E05B
:1030D00021688903EAE721688901E7E74907E5E70D
:1030E000FFF718FDC11B3348814223D8E068000771
:1030F000800F0228F4D123E0FFF70CFDC11B2D48FF
:10310000814217D8E0680007800F0328F4D117E048
:10311000FFF700FDC11B274881420BD8E06800077C
:10312000800F0128F4D10BE0FFF7F4FCC11B21480C
:10313000814201D90320F8BDE0680007800FF3D178
:103140001A480168C907C90FB1420BD9016849087B
:103150004900314301600068C007C00FB04201D090
:103160000120F8BD2878400706D5E068072109024C
:103170008843E9680843E0602878000707D5E068DD
:103180000721C90288432969C9000843E06000F0AB
:103190003DF8E168084A0906090F515CC840074933
:1031A00008600020FFF7D4FC0020F8BD002002409A
:1031B0000010024088130000FCC30008DC0000205F
:1031C0000148006870470000DC0000200448054901
:1031D0000068C968044A4905490F515CC8407047F6
:1031E000DC0000200010024015C400080448054916
:1031F0000068C968044A8904490F515CC840704797
:10320000DC0000200010024015C4000810B5184A68
:10321000D1680C20084004280BD0082810D00C28B6
:1032200010D050680004410F0120C003491C8840A1
:1032300010BD1068C00601D50E4810BD0E4810BD67
:103240000E4810BD88020E4B000F185C0902D368AF
:10325000890F491CDB0301D5084A05E01268D20634
:1032600001D5044A00E0044A5043FCF741FF10BD79
:103270000010024000093D000024F40000127A0012
:103280000CC40008F8B504460078F24DC0074AD0D7
:10329000E8680007800F022807D0E8680007800F61
:1032A000032809D1E868C00306D5286880033AD509
:1032B0006068002873D036E0012062680004824212
:1032C00003D129680143296011E0052301211B0472
:1032D00089049A422A6802D10A432A60F1E78243AC
:1032E0002A602A6802400092286888432860606843
:1032F00000280CD0FFF70EFC064604E0FFF70AFC9E
:10330000801B64287ED828688003F7D50BE0FFF780
:1033100001FC064604E0FFF7FDFB801B6428F1D8A2
:1033200028688003F7D42078800741D5E8681F27F4
:103330000007800F3F02012807D0E8680007800FD0
:10334000032809D1E868C00306D42868400717D5C8
:10335000E068012823D113E0E068002817D029682D
:103360000922914301432960FFF7D4FB064604E09C
:10337000FFF7D0FB801B0228C4D828684007F7D588
:1033800068682169B84309020843686010E028684A
:10339000400840002860FFF7BDFB064605E090E0CE
:1033A000FFF7B8FB801B0228ACD828684007F7D489
:1033B0002078C00676D5E868A74E0007800F0BD0AE
:1033C000A06900285DD02868FF21013108432860EA
:1033D000FFF7A0FB074644E02868800502D5A069F6
:1033E00000286ED0206A69683140884212D905F001
:1033F000A1FA0028AED16868216AB043084368602A
:10340000686800E0BBE00002217F000A090608436B
:1034100068600FE06968B143014369606868217FB3
:103420000002000A090608436860206A05F082FA73
:1034300000288FD1206A410B0120C003491C88401D
:10344000E96809060A0F8549895CC8408449086013
:103450000020FFF77DFB25E0FFF75CFBC01B022887
:103460008AD828688005F7D56868216AB043084380
:1034700068606868217F0002000A090608436860E6
:1034800010E02968FF20013081432960FFF742FBEB
:10349000064604E0FFF73EFB801B02286FD8286831
:1034A0008005F7D420786F4E000723D56069002887
:1034B000306910D0012108433061FFF72BFB07462C
:1034C00005E0C5E0FFF726FBC01B022857D830698E
:1034D0008007F7D50EE0400840003061FFF71AFB87
:1034E000074604E0FFF716FBC01B022847D83069E7
:1034F0008007F7D42078400762D5A86B0027C0006A
:1035000005D4A86B012109070843A8630127564881
:103510000168C90511D40168821511430160FFF7E4
:10352000F9FA009005E0FFF7F5FA0099401A6428CF
:1035300025D84D480068C005F5D5FF20A2680130A8
:10354000824203D131690143316111E001218902D5
:10355000002A07D005231B029A4203D132690A438D
:103560003261EFE73269824332613069884330610A
:10357000A06800280FD0FFF7CDFA009007E060E0C8
:10358000FFF7C8FA0099411A3848814259D8306982
:103590008005F5D50DE0FFF7BDFA009006E0FFF7D6
:1035A000B9FA0099411A314881424AD830698005F8
:1035B000F5D4002F04D0A96B012000078143A96333
:1035C000606A002842D0E9680907890F03293FD0C3
:1035D000012636060228286805D0B0432860FFF788
:1035E00099FA04462FE0B0432860FFF793FA0746A4
:1035F00004E0FFF78FFAC01B022822D82868800158
:10360000F7D4E16AA06AEA680843216BFD231B0432
:103610009A4311430843E860286830432860FFF765
:1036200079FA044604E0FFF775FA001B022808D86F
:1036300028688001F7D509E0FFF76CFA001B022823
:1036400001D90320F8BD28688001F5D40020F8BD19
:103650000120F8BD0010024000E00000FCC300089B
:10366000DC00002040100240007000408813000081
:10367000704730B5014620310A78012A15D0012261
:103680000A7002234B700468CA23636204685323E0
:10369000636203689C6820252C439C600068FF23BC
:1036A00043624A700020087030BD022030BD10B562
:1036B00007F00EF910BD000070B50446006881687F
:1036C0008025C90400290BDAC068C00508D520464A
:1036D000FFF7EDFF2168C8682840FF388238C860CE
:1036E0002068816889040BD5C068800508D520460C
:1036F000FFF7BEFF2068C168054A29408918C160EC
:10370000012004494004486101202034607070BDEC
:103710007FFDFFFF00040140F8B505460446203553
:10372000287801281DD001202870022068702268A6
:10373000CA205062226853205062FF2001300026C8
:10374000FF2781421CD121688A6882438A602068F1
:1037500081680122120391438160FFF7DBF9009039
:1037600009E00220F8BDFFF7D5F90099411A7D2044
:10377000C00081421BD82068C068C007F3D020E099
:10378000206881680122520291438160206881682B
:10379000120191438160FFF7BDF900900DE0FFF742
:1037A000B9F90099411A7D20C000814205D92068ED
:1037B0004762032068702E70F8BD2068C0688007DB
:1037C000EDD520684762012068702E700020F8BD9A
:1037D000F0B50C46FF219C460131254640268F0559
:1037E0001D4B20358A4204D161620168C869496C69
:1037F00005E00121490261620168086A896C820260
:10380000920E22704204520E62704206520EA27054
:10381000020C49043240490CE27061608100890E5B
:103820002970014639401840E16160616046002816
:103830000FD1207805F052F92070607805F04EF92C
:103840006070A07805F04AF9A070287805F046F974
:1038500028700020F0BD00008080808010B50068D6
:103860000B464068C021C94301400002000ECC0451
:10387000D870E40E5C708C06A40E0904490F9C708D
:103880001970002A0AD105F029F9D870587805F086
:1038900025F95870987805F021F99870002010BD2E
:1038A00030B50B460168896A5960016809694904A5
:1038B000490C9960006804680F482146014088025D
:1038C0004D04800E18706D0E49065D70490E99709A
:1038D0006102490E40242140D970002A0AD105F026
:1038E000FDF81870587805F0F9F85870987805F0D8
:1038F000F5F89870002030BD7F7F7F0070B5040020
:1039000005D0254620356878002802D006E0012041
:1039100070BD00202870204600F042F80220687038
:103920002168CA204862216853204862204605F079
:10393000F9F8FF210028206803D041620420687054
:10394000E5E78268154B1A408260226890686368D8
:10395000A669184323693343184390602268E068DE
:1039600010612068026923891B041A4302612068E0
:10397000C26880239A43C2602068C26C9208920099
:10398000C264E269606902432068C36C1A43C2647E
:103990002068416201206870002070BDBFFF8FFF6A
:1039A00010B50068084988420DD108480169012214
:1039B000920411430161002211460220FFF7E0F951
:1039C0000220FFF7C5F910BD00280040401002405A
:1039D000FEB506460446203630780B46012842D014
:1039E000012030700220707020681D4600272035AD
:1039F0008068002A39D0400655D5187805F06EF851
:103A0000287805F06BF819789878090408435978F4
:103A1000DA78090212041143084329780906084399
:103A2000D9690843596908430546996958680843A4
:103A300000902168CA204862216853204862FF2014
:103A40005A6A0130802182424AD1226893688343B6
:103A500093602268D0680840FF388238D060FFF752
:103A600059F8019029E00220FEBD400600D4DF7025
:103A7000187805F03BF80204587805F037F8000292
:103A80000243987805F032F80243D87800040243E4
:103A9000287805F02BF800060243D86902435869DC
:103AA00002431546C1E7DF70AAE7FFF733F8019933
:103AB000411A7D20C00081422AD82068C068C00712
:103AC000F3D02068C5612168009848642068816847
:103AD000FF2201321143816020688168120130E0C9
:103AE0002068826801235B029A4382602068C26872
:103AF0000A401D495118C160FFF70CF801900EE013
:103B0000FFF708F80199411A7D20C000814206D9CB
:103B10002168FF204862032070703770FEBD206866
:103B2000C0688007ECD52068056221680098886429
:103B300020688168012252021143816020688168F7
:103B400012011143816009480268012149040A43B6
:103B5000026082680A4382602168FF204862012077
:103B6000707037700020FEBD7FFDFFFF0004014034
:103B7000F8B505460446203528780B46012815D0AF
:103B800001202870022068705878002A10D004F0B4
:103B9000A5FF987804F0A2FFD8789E780004064329
:103BA0005878197800024903084316E00220F8BD4E
:103BB000C10603D5EF2108400A305870D87804F0C8
:103BC00095FF0604587804F091FF000206439878A8
:103BD00004F08CFF06431878400306432168CA208E
:103BE0004862216853204862204604F09BFF00276A
:103BF000002811D110480640206846602068C1683E
:103C000080229143C1602068806880060CD42046E1
:103C100000F08CF8002807D02168FF2048620420BB
:103C200068702F700120F8BD2168FF2048620120D4
:103C300068702F700020F8BD3FFFFF00F8B5064602
:103C40000446203630780D4601280ED00120307011
:103C500002207070206800278068002A07D0400684
:103C60001AD5287804F03AFF17E00220F8BD400684
:103C700000D4EF70287804F039FF0204687804F06B
:103C800035FF00020243A87804F030FF0243E878D1
:103C90000004024300920BE0EF702978A878090431
:103CA00008436978EA780902120411430843009036
:103CB0002168CA204862216853204862204604F0E7
:103CC00031FF00281FD1184900980840216808607A
:103CD0002068816801229204914381602969E86823
:103CE000084321688A68104388602068C168802280
:103CF0009143C1602068806880060CD4204600F0A3
:103D000015F8002807D02168FF2048620420707051
:103D100037700120F8BD2168FF20486201207070D3
:103D200037700020F8BD00007F7F7F0070B504462B
:103D30000068C168A0229143C160FEF7EBFE7D26BA
:103D40000546F60006E0FEF7E5FE401BB04201D94D
:103D5000032070BD2068C0688006F4D5002070BDC7
:103D600070B5040012D0022120464030054641744F
:103D700020680168402291430160204600F04AF823
:103D80000021616569742974084670BD012070BD09
:103D900070B5040006D025464035687C0026002812
:103DA00002D005E0012070BD2E74204600F056F8C8
:103DB0000220687420680168402291430160A16874
:103DC000606822690843E168114308436169012280
:103DD0000843A169520211400843E1690843216A7E
:103DE0000843A16A084321680860A0690421000C07
:103DF0000840616A0843216848602168E06A0861F8
:103E00002068C16992009143C161666501206874B0
:103E1000002070BD10B50D4A01680D48914207D1D0
:103E2000416B821491434163E0210520000709E0C2
:103E3000084A914208D1816B121491438163312168
:103E400089020548FEF7DEFC10BD0000003001408D
:103E5000001002400038004000040050F0B5164A3F
:103E60000168164885B0914205D1416B8214114317
:103E7000416305B0F0BD124A9142FAD1816B121430
:103E8000114381631011009005200E4F022500247C
:103E90000326049003960195029469463846FEF77E
:103EA0006DFDB00300900294694603960195049459
:103EB0003846FEF763FDDCE70030014000100240A9
:103EC0000038004000040050F8B50446002768465A
:103ED000078026464036707C012802D0707C22285C
:103EE0007ED100290CD0002A0AD0002B08D0307CCB
:103EF000012875D001203074707C012802D003E0C5
:103F00000120F8BD322070746765A263A387E38740
:103F10002163A386E386A764E7640125A06A6D0395
:103F2000A84207D120680168A943016020680168A0
:103F30002943016020680168490603D401684022D2
:103F4000114301600121FF20E268C90205308A4265
:103F5000616866D1002904D081420CD1E08E01282D
:103F600009D1206B21680088C860206B801C206309
:103F7000E08E401EE086E08E002843D1A06AA84271
:103F800046D12068016801221203114301603FE01D
:103F90002068C068A16B0880A06B801CA063B0E0A3
:103FA000002202212046069B04F06CFE00287DD1F1
:103FB000206B21680088C860206B801C2063E08E25
:103FC000401EE086E08E002808D1A06AA84205D1F4
:103FD000206801680122120311430160002200E001
:103FE000CCE001212046069B04F04CFE00287FD146
:103FF0002068C068A16B0880A06B801CA063E08F64
:10400000401EE087E08E0028CAD1606800287BD17E
:10401000002201212046069B04F034FE002867D1CF
:10402000B6E7002904D081420BD1E08E012808D1E7
:10403000206B411C216321680078C860E08E401E1F
:10404000E086E08E002845D1A06AA84205D120680C
:104050000168012212031143016000220121204660
:10406000069B04F00FFE002842D12068C068A16BB7
:10407000087046E0002202212046069B04F002FE62
:10408000002835D1206B411C216321680078C8606D
:10409000E08E401EE086E08E00280AD1A06AA84289
:1040A00007D1206802680121090300E020E00A43EB
:1040B0000260002201212046069B04F0E3FD002857
:1040C00016D12068C268A06B411CA1630270E08F0A
:1040D000401EE087E08E0028CCD16068002813D114
:1040E000002201212046069B04F0CCFD002802D0CE
:1040F0000320F8BD08E02068C168A06B421CA263E1
:104100000170E08F401EE087A06AA8420FD1002214
:1041100001212046069B04F0B5FD002802D0606D09
:1041200002210EE02068C0686946088008880122E4
:1041300080212046069B04F0A5FD002804D0606D78
:10414000202108436065D3E701207074A06AA8426B
:1041500011D120688168C943C9060CD4616D02225F
:10416000114361650168A943016020680168294322
:1041700001603774C4E637740020BAE70220B8E75C
:10418000042204490428086902D09043086170475A
:104190001043FBE700E000E070470000094910B55C
:1041A000401E884201D9012010BD074C60610321E7
:1041B000081F03F063F80020A061072020610020A1
:1041C00010BD0000FFFFFF0000E000E010B5FFF7AA
:1041D000E3FF10BD70B502462032137D012B1BD0CA
:1041E0000123137502245475046865687026B5436D
:1041F0006560046865680E68354365600468A56895
:104200008026B543A5600068846849680C438460D3
:1042100053750020107570BD022070BD024620321B
:10422000137D012B07D001231375006801655375B9
:104230000020107570470220704770B5040005D04B
:1042400025462035687D002802D006E0012070BD9B
:1042500000202875204600F00BF802206875211D0B
:10426000206806F06BF901206875002070BD000021
:1042700010B50068084988420CD10848816B1022AB
:1042800011438163002211461120FEF779FD1120B0
:10429000FEF75EFD10BD000000100040001002405F
:1042A0000268D36801210B43D360006802680A43A7
:1042B00002600020704700000168CA68520852007E
:1042C000CA600068016A044A114203D101684908C2
:1042D00049000160002070471111000070B50068AE
:1042E0000E49884214D10E4C012560780D4E0028ED
:1042F0000FD001280CD100206070FEF761FF3168FB
:10430000C000496B6268891AFBF7F2FEA060257055
:1043100070BD65703068406B606070BD0008014022
:10432000CC000020F00A0020F8B5064604462036EE
:10433000307D0D4601283DD001203075022070757A
:10434000002A39D0042A46D0082A57D02B68297B66
:1043500020689E468C466B68016A012212039143D5
:104360000162C169026A03273F02B9431B020B4382
:104370000F2109038B4361460907090C19430523E3
:104380005B039A4373460A273B401B031343C161F7
:1043900003622068C169032292029143C1612068CF
:1043A000C169AA6812021143C16101207075002021
:1043B0003075F8BD0220F8BDEB6806CD083D2068D9
:1043C00006F056F9206882690C218A4382612068D0
:1043D0008169AA680FE0EB6806CD083D206806F009
:1043E0006FF920688269032189028A43826120680B
:1043F0008169AA68120211438161D6E788CD2879C4
:1044000021688446086AFF22013290430862C86925
:104410000A6A800880003843F027B84367463F07A0
:104420003F0E07430520400282430A200340180242
:104430001043CF6108622068C1690C229143C161B9
:104440002068C1692A68AEE710B50221044620340D
:10445000617501680A6A064B1A4203D10A6852085C
:1044600052000A6000F020F800206075207510BD31
:104470001111000070B5040005D025462035687D77
:10448000002802D006E0012070BD002028752046DB
:1044900000F01CF802206875211D206806F04EF817
:1044A00001206875002070BD10B50068054988427C
:1044B00007D10548416B0422914341631420FEF764
:1044C0003DFC10BD000801400010024010B500681E
:1044D000084988420CD10848416B042211434163CA
:1044E000002211461420FEF74BFC1420FEF730FC8E
:1044F00010BD0000000801400010024010B5026825
:104500000446002906D0042907D0082914D00C2914
:1045100007D114E0D068022301E0D06804231843D7
:10452000D0600122206806F031F82068016801227D
:1045300011430160002010BDD0680823EFE7D06868
:104540001023ECE710B502680446002906D00429C0
:1045500007D0082918D00C2907D118E0D068022309
:1045600001E0D06804239843D0600022206806F060
:104570000DF82068016A074A114203D10168490811
:1045800049000160002010BDD0680823EBE7D06827
:104590001023E8E71111000070B5044600680169B6
:1045A0000025C9438907002915DBC168C94389076C
:1045B00011D4E91E016101202075206880698007FF
:1045C000204602D0FFF78AFE04E000F0B7F820464C
:1045D00000F076F9257520680169C943490717D4A9
:1045E000C168C943490713D40421C94301610220AA
:1045F0002075206880698005800F204602D0FFF773
:104600006DFE04E000F09AF8204600F059F9257597
:1046100020680169C943090716D4C168C94309075D
:1046200012D40821C9430161042020752068C069A3
:104630008007204602D0FFF751FE04E000F07EF82C
:10464000204600F03DF9257520680169C943C90677
:1046500017D4C168C943C90613D41021C9430161E5
:10466000082020752068C0698005800F204602D090
:10467000FFF734FE04E000F061F8204600F020F976
:10468000257520680169C943C90708D1C168C943B4
:10469000C90704D1891E0161204600F035F9206860
:1046A0000169C943490609D4C168C943490605D40B
:1046B0004021C9430161204600F032F970BD00007D
:1046C000F0B500680121890787B088422FD11948C9
:1046D000C16A01221143C162C16A11400591C16AD8
:1046E00002242143C162C06AD6032040009605908F
:1046F000052000250707049002950395019469465B
:104700003846FEF73BF90820694631C1039404940A
:10471000094C69462046FEF731F9012231463846F8
:10472000FEF7F1F9012208212046FEF7ECF907B067
:10473000F0BD000000100240000400507047F8B5C2
:10474000064604462036307D0D4601280DD0012056
:104750003075022070750427002A08D0042A16D06C
:10476000082A2AD00C2A4DD137E00220F8BD206853
:1047700005F017FF206881690822114381612068D4
:104780008169B943816120688169EA6812E0206823
:1047900005F01FFF206882690121C9020A43826176
:1047A00020688169012292029143816120688169B8
:1047B000EA6812021143816124E0206805F022FFBB
:1047C0002068C26908210A43C2612068C169B943EF
:1047D000C1612068C169EA6812E0206805F02DFF18
:1047E0002068C1690122D2021143C1612068C269F7
:1047F000012189028A43C2612068C169EA68120204
:104800001143C1610120707500203075F8BD0000B2
:1048100010B5022104462034617501680A6A064B0E
:104820001A4203D10A68520852000A6000F020F8C8
:1048300000206075207510BD1111000070B50400D6
:1048400005D025462035687D002802D006E00120ED
:1048500070BD00202875204600F01CF80220687505
:10486000211D206805F06AFE01206875002070BDDA
:1048700010B5006801218907884207D10448816B7F
:104880004908490081630F20FEF758FA10BD000067
:104890000010024010B500680121890788420CD140
:1048A0000648816B012211438163002211460F20CB
:1048B000FEF766FA0F20FEF74BFA10BD001002401B
:1048C000704710B504460068012205F05FFE2068BD
:1048D0000168012211430160002010BD10B504469B
:1048E0000068002205F052FE2068016A054A114264
:1048F00003D1016849084900016001202034607536
:10490000002010BD1111000010B5044900680968AD
:10491000884201D101F0C0FF10BD0000600B0020F3
:104920007047704770B5044660300546407A2128CC
:104930000FD12068816809060BD5816880229143D8
:104940008160206E002801D0FDF7B0FB204606F004
:10495000C2FCA87A22280FD12068816849060BD5AD
:104960008168402291438160606E002801D0FDF78C
:104970009DFB204606F0A0FC002070BD70B5040031
:1049800019D0242120466030064641722068016813
:1049900049084900016020680025056020684560DD
:1049A00020688560204600F0E1F8E5667572B57212
:1049B0003572002070BD012070BD7047F8B50268E7
:1049C0000446D06911680607360F07D1830605D55E
:1049D0008B0603D5204606F087FCF8BD956820239A
:1049E000002E65D0EE07F60FFF2721370F40374323
:1049F0005ED0C70706D0CF0504D501271762E26E47
:104A00003A43E266820708D5EA0706D02768022201
:104A10003A62E26E04273A43E266420708D5EA07A3
:104A200006D0256804222A62E26E02252A43E26645
:104A3000020709D50A461A40324305D023680822E6
:104A40001A62E36E1343E366E26E002AC5D0800665
:104A500004D5880602D5204606F046FCE06E000725
:104A600003D42068806840061CD5204606F024FC4C
:104A700020688168490611D5826840218A43826096
:104A8000606E00280AD01D498163606EFDF734FB1B
:104A90000028A2D0606E816B8847F8BD2046FFF7E2
:104AA0008CFFF8BD2046FFF788FF0020E066F8BDC8
:104AB0002646C7026036002F0ADA6D0208D50120AB
:104AC000000510627372B3722046FFF72AFFF8BD2B
:104AD000050605D50D0603D5204606F073FDF8BD85
:104AE0004006FCD54806FAD52046146840218C4380
:104AF0001460737200F0EAF9F8BD000011B200080A
:104B000070B5040005D025466035687A002802D0CB
:104B100006E0012070BD00202872204600F058F801
:104B20002420687220680168490849000160606AB1
:104B3000002802D0204606F0D5FA204606F014FCE4
:104B40000128E7D0206841680922D20291434160E0
:104B5000206881682A2291438160206801680122CF
:104B600011430160204606F023FB70BD10B50446DA
:104B7000144B016805221448120799420ED1416B6B
:104B800001239B0399434163032149021046FDF72A
:104B900039FE606EFDF7FCFA1B200FE00B4B9942CB
:104BA0000ED1816B01235B04994381630C21104674
:104BB000FDF728FE606EFDF7EBFA1C20FEF7BEF84D
:104BC00010BD0000003801400010024000440040C9
:104BD000F0B506463E4D036800243E4801210222FE
:104BE000042787B0AB4234D1436B8D032B4343631F
:104BF000C36A0B43C362C06A0325084005900320C3
:104C00004002009002AB0192A2C305206946000752
:104C1000FDF7B4FE314F3048BC60FC6021C7FC603A
:104C20003C617C618020BC61B8602C48083FFDF786
:104C3000D9FC002804D0FF213B3129A006F0D4FE86
:104C40007766002211461B20BE62FEF799F81B20F2
:104C500039E02A4DAB4238D1836B01256D042B43DB
:104C60008363C36A0B43C362C06A0291C007C00F6B
:104C700005900C20009003200390052001926946C6
:104C800004970007FDF77AFE1D4D1348AC602830ED
:104C9000EC6081C5EC602C616C618020AC61A86027
:104CA0001748083DFDF79EFC002804D0FF2167311E
:104CB0000BA006F099FE7566002211461C20AE621C
:104CC000FEF75EF81C20FEF743F807B0F0BD0000C9
:104CD0000038014000100240300002408C060020E5
:104CE0002E2E2F5372632F73746D33326C3078789D
:104CF0005F68616C5F6D73702E630000004400405C
:104D0000CC060020F8B5054604466035A87A202870
:104D100041D100290BD0002A09D00123A0681B0330
:104D2000984206D12069002803D1C80701D001208C
:104D3000F8BD287A01282ED00120287258206165FC
:104D400002530026E6662220A872616E1348C862EC
:104D5000616E13480863616E12484863606E1346C3
:104D60008663676D21683A462431606EFDF7BEFCAC
:104D70002E7220680168FF22013211430160206811
:104D800081680122114381602068816840221143BB
:104D900081600020F8BD0220F8BD00006FB200085D
:104DA000AFB2000825B2000870477047FFB506464D
:104DB00004466036707A83B00D46202858D1002D05
:104DC0000CD00598002809D00120A1680003814279
:104DD00007D12069002804D1E80702D0012007B0DC
:104DE000F0BD307A012843D0012030720020E06607
:104DF00021207072FDF78EFE0190274640370598FE
:104E000038820598788218E0788A401E7882069861
:104E10000090002280212046019B06F006FC00281D
:104E200018D10120A1680003814202D12069002825
:104E300012D02168287888626D1C788A0028E3D116
:104E400006980090002240212046019B06F0EDFBD1
:104E5000002808D00320C2E728882168C005C00DBB
:104E60008862AD1CE9E72020707200203072B6E73E
:104E70000220B4E730B5034660335C7A202C23D19E
:104E800000290BD0002A09D0012584682D03AC42EB
:104E900006D10469002C03D1CC0701D0012030BD1C
:104EA0001C7A012C10D0C164014640310A824A822A
:104EB0000021C16621225A7219720068016880229D
:104EC00011430160002030BD022030BD704700005A
:104ED00001460A7800201346303B092B02D8100106
:104EE0000D4A06E01346413B052B04D810010A4A3F
:104EF000703A8018C0B249780A46303A092A02D876
:104F00000243D0B270470A46413A052AFAD83739E7
:104F10000143C8B27047000000FDFFFF7CB50646A4
:104F20001A484168C9430907FBD4194C606B6515E1
:104F30002843606300211748FCF70CFE16480090D8
:104F40001648019069461348FCF75AFEA0140190D8
:104F5000694600960F48FCF753FE0E48FDF778F8B7
:104F60000021C9430B48FDF713F80A48FCF7ECFE93
:104F7000084980B20A68936802263343936009683F
:104F800003220A60616BA94361637CBD007000402D
:104F900000100240F4070020FFFF0700011000008E
:104FA00010B500F0F9FA07484068804703F096FC16
:104FB0000548FCF76FFE0548FFF7E0FC01F0C2FB77
:104FC00010BD0000B8C20008F4070020AC050020A6
:104FD00010B5EFF3108472B6FFF7E2FF05480168E1
:104FE00004221143016084F3108801210846FDF773
:104FF000CBFE10BD0070004010B5EFF3108472B608
:1050000000F0C0FB84F3108810BD000001460020B2
:105010000A0A00D00820084A114201D00422104395
:10502000064A114201D002221043054A114201D022
:105030000121084370470000F0F00000CCCC0000D4
:10504000AAAA000038B50B231B07C518114B0FD0B7
:105050001C152D1B18D02D1B19D0A542DD6A05D1BA
:1050600008242543DD62DB6A234007E08024F8E75B
:10507000DC6A01252C43DC62DB6A2B400093116063
:105080001146FDF77BFC38BDDD6A0224E9E7DD6AE5
:105090000424E6E70010024010B5FFF7B7FF8100D7
:1050A00002484058002800D0804710BD5408002016
:1050B00070B51C4615460E460846FFF7A7FF002CA4
:1050C0000DD0074980000C50304601F0DFFE044649
:1050D00000222946FDF754FE2046FDF739FE70BD3B
:1050E0005408002010B5D2B2FDF70DFD10BD000030
:1050F00070B505252D07002202212846FDF703FD86
:105100000120FFF70BFF0F494843040C21460EA076
:1051100006F06CFC1048844201D964240AE0E120C6
:105120000001844201D8012404E00521201AFAF785
:10513000F5FFC4B2012202212846FDF7E4FC204617
:1051400070BD000080880100426174207664643A7A
:1051500025640D0A00000000041000000F490A8AAF
:10516000CB69D218120EC2710A8ACB69D218120CFE
:1051700082718A8A8B8BD218120A42710A7D0B7F48
:10518000D21802718A69120EC2708A69120C82707A
:105190000A8B120A4270097E017070474000F81FA6
:1051A00070B5410EC0017D220023FAF7CBFF054602
:1051B00000F080F8044600E000BF00F07BF8001B20
:1051C000A842F9D370BD0000F8B5064600240D468C
:1051D00022462748FEF764FB0022314624486F68C8
:1051E000FEF73CFB002229462148FEF759FB686880
:1051F000B842F1D100201F4A1F4BF17803E0870726
:105200000AD0E418401C8142F9D8880706D070788B
:1052100000211A4A401E14E0A418F3E7174A7078D8
:1052200000210C32401E04E0535C154F7B431C19D7
:10523000491C8842F8D806E0535C114F7B431C1987
:10524000491C8842F8D86878A9783C2250430A184B
:105250002878E12109014843B178094B59434018A6
:105260001018084A696800198002511A4018F8BDE0
:10527000940800200085E2018033E1019EC200080D
:1052800080510100FF0300000320704701480068BF
:1052900070470000E008002000B587B0694605A807
:1052A000FFF792FF0249096807B0401A00BD0000ED
:1052B000E008002000B587B0694605A8FFF784FF25
:1052C00007B000BD10B5084C207800280AD100F0C6
:1052D0003BF8FF2101310548FEF71EFA00F064F8A3
:1052E0000120207010BD0000A000002094080020C4
:1052F00010B5012001F032FC0148FEF7DDF910BDC8
:105300009408002070B50446FFF7C6FF211A0D4D22
:105310000220285EC01C814203D9012001F01EFC3E
:1053200002E0012001F00EFC01F024FC002805D170
:10533000012001F013FC0220285E241A204600F010
:105340003FF870BDA000002010B51449144886B085
:10535000002412C01F21016084600461114944616E
:1053600041600838FEF7CAFA10206946C875012066
:10537000487588750875002205A90948FEF7F8FBED
:105380000094019404940022694605480394FEF7B2
:1053900055FC0348FEF76DF906B010BD002800402B
:1053A00094080020FF03000010B5044C2046211D86
:1053B0001830FFF709FF206010BD0000E008002052
:1053C000F0B587B0044614223F4901A8FAF7EAFE77
:1053D0003D485038406E009000F07EF83B480299FE
:1053E0003B4A401AA105890D081887B2A10A6846F0
:1053F0008078534202E08918401C80B29942FAD268
:105400006A461579E122120102E0891A6D1CADB2DB
:105410009142FAD26A46547902E0641CA4B23C3943
:105420003C29FAD2927951188EB20121890203E007
:105430007A1A761C97B2B6B28F42F9D203E03C3E9C
:10544000641CB6B2A4B23C2EF9D203E03C3C6D1C05
:10545000A4B2ADB23C2CF9D203E0183D401CADB271
:1054600080B2182DF9D26946C978890769464A7809
:1054700027D01849491E515C814202D2FAF738FE02
:1054800008461249CA1B10492C394A6005225206A7
:105490008A618E704C700A460D702032107068461A
:1054A000C079C8700020C861FF2248610132C8601D
:1054B0004A620861024608462438FEF789FA07B0B6
:1054C000F0BD04490C31D5E7E4080020FF030000DB
:1054D00080AEFEFF9EC2000810B506480168C8688D
:1054E00080221040FF388238C86051000148FEF722
:1054F00013F910BD9408002010B57D2106F09DFA27
:105500004906C009084310BDF0B51F4C87B060784C
:10551000002836D10220FDF725FC012831D160702A
:10552000694605A8FFF750FE0122184F05465603AD
:1055300031463846FDF7E7FA002231463846FDF796
:10554000E2FA13490023084672112438FEF740F9A5
:105550000F48182301462031097802785943511821
:105560003C225143427889183C22514382788088FA
:105570008918084A8902101A08186188281A081818
:10558000608007B0F0BD0000A000002000040050C3
:10559000B8080020FF03000030B587B0142168462A
:1055A000FAF719FE1748FEF7DBFB1748C26A02211B
:1055B0000A43C262C26A0A400592826A49030A43E8
:1055C0008262826A8A438262012044020F4D019006
:1055D00002906A4621462846FFF734FD0122214603
:1055E0002846FFF77FFD002002906A4610212846DA
:1055F000FFF728FD002210212846FFF773FD07B0B2
:1056000030BD0000FC0800200010024000040050E3
:1056100001B582B00020C0430090012301AA02A975
:105620000248FEF751FC684680880EBDFC08002049
:1056300030B587B014216846FAF7CDFD2C482B49C8
:1056400001602D4A2B4B0021126803E05208491CCF
:10565000072901D29A42F9D84A078B07D20FDB0FEC
:1056600052011B011A43C90700D008210A43C26135
:105670000022826002614261FF21C26005318262C4
:105680000124640202628461426241601B48816BB2
:10569000620111438163C26A02210A43C262C06A85
:1056A000084005901248FEF773FB002803D07521CF
:1056B00013A006F099F90120174D019002906A4657
:1056C00021462846FFF7BEFC012221462846FFF767
:1056D00009FD6A4610212846FFF7B4FC012210217B
:1056E0002846FFF7FFFC07B030BD0000003800403F
:1056F000FC08002040420F00DC00002000100240A7
:105700002E2E5C5372635C7378313237365C687767
:105710005F7370692E6300000004005070B50F4C79
:1057200000256078032802D965700420E070A07815
:10573000032803D9A5700220E07004E0E078042873
:1057400001D0022809D10548C01FC0681830FAF7F7
:1057500069FD0146E0788847E57070BDE7000020EC
:10576000FEE7000005480078002803D10448C07D0A
:10577000002801D000207047012070472F01002031
:105780000800002010B5FFF753FF07480068804766
:1057900003F0B6F80548FCF7DBFA0548FFF7B0F967
:1057A00001F010F810BD0000B8C20008F407002096
:1057B000AC05002000783D2801D000207047012072
:1057C0007047000010B503F0CDF9FBF7FFFD00288E
:1057D0002DD0FBF78FFEFBF797FE18480021417094
:1057E000C170052282700E22027101224271827103
:1057F00001721E21C1713C2181812821C181014694
:105800000F4C10312046FAF717FD0C492046143191
:10581000FAF712FD094920461831FAF70DFD07483D
:10582000042208491C3006F07BFC05F0F7FF034812
:1058300001F0C8F804A006F0D9F810BD3C0700201C
:10584000DD170000000800084C6F5261205246200E
:10585000436F6E666967210D0A0000000348807877
:10586000002801D00020704701207047000100206F
:1058700003488079002801D000207047012070473C
:105880000701002006484078012807D00548007825
:10589000052803D0072801D0002070470120704759
:1058A000C80B00200701002010B504460A48FAF78B
:1058B000B9FC08222146FAF799FC002808D00822F2
:1058C00021460648FAF792FC002803D0002010BDBC
:1058D000012010BD022010BD120100201DC40008CF
:1058E000074AD179927909021143814201D10120FD
:1058F00070470449884201D1022070470020704758
:10590000C80B0020FFFF000000B501F009FF0528CB
:1059100001D0002000BD012000BD000006484078F5
:10592000002804D1044823304079002801D0002009
:105930007047012070470000E400002070B5064663
:10594000FCF73AF80A2813D204460E210C4D4C43BA
:10595000611908220B48891DFAF724FC285D401CB8
:105960002855304601F0BAFC07A006F03FF870BD9C
:1059700009A006F03BF80D490020087070BD00003A
:10598000EF0E0020D20B00204A6F696E2052657125
:1059900075657374210D0A004E6F20506172656E3B
:1059A00074204E6F6465210D0A000000070100207D
:1059B00006488078002804D10448C01C807800285C
:1059C00001D0002070470120704700002700002010
:1059D000F3B5044640780025344E354F81B0042895
:1059E00007D0062811D16570A5702078012837D01E
:1059F0003DE06570A570FBF7BFF901283BD1307A17
:105A0000012841D102E005F0F1FFFEBD2078002819
:105A100013D00128F9D127A005F0E8FF78780228F3
:105A2000F3D1F8780028F0D100F0C2FF00F0E6F9D9
:105A300000F078FD0420F870FEBD23A005F0D6FF2D
:105A400001200299FBF79EFB032132230222084624
:105A500000F0B6F964220221032003F0DBF9FEBD59
:105A60001BA005F0C3FFFBF745FDFBF74DFDFBF762
:105A700083F9012805D0FBF70BFB00F08DFF17A081
:105A8000C1E7307A012804D0357200F085FF16A0F6
:105A9000B9E720780028E2D118A005F0A7FF7878B0
:105AA0000028DCD1022078701AA0ACE73C07002067
:105AB000780000204D61746368204B657920507236
:105AC000657373210D0A0000534F53210D0A000026
:105AD00044656661756C74210D0A00004F66666C42
