:020000040800F2
:10000000B81C0020D5000008615B0008914B000877
:1000100000000000000000000000000000000000E0
:10002000000000000000000000000000F16C00086B
:100030000000000000000000F55D000839820008A3
:10004000E7000008E7000008D5680008E70000089E
:10005000E7000008B5150008C5150008D51500080B
:1000600000000000E700000851130008E700000846
:10007000E7000008E700000800000000E7000008B3
:100080000000000051830008000000000000000094
:100090004183000800000000E7000008E7000008B6
:1000A000E7000008E7000008E7000008899500085D
:1000B000E1950008E70000080000000000000000D3
:1000C0000348854600F02AFB00480047359E00089B
:1000D000B81C00200448804704480047FEE7FEE7BC
:1000E000FEE7FEE7FEE7FEE7E5820008C100000844
:1000F00030B50B46014600202022012409E00D46C0
:10010000D5409D4205D31D469540491B2546954047
:1001100040191546521E002DF1DC30BDF0B51FB45C
:100120000646002082B005464024019100901BE065
:10013000019922460F46304600F058FA049A059B72
:10014000801A994110D310461946224600F03EFA13
:10015000361A8F410197224601200021009F00F0AE
:1001600035FA38184D4100902046641E0028DFDC27
:10017000019B00982946324607B0F0BD03460B4369
:100180009B0703D009E008C9121F08C0042AFAD24D
:1001900003E00B780370401C491C521EF9D27047D3
:1001A000D2B201E00270401C491EFBD2704700220F
:1001B000F6E710B513460A4604461946FFF7F0FF66
:1001C000204610BD30B504460020034600E05B1C0D
:1001D000934203D2E05CCD5C401BF8D030BD30B51B
:1001E00005460020034600E05B1C934205D2EC5C10
:1001F000C85C201A01D1002CF6D130BD0321001DAE
:10020000401E037812021A43491EF9D51046704762
:10021000034603220870000A491C521EFAD51846EC
:1002200070470000F0B507460846584087B0C00F39
:10023000049048000E46590040084908BC1A8841FD
:1002400005D2384631461E4617460B460246580030
:10025000400810434CD0300D039040055900400D2C
:10026000490D0590401A0290402872DA18030121C6
:10027000000B09050843019004980092002805D05E
:100280000199524200208841009201900298402139
:100290000A1A0199009800F099F905460C466B4638
:1002A00007CB00F0B4F9C0197141039A0E0D002379
:1002B000D71756401A467A40164344D0049A002A6B
:1002C0002DD0029A012A039A15DC1205C01A914119
:1002D00001263605001C7141D20F059ED2070093FE
:1002E000019202962A46234600F0B1F907B0F0BD0C
:1002F00038463146FAE71605224A0F46B218C01AA8
:10030000B74101210905001C4F4100187F411146EA
:1003100018187941E20F10436D19644113E0E207A8
:100320006D0815436408C2071443039A0126120599
:10033000C01A91413605001C7141CE074008304378
:100340004908C01851412A46234600F073F9CDE709
:10035000FFE7049801224000C117121A00238B41C5
:1003600004983146C417381AA141EEE730B401248D
:10037000E407634030BC55E730B40124E407614032
:1003800030BC4FE70000E0FFF0B51FB488B00B9918
:100390000998002448400999C00F4900490809916B
:1003A000C0070B990090490049080B9109990898DA
:1003B000A64608431CD00B990A98084318D0099800
:1003C00001244000420D4800410D09982405000316
:1003D000000B204309900B980003000B20430B9067
:1003E00050181C494018002201901446104605E0A0
:1003F000002001460DB0F0BD032801DA034600E0FD
:1004000003239C46C11A0AAE0AE05F0008ADED5B0B
:100410004F00F75B7D430027AA187C41491C5B1EF7
:100420006145F2DD410004AB5A522104120C0A432B
:10043000240C401C0828DFDB0198029000997046CC
:1004400001910090059B049A0799069800F0FFF827
:10045000D0E700000DFCFFFFF0B50C465C4085B016
:10046000E40FE40703944C00002664085900944606
:10047000490802460296224321D062460A431ED012
:100480006200570D4A000E032303550D0124024656
:100490002C492405781B1B0B360B4018234326439D
:1004A000614600901C46501AB44103D30098401C8A
:1004B000009002E0921800985B41002803DA0020C7
:1004C000014605B0F0BD002001210905074686461A
:1004D00011E064461D46141BB54106D36546521B08
:1004E000B341744607430C43A646CD07400849086C
:1004F000284392185B4105460D43EAD11046184344
:1005000013D06046194650407140084306D06046FB
:10051000101AB34106D20122002306E00022012373
:10052000DB0702E00122D243531000987446010514
:10053000381C6141029C039D0019694100F07AF862
:10054000BFE70000FD03000070B54B005B080343EC
:100550000BD04B005C0D002633466542B341D417E7
:10056000AD1AA34102DB0020014670BD1205301810
:10057000514170BD0EB505490291002100910A4616
:100580000B46019100F063F803B000BD3304000096
:100590004A0009030123090B1B051943094B10B538
:1005A000520D9A4201DA002010BD064B34339A42B4
:1005B00003DC9A1A00F01AF810BD0349511888405C
:1005C00010BD0000FF030000CDFBFFFF10B5202A87
:1005D00004DB0146203A9140002010BD91402023C9
:1005E0009C1A0346E3401943904010BD10B5202AE1
:1005F00004DB0846203AD040002110BD0B46D34012
:10060000D0402024A21A91400843194610BD10B5CD
:10061000202A06DBCB170846203A1041C1170B43AE
:1006200006E00B461341D0402024A21A9140084313
:10063000194610BD10B5002B08DA0024401C61419A
:1006400092185B411A4301D14008400010BDF0B53B
:100650001FB482B005460C0003D0084609F0F2F83A
:1006600002E009F0EFF820300246009021462846CB
:10067000FFF7ACFF049B059A04460F46184311434D
:10068000084314D0184610431BD0009840210A1A82
:1006900018460599FFF7AAFF05460E46009A0599E8
:1006A0000498FFF793FF084305D0012004E020469B
:1006B000394607B0F0BD0020C11705430E432C4357
:1006C000374300990E986305401A7905E40A002221
:1006D0000C43FD0A0A3002D500200146E9E7010576
:1006E000101969410C9C0D9D00196941FFF7A2FF8B
:1006F000DFE7000010B5002904DB0124E4074042D5
:100700008C412146002B04DB1C460123DB075242AF
:10071000A341994200D1904210BD0000064C012532
:10072000064E05E0E36807CC2B430C3C9847103499
:10073000B442F7D3FFF7C8FCF4A2000814A30008E2
:1007400030B58C180278401C13071B0F01D10378B9
:10075000401C120906D10278401C03E005780D7098
:10076000401C491C5B1EF9D101E00B70491C521E54
:10077000FBD1A142E6D3002030BD000010B50A46EF
:10078000054C022121706070E11C1046FFF740FD0E
:100790000120A070002010BDF400002038B50446F0
:1007A000064805490068FFF7A3FC604300E0401ECF
:1007B00000900028FBD138BD40420F00D800002037
:1007C000FFB581B016460F46019800F0E1FF0546DF
:1007D0000E200A4968434418082220460199FFF771
:1007E000CDFC2772380A6072A6720498207300202C
:1007F000E0726073284605B0F0BD0000A80B002031
:1008000055667788F7B50F460146427C083188B0B7
:100810000026354C05460091002A32D02846143077
:1008200000F0E6FF64285CD20E214843001987726D
:10083000C6720098039000F0ABFF07460E20784385
:100840000419082220460399FFF798FC781C2072AF
:10085000000A6072E87CA072287F10210843207390
:10086000E6726673384600F04BF8607A227A01022D
:10087000114328460A9A06F065F81CA008F0D2FF3A
:100880002FE00846039100F083FF0E2106904843B5
:100890000419082220460399FFF770FC0698401CB3
:1008A0002072000A6072A772287D2073E672667358
:1008B000069800F025F81148C0681830FFF79EFC34
:1008C0000646607A237A01021943227B20460023E0
:1008D000B047607A227A0102114328460A9A04F04E
:1008E000EFF906980BB0F0BDA80B002052656C61C3
:1008F000792052657370210D0A000000DC00002091
:1009000001460E2041430548054A081810B58918CC
:100910000E2208F001FF002010BD0000640008084E
:10092000A80B0020F8B506460D4640783178000245
:10093000084300F07DFF642806D20E214843174982
:100940004318187B022801D00220F8BD134A00206A
:10095000143A134992784A2444436418677A002F62
:1009600007D0277A974204D8401CC0B20A28F2D395
:1009700011E00A280FD24A22504340180822194693
:10098000FFF7FCFB00202072204665720A302A46E1
:100990003146FFF7F3FB0020F8BD0000A80B002054
:1009A00020110020FFB581B00298154605220938B4
:1009B0001F46382871D2A80703D539488078022805
:1009C0006BD0E80708D0364819212738076149015C
:1009D000642009F0CDFA82B2324E00244D206043EB
:1009E000801900790938382804D2641CE4B2052C37
:1009F000F4D352E0052C50D2A80703D42848C1787C
:100A0000491CC170B8B28446802D2DD0202D2BD02A
:100A1000402D29D001990879CF7803024D206043F9
:100A20003B43801903701B0A43708B784F781B027D
:100A30003B4383701B0AC370029B0371097A4171A7
:100A40000272110A417200218171C571624682727F
:100A5000120AC27201730D30029A0199FFF78EFBE0
:100A6000E80610D5012111E04D20604380190B9953
:100A70000170090A41700A998170090AC1700299CE
:100A800001710C99DBE7680604D502214D20604313
:100A900080198171204605B0F0BDFF20FBE7000002
:100AA000030100201717002010B504490861FF2139
:100AB000012009F05DFAC0B210BD0000DC0000208A
:100AC00010B507480021017041708170142105485C
:100AD000FFF76DFB00F092FC00F0BAFD002010BDA6
:100AE00003010020940B0020004870479E0B00205B
:100AF0000249C8798979000208437047940B0020A5
:100B00000148807870470000940B0020014800796C
:100B100070470000940B00200249487A097A0002CD
:100B200008437047940B00200420704710B500283C
:100B30001DD013490446C860001DFFF75FFB002865
:100B400019D020460830FFF759FB002813D0204663
:100B50002030FFF753FB00280DD02046FFF74EFB57
:100B6000002808D0064900202731887010BD05A054
:100B700008F058FEFEE707A008F054FEFEE700006C
:100B8000DC00002046756E63206973204E554C4C86
:100B9000210D0A004C6F73732043616C6C426163DA
:100BA0006B210D0A000000007047000010B500F036
:100BB000C9FC02490120887110BD0000030100201A
:100BC000FFB581B01D460E46074605F0A1FE00F0B8
:100BD0008FFB274C002810D000F010FC0F2F01D302
:100BE000A77001E00F20A070002E01D01E2E01D3AF
:100BF000E67005E01E20E07002E0607801281FD05A
:100C0000012060700026A671E6710398FFF74CFF83
:100C100020712672300A60721548082229460A306F
:100C2000FFF7ACFA08F08CFD0398124C00280AD0AC
:100C30001149FFF75DFA481CE11DFFF7E9FA0AE0E8
:100C400005F072FEF0E77D20E11D0001FFF7E0FAFC
:100C50000AA008F0E7FD002D06D0064928460B3112
:100C6000FFF7D6FA05B0F0BD0AA008F0DBFDFEE7FD
:100C7000940B002003010020881300004A6F696E66
:100C800044656C6179206973204E554C4C210D0AE6
:100C900000000000446576696365204D41432041B2
:100CA000646472206F7220534E206973204E554C3D
:100CB0004C210D0A000000000148407870470000F8
:100CC000940B002010B5044605F096F8204603F07A
:100CD0003DFF002010BD0000FFB50446007881B044
:100CE0000E46022820D0C1439B4F490721D09B4B81
:100CF000B61E012850D011284ED005287AD00628DB
:100D000016D0032877D0400612D51E46F179B67961
:100D1000934D0902314320796A78EE1C0F46012871
:100D20006AD0012A69D0C5E020460A9905F0A8F8E2
:100D300010E1651C284603F093FF002836D1207887
:100D4000C00603D5687A0A99FFF718FDB87800281D
:100D5000EED1814C687A273C6178884207D12046E1
:100D6000082229461F30FFF72DFA0028E0D07A48E4
:100D7000082229460838FFF701FA687A6070E068AF
:100D80001C30FFF73BFA04460C3E2846F1B22A46D7
:100D90000A300A9BA047DDE02079E1780002651C5B
:100DA000F6B2084303F078FF002802D0012005B016
:100DB000F0BD28791979884277D1E878A9780002BE
:100DC0000843039908F07AFC687829780002084300
:100DD00003F062FF002815D02078112803D1E879AC
:100DE0000A99FFF7CBFC284603F026FF002805D020
:100DF0000320DCE71EE035E052E078E056490020B1
:100E000021394870687829780002084303F044FFCC
:100E100000280ED0E878A97800020843039908F06A
:100E20003BFC0A98009031462846049B039A05F043
:100E30008FF88FE05878012811D1607D641C01285B
:100E400002D1B87801280BD005F004F8642806D246
:100E500020460A9900F03CF942A008F0E3FC79E052
:100E60000420A4E7F5B2152D04D0182D02D01D2DB5
:100E700009D06FE0601C03F0F3FE00286AD0294619
:100E80000A9B039A07E0601C03F0EAFE002861D089
:100E90000A9B039A1B21601C05F054FA5AE004E0F7
:100EA000617A1B79601D994201D002207FE72946B3
:100EB000002A01D006207AE74278037812021A430A
:100EC000BA4218D162780A70C2798A70427803787F
:100ED00012021A433270120A7270C27883781002BA
:100EE0001F4A18435071000A907101204870E91D93
:100EF0000A98FFF78DF97078317800020843B842FC
:100F000001D0052053E72078C00603D5A8780A99B8
:100F1000FFF734FC20793A2148434019E278611DFB
:100F20002F38FFF72BF9A0782179884212D10C4C89
:100F3000A07B617B000208430B34039908F0ACFBF3
:100F40000A98009029782046049B039A05F000F83F
:100F50000320687000202AE703010020940B002082
:100F60000D160020426561636F6E2052657370211B
:100F70000D0A0000FEB51A4E089DF479B6792402D8
:100F80003443944204D117A008F04CFC0120FEBD6C
:100F9000194C009400F00EF9871E0646641CF9B245
:100FA0002046FFF7BFFC002818D0607821780002A7
:100FB000084300F03DFC642810D2402E0AD80020DF
:100FC00000900190024602902B463146601EFFF7CA
:100FD000E9FC03E0F9B2204607F0C0F80020FEBDAE
:100FE000940B00204473744164647220697320651B
:100FF00072726F72210D0A000414002010B50446AD
:1010000007F08AFA204605F03DFA2046FFF75AFE1F
:1010100010BD00000149002008707047E200002068
:1010200002480178491C017070470000E20000206E
:101030007047000010B50349887008F081FB00205C
:1010400010BD0000940B002010B5002805D0044905
:10105000087108F075FB002010BD012010BD0000D4
:10106000940B002000B505F0E1FB024900208870D8
:1010700000BD0000E200002002488178491C817018
:1010800070470000E2000020024901204871002062
:10109000704700000301002001488068704700008D
:1010A000C800002010B5642001F089F8002106482E
:1010B00002F0B8FD054801780029FCD00021024863
:1010C00002F0D4FD10BD0000EC0A0020C800002092
:1010D000FEB50E4601461B4D06206C1C28701627D7
:1010E000082220460831FFF749F81748FFF786F82D
:1010F00008220146A018FFF741F801202074124889
:101100000B3881786174C078A07410480179E1745B
:10111000C1798279080210432075000A607539464A
:10112000681C00F008F92946C8750020009001905D
:1011300002901821334601222846FFF733FC002095
:10114000FEBD0000041400200E010020940B0020BE
:10115000F8B58C46014610460930C5B21C46581CED
:1011600001232370CB788E781B02334303701B0A54
:1011700043700F4BDE799F7936023E438670360A04
:10118000C6701B7903714B79802633434371C9794B
:10119000C1710021017261460930FEF7EFFF294657
:1011A000601C00F0C8F861194870AD1CE8B2F8BDC9
:1011B000940B0020F8B5844608460930069CC5B259
:1011C000F42901D90020F8BD112626706270120A98
:1011D000A270104A2046D679977936023E43E670CF
:1011E000360A267112796271F02282710022C27170
:1011F000094AD278027243720A4661460A30FEF703
:10120000BDFF2946601C00F096F861194870AD1CBE
:10121000E8B2F8BD940B00200301002070B51C4615
:101220000D46642901D9002070BD22700A4601468E
:10123000601CFEF7A3FF2946601C00F07CF86119D2
:101240004870AD1CE8B270BD70B503461248012469
:101250000470DC789D7824022C434470240A847046
:101260000E4C421CE579A6792D023543C5702D0A36
:10127000D570247914718324547100249471DB791E
:10128000D37114720A215472401C00F054F80249C0
:10129000C8720C2070BD000004140020940B0020C4
:1012A00010B502460020054B05E01478491E444065
:1012B000185DC9B2521C0029F7D110BDF1A1000878
:1012C00010B50A4801785A290DD1044620346178B6
:1012D000A52908D11F21401C00F020F82178814267
:1012E00001D1002010BD012010BD000038070020F2
:1012F00010B5094C20785A280BD1E07CA52808D1DC
:101300001121601C00F017F8A17C814201D100205E
:1013100010BD012010BD0000940B0020034610B545
:101320003320002204E09C5C2018521CC0B2D2B2D0
:101330008A42F8D310BD034610B50020024604E0EF
:101340009C5C2018521CC0B2D2B28A42F8D310BDA5
:1013500010B5024800F048FD10BD000088060020CE
:1013600010B5046863608368102B036803D099602C
:101370000068C26010BD9A600068C16010BD0000C6
:1013800008B50648C26A02210A43C262C06A084020
:1013900000908902024800F077FF08BD001002406B
:1013A0000004005000B50B4887B0C26A02210A430E
:1013B000C262C06A08400590880200900020019037
:1013C0000290032003906946034801F019F807B022
:1013D00000BD000000100240000400500020401C2E
:1013E000C0B21428FBD3704710B52021024800F08A
:1013F0001FF9002010BD00002000080810B52021B2
:10140000024800F015F9002010BD00000000080897
:10141000FFB581B01E4617460D46FFF74DFC01286B
:1014200003D11448007A012802D0012005B0F0BD94
:10143000114C281D207001206070A670E7702A46AC
:10144000201D019908F042FD2078801EC1B2A01C29
:10145000FFF764FF61190871FFF75EFB02460A9807
:10146000009020780023401CC1B22046FFF782FD87
:101470000020DBE73807002068050020F8B52F4B77
:101480001E78002E13D00021012E12D02C4C022EDB
:1014900019D0224695781279032E27D0042E25D014
:1014A0001A467032052E31D0062E3BD044E09862A9
:1014B000F8BD5C8B9A6A6500821A6419A242F7D95A
:1014C0009862197010E05D8B9A6A6E00821AAD19ED
:1014D000AA42EDD998621970FFF790FF08F0FEF864
:1014E000E178607805F01AF904F05EFB134B9E6A10
:1014F0005B8B861B5F00DB199E42D9D90F4B98622C
:101500001970E11C284605F027F9F8BD9C6A3C26B5
:10151000051B5C8B7443A542F7D9986219700220B1
:101520005070F8BD5D8B9C6A6E00041BAD19AC4217
:10153000F7D99862042050701970F8BD040000209B
:1015400038070020FEB5184A01231370174B0546D3
:101550005C7A1E7A240234435470240A9470DC7935
:101560009E7924023443D470501C240AC4701B7921
:1015700003712523437100240D4B8471DE78C671FD
:1015800004729B780A214372FFF7D5FE06490C26A8
:10159000C872009401942B460022314602480294FE
:1015A000FFF700FA3046FEBD04140020940B002023
:1015B0000301002010B5012000F016FF022000F00A
:1015C00013FF10BD10B5042000F00EFF082000F03E
:1015D0000BFF10BD10B5102000F006FF202000F01A
:1015E00003FF402000F000FF802000F0FDFEFF2000
:1015F000013000F0F9FE0120400200F0F5FE01206C
:10160000800200F0F1FE0120C00200F0EDFE01209A
:10161000000300F0E9FE0120400300F0E5FE012098
:10162000800300F0E1FE0120C00300F0DDFE10BDEC
:1016300070B50D46064600F015FE002403E0301993
:1016400000F0C8FD241DAC42F9D300F0D7FD70BDF9
:1016500010B5AF21C9000248FFF7EAFF002010BD16
:101660006400080810B5214A00219069C30520488C
:1016700004D54169022319434161911593699B0582
:1016800005D54369012423434361630219439369E8
:101690005B0505D54369082423434361E3011943EE
:1016A00093691B0505D54369042423434361630201
:1016B000194393699B0405D543691024234343616F
:1016C0006302194393699B0304D5446920231C4397
:1016D000446119439369DB0305D5436940242343DF
:1016E0004361A0020143916110BD0000002002404F
:1016F0003C01002070B5054600F04EFF0646184C30
:101700000AE0681C08D0002D04D000F045FF801BC3
:10171000A84201D9032070BDA069C007F1D1A0691A
:10172000800701D50220A061A069C00511D4A0697D
:1017300080050ED4A06940050BD4A069000508D42B
:10174000A069800405D4A069800302D4A069C00305
:1017500003D5FFF787FF012070BD002070BD00009A
:101760000020024010B5094A0021CB00D458844221
:1017700007D89B189B68834203D9C800801800795A
:1017800010BD491CC9B21529EFD3FEE710A100080E
:10179000F8B50026354600F02BF8642819D300244C
:1017A0000E202146414310480822081807460F49D9
:1017B000FEF708FD00280BD0F87AA84201D90546AB
:1017C0002646641CE4B2642CEAD3FF2D02D008E064
:1017D0002046F8BD0E200449704340180E21FEF744
:1017E000E6FC3046F8BD0000A80B0020E9A1000887
:1017F00070B5064608220C49FEF7E4FC00280ED01E
:101800000A4D00240E206043401908223146FEF79D
:10181000D9FC002805D0641CE4B2642CF2D3FF206C
:1018200070BD204670BD0000E9A10008A80B002093
:1018300010B501000ED0084A00200E2343439C1827
:10184000637A247A1B0223438B4204D0401CC0B22B
:101850006428F2D3FF2010BDA80B00208021017066
:101860000121417081703821C17005490A780271E7
:101870004A7842718A788271C978C17170470000D4
:1018800000080008F8B506460D464036317D0129AE
:101890000DD00121317501688A68520709D5816D23
:1018A000202211438165002030750120F8BD0220FF
:1018B000F8BD174B6A68D80547109A42154C8A6ADA
:1018C0002B6812D05B035B0B1A438A6229684903B9
:1018D00005D5A1680143A1600A20FEF75FFF2868D3
:1018E000800312D5A06838430EE05B035B0B9A437C
:1018F0008A622968490302D5A1688143A1602868EA
:10190000800302D5A068B843A06000203075F8BD00
:10191000011000000027014070B5040006D0A06D42
:10192000264600254036002802D006E0012070BD82
:10193000E5653575204600F0D1F8A06DC00603D4EA
:1019400021688868400705D5A06D10210843A0656F
:101950003575EBE7A06DFF22013290430222104360
:10196000A06588688207920F5A48012A02D10A6846
:10197000D2072BD1032362689B079A4205D05B42B2
:101980009A4202D05B009A4209D10A6992009208F9
:101990000A6121680A6963681A430A610CE00A69EE
:1019A000920092080A6181680F229204914381603B
:1019B00081686268114381602168CA6818239A436C
:1019C000CA602168CA68A3681A43CA608168012294
:1019D0005206914381608168228F520611438160D3
:1019E00020688168C90004D481680122120711436C
:1019F00081602068C168384A1140C1602169E0688F
:101A0000022923D000210843216A226B4903520096
:101A100011430843616B0843A16989030843E169E5
:101A2000C90308432168CA681043C860A06A014618
:101A3000FF39C23905D0E16A08432168CA681043FA
:101A4000C860606A0121012802D00BE00421DAE7B6
:101A5000206A002823D0A06D20221043A065E06DED
:101A60000843E065206C012820681FD00169C90780
:101A700003D0016949084900016120684169C9082A
:101A8000C900416120684169E26B11434161E5652C
:101A9000A06D80088000401CA065002070BD2068FB
:101AA000C26801231B041A43C260DBE70269FF23FB
:101AB0009B009A43026120680269636CE66C1A43DA
:101AC000A36C33431A430261206802690A4302612E
:101AD000D3E70000002701401902FEFFF0B50068BF
:101AE000114985B088421CD11048416B4215114301
:101AF00041630124032500266A46052770C23F077B
:101B00006946384600F07CFC02206A46039551C2C3
:101B10006946384600F074FC01220221384600F084
:101B200034FD05B0F0BD000000240140001002406B
:101B3000F8B504460068016849084900016000F0F2
:101B40002BFD00272546064620350EE000F024FD3B
:101B5000811B7D20C000814207D9E06B2021084312
:101B6000E0632F7103206871F8BD20680068C0072A
:101B7000ECD12F71012068710020F8BD70B50024F0
:101B8000024620325179022903D00421C163012485
:101B90003CE001680B680E25AB430B6001680B68E5
:101BA0005B085B000B601A4B0168994201D101216F
:101BB00021E0174B1433994201D110211BE0144B43
:101BC0002833994201D1891515E0114B3C339942D4
:101BD00001D189140FE00E4B5033994202D10121FB
:101BE000090408E00A4B6433994202D10121090536
:101BF00001E001210906064B083B596001215171A2
:101C000000211171816B002900D08847204670BDEA
:101C100008000240F0B5002821D0014620318C4652
:101C2000497902291BD001680A68520852000A60EB
:101C300002680021116002685160026891600268C8
:101C4000D160684C674D674E664F664A0168143430
:101C500028353C365037914203D101231DE0012045
:101C6000F0BDA14201D1102317E0A94202D1FF2308
:101C7000013312E0B14202D101231B030DE0B9424E
:101C800002D101231B0408E0564B6433994202D170
:101C900001231B0501E001231B06524908394B6053
:101CA0000168914201D102231BE0A14201D120230E
:101CB00017E0A94202D101235B0212E0B14202D136
:101CC00001235B030DE0B94202D101235B0408E06C
:101CD000444B6433994202D101235B0501E00123A7
:101CE0005B06404908394B600168914201D10823E5
:101CF0001BE0A14201D1802317E0A94202D10123B8
:101D0000DB0212E0B14202D10123DB030DE0B94254
:101D100002D10123DB0408E0324B6433994202D143
:101D20000123DB0501E00123DB062E4908394B6066
:101D30000168914201D104231BE0A14201D140235B
:101D400017E0A94202D101239B0212E0B14202D165
:101D500001239B030DE0B94202D101239B0408E05B
:101D6000204B6433994202D101239B0501E00123FA
:101D70009B061C4908394B601A4903687831934225
:101D800003D18A6A1209120124E0A34202D18A6AAD
:101D9000F0231EE0AB4203D18A6A0F231B0218E036
:101DA000B34203D18A6A0F231B0312E0BB4203D163
:101DB0008A6A0F231B040CE00A4A6432934203D15F
:101DC0008A6A0F231B0504E08B4204D18A6A0F2321
:101DD0001B069A438A620021C1636046417101710A
:101DE0000846F0BD08000240F8B504469D48016869
:101DF0009C4A9C4E9B4F0832206813041C36303797
:101E0000904201D108221EE0B04201D180221AE0A6
:101E1000B84202D10122D20215E0924A44329042E5
:101E200002D10122D2030EE08E4A5832904201D1F3
:101E30001A4608E08B4A6C32904202D10122D20548
:101E400001E00122D20625461140203500293BD071
:101E50000168090738D5016808229143016081496A
:101E600020680831884201D108201EE0B04201D12B
:101E700080201AE0B84202D10120C00215E0794961
:101E80004431884202D10120C0030EE07549583127
:101E9000884201D1184608E072496C31884202D16B
:101EA0000120C00501E00120C0066E494860E06BDA
:101EB00001210843E0630420687100202871616BF0
:101EC000002901D02046884766480168654A206895
:101ED00008321315904201D104221EE0B04201D114
:101EE00040221AE0B84201D11A4616E05D4A443257
:101EF000904202D1012292030FE05A4A5832904296
:101F000002D10122920408E0564A6C32904202D17A
:101F10000122920501E001229206114238D00168A7
:101F2000490735D50168890603D4026804218A432C
:101F300002604C4920680831884201D104201EE02B
:101F4000B04201D140201AE0B84201D1184616E053
:101F500044494431884202D1012080030FE04149C5
:101F60005831884202D10120800408E03D496C319B
:101F7000884202D10120800501E001208006394914
:101F8000486005206871216B002901D020468847F0
:101F900034480168334A206808325315904201D111
:101FA00002221EE0B04201D120221AE0B84201D143
:101FB0001A4616E02B4A4432904202D101225203C3
:101FC0000FE0284A5832904202D10122520408E020
:101FD000244A6C32904202D10122520501E00122D2
:101FE000520611423CD00168890739D5016889063B
:101FF00003D401680222914301601A492068083124
:10200000884201D102201EE0B04201D120201AE016
:10201000B84201D1184616E012494431884202D133
:10202000012040030FE00F495831884202D10120BE
:10203000400408E00B496C31884202D10120400580
:1020400001E00120400607494860E06BE0630120A1
:10205000687100202871E16A002901D02046884774
:10206000F8BD00000000024070B5002805D003460E
:1020700020335979002902D003E0012070BD0021EE
:10208000197102215971046822683749C5680A40EC
:102090008168466929430569354329438569294390
:1020A000C5692943056A2943114321602F492F4CF3
:1020B00002687831A24206D18A6A120912018A6244
:1020C0008A6A406849E0294C1434A24207D18A6ADE
:1020D000F024A2438A628A6A406800013DE0234CF2
:1020E0002834A24208D18A6A0F242402A2438A62B9
:1020F0008A6A4068000230E01C4C3C34A24208D19D
:102100008A6A0F242403A2438A628A6A4068000311
:1021100023E0164C5034A24208D18A6A0F242404CA
:10212000A2438A628A6A8088000416E00F4C6434F5
:10213000A24208D18A6A0F242405A2438A628A6ACD
:102140008088000509E08A4209D18A6A0F242406A2
:10215000A2438A628A6A0079000602438A620120E9
:102160005871002070BD00000FC0FFFF0800024042
:10217000F8B5044620300579012D1ED001250571E2
:102180000226467120680768AF4307602046FFF7C4
:10219000E7F8206801683143016020680168042283
:1021A0001143016020680168082211430160206822
:1021B0000168294301600020F8BD0220F8BD31B557
:1021C00000F0EAF9044600F0E7F90099001B8842A4
:1021D000F9D338BD70B5074D04462846FFF78AFA93
:1021E000002805D10449486120602846FFF782FA9B
:1021F00070BD000050C300003C010020034841684E
:10220000012211434160002070470000002002407D
:10221000F8B5124D0746287C14460E46012807D013
:10222000012028740E48FFF765FA002802D00CE060
:102230000220F8BD00216961022F09D0012F09D0C9
:10224000002F09D00648FFF755FA00212974F8BD80
:102250003460FAE73480F8E73470F6E73C01002098
:1022600050C3000005484168C90705D00449C16052
:102270000449C160002070470120704700200240DF
:10228000EFCDAB8905040302F0B500235DE0012426
:102290009C4022460A4057D006685F000325BD4097
:1022A0002E43AC460660DD08AD002D182E6AAE4602
:1022B0005D07EF0E0F25BD40AE4375462E62866862
:1022C0006546AE4386604568A5434560C46865467B
:1022D000AC43C4609D081F4CAD002D19AF689C072E
:1022E000260F0F24B440A4463C4005273F07B842C0
:1022F00001D1002714E0184FB84201D101270FE0A7
:10230000164FB84201D102270AE0154FB84201D159
:10231000032705E0134FB84201D1052700E0062747
:10232000B740A74210D1AE686446A643AE600E4CDB
:10233000256895432560656895436560A568954364
:10234000A560E5689543E5605B1C0A46DA409ED1CE
:10235000F0BD0000000001400004005000080050E3
:10236000000C0050001C00500004014010B5044651
:1023700002F064F90121490301208C4203D1134981
:1023800006E0887010BD012109038C4204D1104978
:102390008A78002AF5D010BD0121C9028C4208D1EB
:1023A0000C490A78002A00D108700BA007F03AFA0D
:1023B00010BD042CFCD104210A4800F0DDF8C00750
:1023C000F6D002F097FF02F06FFE10BD250000204E
:1023D000280000201C000020447620494E54210D86
:1023E0000A0000000004005010B504494A69024286
:1023F00002D04861FFF7BAFF10BD000000040140A1
:10240000F8B500230124A2E027469F403A4070D04F
:102410004D68022D01D0122D14D1DD08AD002D180C
:1024200000952D6A5E07AC46F50E0F26AE46AE400F
:102430006546B543AC460E697546AE4065462E43CB
:10244000009D2E624D68012D05D0022D03D0112D67
:1024500001D0122D16D185680326AC465D00AE462C
:10246000AE406546B543AC46CE687546AE4065465F
:102470002E43866046680D79BE43ED06ED0F9D4004
:102480003543456006685F000325BD40AE46AE4358
:102490000D79B446AE07B60FBE4065462E430660C2
:1024A000C6687546AE438D68BD403543C5604D680E
:1024B000ED004BD5294D6E6B26436E639E08284D6B
:1024C000B6007519AC46AD689E07360F0F27B740AA
:1024D000BD4305273F07B84201D1002715E0214F32
:1024E000B84201D1012710E01F4FB84202D10227A4
:1024F0000BE02BE01D4FB84201D1032705E01C4F34
:10250000B84201D1052700E00627B7402F436546B2
:10251000AF60184D2E684F689643FF0300D51643F1
:102520002E606E684F689643BF0300D516436E60F9
:10253000AE684F689643FF0200D51643AE60EE6862
:102540004F689643BF0200D51643EE605B1C0A68D5
:102550001546DD4000D057E7F8BD000000100240EE
:10256000000001400004005000080050000C005022
:10257000001C0050000401400069084000D0012008
:10258000704742694A4042617047002A01D0816128
:102590007047816270470000014800687047000082
:1025A0000000002002480168491C016070470000DB
:1025B0000000002010B50648016840221143016068
:1025C000002000F007F800F019F8002010BD00000E
:1025D0000020024010B5044607487D21C90000686C
:1025E000FDF786FD01F0ACF900222146501E00F0F7
:1025F00035F8002010BD0000D800002010B50C48B0
:10260000416B012211434163816B020411438163D9
:1026100000221146501F00F021F800221146901EA2
:1026200000F01CF800221146501E00F017F810BDF3
:1026300000100240C106C90E01208840014908600F
:102640007047000080E100E0C106C90E012088400B
:10265000014908607047000000E100E010B503F098
:1026600081FA10BDF8B54749034601240020E40370
:10267000434D444A4031082B70D00EDC012B3DD035
:10268000022B55D0042B19D1CB680326B602334058
:1026900059D0CF14BB4243D058E0102B6BD0202B25
:1026A0000CD10B690969032501272D043F0429403A
:1026B0007E00B94203D199052CE02046F8BDB14215
:1026C00003D19907FAD53048F8BDA942FCD1116869
:1026D0008903F9D511680320000501400120000598
:1026E000091A09D0091A05D0814201D12748F8BD3D
:1026F0002748F8BD2748F8BD2748F8BDCB689B0799
:102700009B0F0AD0022B0BD0012B0ED0032BF4D140
:10271000096989050029D0DBF8BD00F0BBF9F8BDD7
:1027200011684907FBD52846F8BD00F0C3F9F8BD8C
:10273000CB680C26334006D0082BF1D0042BF4D004
:102740000C2BE5D0F8BD00F095F9F8BD01229202FE
:102750009342EAD0B342DBD0F8BDFFE7C968032358
:102760001B031940EFD0012464036310A142D7D0AA
:102770009942DAD0F0E7916B4902E4D4ECE700002B
:102780000024F400001002408890000020A10700FF
:1027900000093D0040420F0080841E00F8B5044649
:1027A0000078544D800672D5524E0027403EB06BE3
:1027B000C00004D4B06BA9050843B06301274E489C
:1027C0000168C90511D40168821511430160FFF742
:1027D000E3FE009005E0FFF7DFFE0099401A642851
:1027E00037D845480068C005F5D53268032109058A
:1027F00060680A400140914208D08103890F032993
:1028000004D13168890301D50120F8BD2A6903216B
:1028100009040A4022D0084090421FD02078800648
:102820001CD528692A6988430121C9040A432A6101
:102830002A698A432A612861C0050FD5FFF7ACFEDB
:10284000009008E0FFF7A8FE0099411A2B4881424A
:1028500001D90320F8BD28698005F3D56168880394
:10286000800F032805D132680005824301400A43E6
:10287000326028690322616812041140084328610C
:10288000002F04D0B16B012000078143B163207891
:10289000C00705D0E868A168800880000843E860A8
:1028A0002078800705D5E8680C218843E168084353
:1028B000E8602078400706D5E8680321890288434C
:1028C00021690843E8602078000706D5E8680321FD
:1028D0000903884361690843E8602078000606D54B
:1028E000E868032189048843A1690843E86000205F
:1028F000F8BD000040100240007000408813000046
:10290000F8B5054653480E460068C007C00FB042F0
:102910000AD2504801684908490031430160006803
:10292000C007C00FB0426FD128784B4C800705D547
:10293000E068F0218843A9680843E0602878C00770
:1029400052D06868022817D0032818D021680128BF
:1029500018D08905002957DAE16889088900014300
:10296000E160FFF719FE69680746022912D00329C2
:102970001CD0012926D033E021688903EAE72168C9
:102980008901E7E74907E5E7FFF706FEC11B334882
:10299000814223D8E0680007800F0228F4D123E0A9
:1029A000FFF7FAFDC11B2D48814217D8E0680007E8
:1029B000800F0328F4D117E0FFF7EEFDC11B274875
:1029C00081420BD8E0680007800F0128F4D10BE0AA
:1029D000FFF7E2FDC11B2148814201D90320F8BD68
:1029E000E0680007800FF3D11A480168C907C90FD2
:1029F000B1420BD9016849084900314301600068C0
:102A0000C007C00FB04201D00120F8BD28784007B0
:102A100006D5E068072109028843E9680843E060B9
:102A20002878000707D5E0680721C902884329698B
:102A3000C9000843E06000F03DF8E168084A090673
:102A4000090F515CC840074908600020FFF7C2FD2C
:102A50000020F8BD00200240001002408813000052
:102A6000C0A10008D800002001480068704700009D
:102A7000D8000020044805490068C968044A49058F
:102A8000490F515CC8407047D80000200010024038
:102A9000D9A10008044805490068C968044A8904A6
:102AA000490F515CC8407047D80000200010024018
:102AB000D9A1000810B5184AD1680C200840042894
:102AC0000BD0082810D00C2810D050680004410FFB
:102AD0000120C003491C884010BD1068C00601D504
:102AE0000E4810BD0E4810BD0E4810BD88020E4B9A
:102AF000000F185C0902D368890F491CDB0301D55C
:102B0000084A05E01268D20601D5044A00E0044AEA
:102B10005043FDF7EDFA10BD0010024000093D00E2
:102B20000024F40000127A00D0A10008F8B5044691
:102B30000078F24DC0074AD0E8680007800F0228ED
:102B400007D0E8680007800F032809D1E868C003B0
:102B500006D5286880033AD56068002873D036E02F
:102B6000012062680004824203D129680143296080
:102B700011E0052301211B0489049A422A6802D12D
:102B80000A432A60F1E782432A602A6802400092E1
:102B9000286888432860606800280CD0FFF7FCFC98
:102BA000064604E0FFF7F8FC801B64287ED82868FE
:102BB0008003F7D50BE0FFF7EFFC064604E0FFF7D4
:102BC000EBFC801B6428F1D828688003F7D42078B8
:102BD000800741D5E8681F270007800F3F020128C2
:102BE00007D0E8680007800F032809D1E868C00310
:102BF00006D42868400717D5E068012823D113E0E0
:102C0000E068002817D02968092291430143296010
:102C1000FFF7C2FC064604E0FFF7BEFC801B02285B
:102C2000C4D828684007F7D568682169B843090205
:102C30000843686010E02868400840002860FFF7FB
:102C4000ABFC064605E090E0FFF7A6FC801B0228DF
:102C5000ACD828684007F7D42078C00676D5E86855
:102C6000A74E0007800F0BD0A06900285DD0286810
:102C7000FF21013108432860FFF78EFC074644E03E
:102C80002868800502D5A06900286ED0206A69688E
:102C90003140884212D903F009FD0028AED168689E
:102CA000216AB04308436860686800E0BBE0000246
:102CB000217F000A0906084368600FE06968B14394
:102CC000014369606868217F0002000A0906084321
:102CD0006860206A03F0EAFC00288FD1206A410B6B
:102CE0000120C003491C8840E96809060A0F85498C
:102CF000895CC840844908600020FFF76BFC25E030
:102D0000FFF74AFCC01B02288AD828688005F7D53F
:102D10006868216AB043084368606868217F0002E0
:102D2000000A09060843686010E02968FF200130A6
:102D300081432960FFF730FC064604E0FFF72CFCD6
:102D4000801B02286FD828688005F7D420786F4E42
:102D5000000723D560690028306910D0012108439D
:102D60003061FFF719FC074605E0C5E0FFF714FCEA
:102D7000C01B022857D830698007F7D50EE04008FD
:102D800040003061FFF708FC074604E0FFF704FC51
:102D9000C01B022847D830698007F7D42078400745
:102DA00062D5A86B0027C00005D4A86B01210907D4
:102DB0000843A863012756480168C90511D4016872
:102DC000821511430160FFF7E7FB009005E0FFF774
:102DD000E3FB0099401A642825D84D480068C005D7
:102DE000F5D5FF20A2680130824203D13169014349
:102DF000316111E001218902002A07D005231B025D
:102E00009A4203D132690A433261EFE73269824361
:102E10003261306988433061A06800280FD0FFF725
:102E2000BBFB009007E060E0FFF7B6FB0099411A9A
:102E30003848814259D830698005F5D50DE0FFF753
:102E4000ABFB009006E0FFF7A7FB0099411A314861
:102E500081424AD830698005F5D4002F04D0A96B8F
:102E6000012000078143A963606A002842D0E96815
:102E70000907890F03293FD0012636060228286852
:102E800005D0B0432860FFF787FB04462FE0B0432E
:102E90002860FFF781FB074604E0FFF77DFBC01BBE
:102EA000022822D828688001F7D4E16AA06AEA687B
:102EB0000843216BFD231B049A4311430843E86038
:102EC000286830432860FFF767FB044604E0FFF7FB
:102ED00063FB001B022808D828688001F7D509E0A9
:102EE000FFF75AFB001B022801D90320F8BD286810
:102EF0008001F5D40020F8BD0120F8BD001002408B
:102F000000E00000C0A10008D800002040100240EE
:102F10000070004088130000704730B50146203132
:102F20000A78012A15D001220A7002234B70046826
:102F3000CA23636204685323636203689C68202584
:102F40002C439C600068FF2343624A700020087095
:102F500030BD022030BD10B505F0CCFB10BD000027
:102F600070B50446006881688025C90400290BDA21
:102F7000C068C00508D52046FFF7EDFF2168C86886
:102F80002840FF388238C8602068816889040BD5E2
:102F9000C068800508D52046FFF7BEFF2068C168DD
:102FA000054A29408918C16001200449400448614C
:102FB00001202034607070BD7FFDFFFF00040140E0
:102FC000F8B5054604462035287801281DD0012093
:102FD0002870022068702268CA205062226853203C
:102FE0005062FF2001300026FF2781421CD121685A
:102FF0008A6882438A6020688168012212039143B3
:103000008160FFF7C9FA009009E00220F8BDFFF7E0
:10301000C3FA0099411A7D20C00081421BD8206864
:10302000C068C007F3D020E0206881680122520206
:103030009143816020688168120191438160FFF7AC
:10304000ABFA00900DE0FFF7A7FA0099411A7D2036
:10305000C000814205D920684762032068702E7045
:10306000F8BD2068C0688007EDD520684762012060
:1030700068702E700020F8BD10B500680B464068DF
:10308000C021C94301400002000ECC04D870E40EF8
:103090005C708C06A40E0904490F9C701970002AFC
:1030A0000AD103F0D7FBD870587803F0D3FB5870DF
:1030B000987803F0CFFB9870002010BD30B50B4618
:1030C0000168896A5960016809694904490C996075
:1030D000006804680F482146014088024D04800EB4
:1030E00018706D0E49065D70490E99706102490EA7
:1030F00040242140D970002A0AD103F0ABFB18709C
:10310000587803F0A7FB5870987803F0A3FB9870E9
:10311000002030BD7F7F7F0070B5040005D02546BC
:1031200020356878002802D006E0012070BD00201C
:103130002870204600F042F8022068702168CA20FA
:103140004862216853204862204603F0A7FBFF2114
:103150000028206803D0416204206870E5E7826897
:10316000154B1A408260226890686368A66918430C
:1031700023693343184390602268E0681061206837
:10318000026923891B041A4302612068C2688023F4
:103190009A43C2602068C26C92089200C264E269DD
:1031A000606902432068C36C1A43C26420684162AC
:1031B00001206870002070BDBFFF8FFF10B5006850
:1031C000084988420DD1084801690122920411433F
:1031D0000161002211460220FFF740FA0220FFF7AA
:1031E00033FA10BD0028004040100240FEB50646EC
:1031F0000446203630780B46012842D0012030703A
:103200000220707020681D46002720358068002A43
:1032100039D0400655D5187803F01CFB287803F008
:1032200019FB19789878090408435978DA78090263
:10323000120411430843297809060843D969084351
:103240005969084305469969586808430090216800
:10325000CA204862216853204862FF205A6A013020
:10326000802182424AD12268936883439360226816
:10327000D0680840FF388238D060FFF78DF90190A0
:1032800029E00220FEBD400600D4DF70187803F06C
:10329000E9FA0204587803F0E5FA0002024398784C
:1032A00003F0E0FA0243D87800040243287803F0E0
:1032B000D9FA00060243D869024358690243154609
:1032C000C1E7DF70AAE7FFF767F90199411A7D208E
:1032D000C00081422AD82068C068C007F3D02068A7
:1032E000C56121680098486420688168FF22013226
:1032F0001143816020688168120130E02068826893
:1033000001235B029A4382602068C2680A401D491B
:103310005118C160FFF740F901900EE0FFF73CF94A
:103320000199411A7D20C000814206D92168FF2001
:103330004862032070703770FEBD2068C068800747
:10334000ECD520680562216800988864206881684F
:1033500001225202114381602068816812011143E9
:10336000816009480268012149040A4302608268B9
:103370000A4382602168FF20486201207070377024
:103380000020FEBD7FFDFFFF00040140F8B50546AB
:103390000446203528780B46012815D001202870D6
:1033A000022068705878002A10D003F053FA9878F9
:1033B00003F050FAD8789E780004064358781978BC
:1033C00000024903084316E00220F8BDC10603D5F8
:1033D000EF2108400A305870D87803F043FA060409
:1033E000587803F03FFA00020643987803F03AFA5F
:1033F00006431878400306432168CA2048622168C2
:1034000053204862204603F049FA0027002811D1D2
:1034100010480640206846602068C16880229143B9
:10342000C1602068806880060CD4204600F08CF8CB
:10343000002807D02168FF204862042068702F70A0
:103440000120F8BD2168FF204862012068702F70BC
:103450000020F8BD3FFFFF00F8B5064604462036C1
:1034600030780D4601280ED0012030700220707097
:10347000206800278068002A07D040061AD52878DF
:1034800003F0E8F917E00220F8BD400600D4EF7021
:10349000287803F0E7F90204687803F0E3F9000202
:1034A0000243A87803F0DEF90243E87800040243FF
:1034B00000920BE0EF702978A87809040843697836
:1034C000EA78090212041143084300902168CA20D7
:1034D0004862216853204862204603F0DFF9002843
:1034E0001FD1184900980840216808602068816849
:1034F00001229204914381602969E86808432168A8
:103500008A68104388602068C16880229143C16046
:103510002068806880060CD4204600F015F800284A
:1035200007D02168FF2048620420707037700120A6
:10353000F8BD2168FF2048620120707037700020BC
:10354000F8BD00007F7F7F0070B504460068C16849
:10355000A0229143C160FFF71FF87D260546F600C3
:1035600006E0FFF719F8401BB04201D9032070BDF7
:103570002068C0688006F4D5002070BD70B50400D6
:1035800006D025464035687C0026002802D005E09C
:10359000012070BD2E74204600F032F802206874BD
:1035A00020680168402291430160A1686068226937
:1035B0000843E16811430843616901220843A16996
:1035C000520211400843E1690843216A0843A16A95
:1035D000084321680860A0690421000C0840616A62
:1035E0000843216848602168E06A08612068C16971
:1035F00092009143C161666501206874002070BD2E
:10360000F0B5164A0168164885B0914205D1416B64
:1036100082141143416305B0F0BD124A9142FAD1C0
:10362000816B1214114381631011009005200E4F1D
:10363000022500240326049003960195029469460E
:103640003846FEF7DDFEB00300900294694603960B
:10365000019504943846FEF7D3FEDCE700300140C4
:10366000001002400038004000040050F8B5044645
:1036700000276846078026464036707C012802D025
:10368000707C22287ED100290CD0002A0AD0002B81
:1036900008D0307C012875D001203074707C01285E
:1036A00002D003E00120F8BD322070746765A26388
:1036B000A387E3872163A386E386A764E7640125E4
:1036C000A06A6D03A84207D120680168A943016080
:1036D000206801682943016020680168490603D415
:1036E00001684022114301600121FF20E268C90204
:1036F00005308A42616866D1002904D081420CD12C
:10370000E08E012809D1206B21680088C860206BF9
:10371000801C2063E08E401EE086E08E002843D1AE
:10372000A06AA84246D12068016801221203114311
:1037300001603FE02068C068A16B0880A06B801C1E
:10374000A063B0E0002202212046069B03F0BAF9F4
:1037500000287DD1206B21680088C860206B801C08
:103760002063E08E401EE086E08E002808D1A06A2B
:10377000A84205D1206801680122120311430160AB
:10378000002200E0CCE001212046069B03F09AF9DC
:1037900000287FD12068C068A16B0880A06B801CC6
:1037A000A063E08F401EE087E08E0028CAD16068E9
:1037B00000287BD1002201212046069B03F082F9DC
:1037C000002867D1B6E7002904D081420BD1E08EF2
:1037D000012808D1206B411C216321680078C86052
:1037E000E08E401EE086E08E002845D1A06AA84207
:1037F00005D12068016801221203114301600022F3
:1038000001212046069B03F05DF9002842D1206883
:10381000C068A16B087046E0002202212046069B8A
:1038200003F050F9002835D1206B411C2163216839
:103830000078C860E08E401EE086E08E00280AD145
:10384000A06AA84207D1206802680121090300E0AC
:1038500020E00A430260002201212046069B03F07B
:1038600031F9002816D12068C268A06B411CA16301
:103870000270E08F401EE087E08E0028CCD16068A7
:10388000002813D1002201212046069B03F01AF9DB
:10389000002802D00320F8BD08E02068C168A06BB2
:1038A000421CA2630170E08F401EE087A06AA8421C
:1038B0000FD1002201212046069B03F003F90028C6
:1038C00002D0606D02210EE02068C0686946088061
:1038D0000888012280212046069B03F0F3F8002887
:1038E00004D0606D202108436065D3E70120707427
:1038F000A06AA84211D120688168C943C9060CD4C6
:10390000616D0222114361650168A943016020686D
:103910000168294301603774C4E637740020BAE7B0
:103920000220B8E7042204490428086902D0904321
:10393000086170471043FBE700E000E070470000BB
:10394000094910B5401E884201D9012010BD074C1D
:1039500060610321081F02F005F90020A061072023
:103960002061002010BD0000FFFFFF0000E000E02C
:1039700010B5FFF7E3FF10BD70B502462032137D8E
:10398000012B1BD00123137502245475046865684C
:103990007026B5436560046865680E6835436560E8
:1039A0000468A5688026B543A560006884684968F6
:1039B0000C43846053750020107570BD022070BDEB
:1039C00002462032137D012B07D0012313750068B6
:1039D0000165537500201075704702207047000084
:1039E0000168CA6852085200CA600068016A044A45
:1039F000114203D101684908490001600020704765
:103A00001111000070B500680E49884214D10E4CA7
:103A1000012560780D4E00280FD001280CD1002020
:103A20006070FFF721F83168C000496B6268891A3D
:103A3000FCF75EFBA060257070BD65703068406B60
:103A4000606070BD00080140C8000020EC0A002042
:103A5000F8B5064604462036307D0D4601283DD097
:103A60000120307502207075002A39D0042A46D012
:103A7000082A57D02B68297B20689E468C466B68A5
:103A8000016A0122120391430162C169026A03279C
:103A90003F02B9431B020B430F2109038B436146CD
:103AA0000907090C194305235B039A4373460A2748
:103AB0003B401B031343C16103622068C1690322B9
:103AC00092029143C1612068C169AA681202114340
:103AD000C1610120707500203075F8BD0220F8BD6D
:103AE000EB6806CD083D206804F0D4FC20688269AC
:103AF0000C218A43826120688169AA680FE0EB6823
:103B000006CD083D206804F0EDFC206882690321A1
:103B100089028A43826120688169AA68120211437E
:103B20008161D6E788CD287921688446086AFF221A
:103B3000013290430862C8690A6A800880003843ED
:103B4000F027B84367463F073F0E07430520400272
:103B500082430A20034018021043CF6108622068A4
:103B6000C1690C229143C1612068C1692A68AEE72E
:103B700010B5022104462034617501680A6A064BBB
:103B80001A4203D10A68520852000A6000F020F875
:103B900000206075207510BD1111000070B5040083
:103BA00005D025462035687D002802D006E001209A
:103BB00070BD00202875204600F01CF802206875B2
:103BC000211D206804F0CCFB01206875002070BD29
:103BD00010B500680549884207D10548416B0422A9
:103BE000914341631420FEF725FD10BD00080140FC
:103BF0000010024010B50068084988420CD10848FE
:103C0000416B042211434163002211461420FEF748
:103C100025FD1420FEF718FD10BD0000000801402E
:103C20000010024010B502680446002906D004299D
:103C300007D0082914D00C2907D114E0D06802233A
:103C400001E0D06804231843D0600122206804F00A
:103C5000AFFB20680168012211430160002010BD04
:103C6000D0680823EFE7D0681023ECE710B50268AE
:103C70000446002906D0042907D0082918D00C29A9
:103C800007D118E0D068022301E0D06804239843EC
:103C9000D0600022206804F08BFB2068016A074A8C
:103CA000114203D10168490849000160002010BD9C
:103CB000D0680823EBE7D0681023E8E71111000073
:103CC00070B50446006801690025C94389070029C9
:103CD00015DBC168C943890711D4E91E01610120C0
:103CE0002075206880698007204602D0FFF78AFE91
:103CF00004E000F0B7F8204600F076F9257520685A
:103D00000169C943490717D4C168C943490713D496
:103D10000421C94301610220207520688069800563
:103D2000800F204602D0FFF76DFE04E000F09AF805
:103D3000204600F059F9257520680169C943090733
:103D400016D4C168C943090712D40821C9430161C7
:103D5000042020752068C0698007204602D0FFF744
:103D600051FE04E000F07EF8204600F03DF9257594
:103D700020680169C943C90617D4C168C943C90687
:103D800013D41021C9430161082020752068C0693F
:103D90008005800F204602D0FFF734FE04E000F0DB
:103DA00061F8204600F020F9257520680169C943B3
:103DB000C90708D1C168C943C90704D1891E016177
:103DC000204600F035F920680169C943490609D445
:103DD000C168C943490605D44021C9430161204651
:103DE00000F032F970BD0000F0B5006801218907CC
:103DF00087B088422FD11948C16A01221143C1629C
:103E0000C16A11400591C16A02242143C162C06A9E
:103E1000D603204000960590052000250707049052
:103E200002950395019469463846FEF7E9FA0820A1
:103E3000694631C103940494094C69462046FEF753
:103E4000DFFA012231463846FEF79FFB01220821A6
:103E50002046FEF79AFB07B0F0BD000000100240BC
:103E6000000400507047F8B5064604462036307D01
:103E70000D4601280DD001203075022070750427F1
:103E8000002A08D0042A16D0082A2AD00C2A4DD19C
:103E900037E00220F8BD206804F095FA20688169B7
:103EA00008221143816120688169B94381612068DA
:103EB0008169EA6812E0206804F09DFA206882694E
:103EC0000121C9020A4382612068816901229202AC
:103ED0009143816120688169EA681202114381611E
:103EE00024E0206804F0A0FA2068C26908210A438F
:103EF000C2612068C169B943C1612068C169EA68CB
:103F000012E0206804F0ABFA2068C1690122D202F5
:103F10001143C1612068C269012189028A43C261DB
:103F20002068C169EA6812021143C16101207075FD
:103F300000203075F8BD000010B502210446203481
:103F4000617501680A6A064B1A4203D10A68520871
:103F500052000A6000F020F800206075207510BD46
:103F60001111000070B5040005D025462035687D8C
:103F7000002802D006E0012070BD002028752046F0
:103F800000F01CF802206875211D206804F0E8F993
:103F900001206875002070BD10B5006801218907F7
:103FA000884207D10448816B4908490081630F208A
:103FB000FEF740FB10BD00000010024010B5006885
:103FC0000121890788420CD10648816B01221143E7
:103FD0008163002211460F20FEF740FB0F20FEF701
:103FE00033FB10BD00100240704710B50446006856
:103FF000012204F0DDF9206801680122114301600B
:10400000002010BD10B504460068002204F0D0F96D
:104010002068016A054A114203D101684908490034
:104020000160012020346075002010BD11110000D6
:1040300010B5044900680968884201D101F0C4F94B
:1040400010BD00005C0B00207047704770B504463F
:1040500060300546407A21280FD120688168090622
:104060000BD58168802291438160206E002801D0A9
:10407000FDF75EFD204605F0ACF8A87A22280FD1A6
:104080002068816849060BD5816840229143816090
:10409000606E002801D0FDF74BFD204605F08AF840
:1040A000002070BD70470000F8B502680446D06972
:1040B00011680607360F07D1830605D58B0603D591
:1040C000204605F08FF8F8BD95682023002E65D0B6
:1040D000EE07F60FFF2721370F4037435ED0C707A3
:1040E00006D0CF0504D501271762E26E3A43E26697
:1040F000820708D5EA0706D0276802223A62E26EF4
:1041000004273A43E266420708D5EA0706D0256845
:1041100004222A62E26E02252A43E266020709D5DA
:104120000A461A40324305D0236808221A62E36E19
:104130001343E366E26E002AC5D0800604D58806E4
:1041400002D5204605F04EF8E06E000703D4206843
:10415000806840061CD5204605F02CF82068816850
:10416000490611D5826840218A438260606E00282A
:104170000AD01D498163606EFDF700FD0028A2D0C2
:10418000606E816B8847F8BD2046FFF78BFFF8BD56
:104190002046FFF787FF0020E066F8BD2646C702ED
:1041A0006036002F0ADA6D0208D501200005106282
:1041B0007372B3722046FFF748FFF8BD050605D5B8
:1041C0000D0603D5204605F07BF9F8BD4006FCD569
:1041D0004806FAD52046146840218C431460737257
:1041E00000F0BEF9F8BD00000D91000870B50400A4
:1041F00005D025466035687A002802D006E0012007
:1042000070BD00202872204600F058F82420687203
:1042100020680168490849000160606A002802D0EE
:10422000204604F0DDFE204605F01CF80128E7D00A
:10423000206841680922D202914341602068816868
:104240002A229143816020680168012211430160A4
:10425000204604F02BFF70BD10B50446144B0168D6
:1042600005221448120799420ED1416B01239B038A
:1042700099434163032149021046FEF705F8606E39
:10428000FDF7C8FC1B200FE00B4B99420ED1816B50
:1042900001235B04994381630C211046FDF7F4FF71
:1042A000606EFDF7B7FC1C20FEF7C4F910BD0000DE
:1042B000003801400010024000440040F0B50646BE
:1042C0003E4D036800243E4801210222042787B0A6
:1042D000AB4234D1436B8D032B434363C36A0B431F
:1042E000C362C06A03250840059003204002009085
:1042F00002AB0192A2C3052069460007FEF780F8D1
:10430000314F3048BC60FC6021C7FC603C617C617F
:104310008020BC61B8602C48083FFDF7A5FE00284E
:1043200004D0FF213B3129A005F07AFA77660022FC
:1043300011461B20BE62FEF791F91B2039E02A4D81
:10434000AB4238D1836B01256D042B438363C36A71
:104350000B43C362C06A0291C007C00F05900C20D6
:1043600000900320039005200192694604970007FE
:10437000FEF746F81D4D1348AC602830EC6081C54F
:10438000EC602C616C618020AC61A8601748083D2E
:10439000FDF76AFE002804D0FF2167310BA005F06D
:1043A0003FFA7566002211461C20AE62FEF756F9F0
:1043B0001C20FEF749F907B0F0BD000000380140AD
:1043C0000010024030000240880600202E2E2F539D
:1043D00072632F73746D33326C3078785F68616C00
:1043E0005F6D73702E63000000440040C80600201B
:1043F000F8B5054604466035A87A202841D1002941
:104400000BD0002A09D00123A0681B03984206D1D3
:104410002069002803D1C80701D00120F8BD287AFF
:1044200001282ED0012028725820616502530026F1
:10443000E6662220A872616E1348C862616E134856
:104440000863616E12484863606E13468663676D49
:1044500021683A462431606EFDF78AFE2E7220688C
:104460000168FF2201321143016020688168012246
:1044700011438160206881684022114381600020DF
:10448000F8BD0220F8BD00006B910008AB91000858
:104490002191000870477047FFB506460446603614
:1044A000707A83B00D46202858D1002D0CD0059885
:1044B000002809D00120A1680003814207D12069AA
:1044C000002804D1E80702D0012007B0F0BD307AFF
:1044D000012843D0012030720020E0662120707254
:1044E000FEF75AF80190274640370598388205981C
:1044F000788218E0788A401E788206980090002220
:1045000080212046019B05F00EF8002818D10120DB
:10451000A1680003814202D12069002812D02168DD
:10452000287888626D1C788A0028E3D1069800906C
:10453000002240212046019B04F0F5FF002808D00E
:104540000320C2E728882168C005C00D8862AD1C21
:10455000E9E72020707200203072B6E70220B4E74D
:104560007047000001460A7800201346303B092BB3
:1045700002D810010D4A06E01346413B052B04D832
:1045800010010A4A703A8018C0B249780A46303A97
:10459000092A02D80243D0B270470A46413A052A96
:1045A000FAD837390143C8B27047000000FDFFFF59
:1045B000014600200A0A00D00820084A114201D012
:1045C00004221043064A114201D002221043054A38
:1045D000114201D00121084370470000F0F00000B3
:1045E000CCCC0000AAAA000038B50B231B07C518C5
:1045F000114B0FD01C152D1B18D02D1B19D0A54207
:10460000DD6A05D108242543DD62DB6A234007E02B
:104610008024F8E7DC6A01252C43DC62DB6A2B404E
:10462000009311601146FDF7EBFE38BDDD6A0224F0
:10463000E9E7DD6A0424E6E70010024010B5FFF761
:10464000B7FF810002484058002800D0804710BDC5
:104650005008002070B51C4615460E460846FFF768
:10466000A7FF002C0DD0074980000C50304601F008
:1046700041F9044600222946FDF7F0FF2046FDF7E8
:10468000E3FF70BD5008002010B5D2B2FDF77DFFEA
:1046900010BD00000F490A8ACB69D218120EC271F0
:1046A0000A8ACB69D218120C82718A8A8B8BD21833
:1046B000120A42710A7D0B7FD21802718A69120EAA
:1046C000C2708A69120C82700A8B120A4270097ECB
:1046D000017070474000F81F70B5410EC0017D2287
:1046E0000023FBF71BFD054600F080F8044600E0C0
:1046F00000BF00F07BF8001BA842F9D370BD00009A
:10470000F8B5064600240D4622462748FEF7D6FC9B
:104710000022314624486F68FEF7AEFC002229468D
:104720002148FEF7CBFC6868B842F1D100201F4A4F
:104730001F4BF17803E087070AD0E418401C814240
:10474000F9D8880706D0707800211A4A401E14E074
:10475000A418F3E7174A707800210C32401E04E0D9
:10476000535C154F7B431C19491C8842F8D806E05E
:10477000535C114F7B431C19491C8842F8D8687858
:10478000A9783C2250430A182878E12109014843BE
:10479000B178094B594340181018084A6968001944
:1047A0008002511A4018F8BD900800200085E201EF
:1047B0008033E10162A0000880510100FF03000086
:1047C000032070470148006870470000DC080020A3
:1047D00000B587B0694605A8FFF792FF024909684E
:1047E00007B0401A00BD0000DC08002000B587B00B
:1047F000694605A8FFF784FF07B000BD10B5084C57
:10480000207800280AD100F03BF8FF21013105484B
:10481000FEF7D6FB00F064F80120207010BD000008
:104820009C0000209008002010B5012000F0E8FE58
:104830000148FEF795FB10BD9008002070B50446B6
:10484000FFF7C6FF211A0D4D0220285EC01C8142D1
:1048500003D9012000F0D4FE02E0012000F0C4FEE4
:1048600000F0DAFE002805D1012000F0C9FE022088
:10487000285E241A204600F03FF870BD9C000020FE
:1048800010B51449144886B0002412C01F210160DD
:10489000846004611149446141600838FEF73CFCC2
:1048A00010206946C8750120487588750875002272
:1048B00005A90948FEF76AFD0094019404940022BA
:1048C000694605480394FEF7C7FD0348FEF725FB3C
:1048D00006B010BD0028004090080020FF03000033
:1048E00010B5044C2046211D1830FFF709FF206049
:1048F00010BD0000DC080020F0B587B0044614228B
:104900003F4901A8FBF73AFC3D485038406E009003
:1049100000F07EF83B4802993B4A401AA105890DF8
:10492000081887B2A10A68468078534202E08918C5
:10493000401C80B29942FAD26A461579E1221201EE
:1049400002E0891A6D1CADB29142FAD26A465479DE
:1049500002E0641CA4B23C393C29FAD29279511885
:104960008EB20121890203E07A1A761C97B2B6B2A0
:104970008F42F9D203E03C3E641CB6B2A4B23C2E96
:10498000F9D203E03C3C6D1CA4B2ADB23C2CF9D290
:1049900003E0183D401CADB280B2182DF9D2694633
:1049A000C978890769464A7827D01849491E515C59
:1049B000814202D2FBF79CFB08461249CA1B1049F0
:1049C0002C394A60052252068A618E704C700A4664
:1049D0000D70203210706846C079C8700020C86120
:1049E000FF2248610132C8604A62086102460846F7
:1049F0002438FEF7FBFB07B0F0BD04490C31D5E7C6
:104A0000E0080020FF03000080AEFEFF62A0000867
:104A100010B506480168C86880221040FF38823807
:104A2000C86051000148FEF7CBFA10BD9008002085
:104A300010B57D2104F01DFF4906C009084310BDD3
:104A400001B582B00020C0430090012301AA02A951
:104A50000248FEF70BFE684680880EBDF80800206D
:104A600030B587B014216846FBF7A1FB2C482B49D1
:104A700001602D4A2B4B0021126803E05208491CAB
:104A8000072901D29A42F9D84A078B07D20FDB0FC8
:104A900052011B011A43C90700D008210A43C26111
:104AA0000022826002614261FF21C26005318262A0
:104AB0000124640202628461426241601B48816B8E
:104AC000620111438163C26A02210A43C262C06A61
:104AD000084005901248FEF751FD002803D07521CB
:104AE00013A004F09DFE0120174D019002906A462C
:104AF00021462846FFF778FD012221462846FFF788
:104B0000C3FD6A4610212846FFF76EFD01221021E1
:104B10002846FFF7B9FD07B030BD0000003800405F
:104B2000F808002040420F00D8000020001002408A
:104B30002E2E5C5372635C7378313237365C687743
:104B40005F7370692E6300000004005070B50F4C55
:104B500000256078032802D965700420E070A078F1
:104B6000032803D9A5700220E07004E0E07804284F
:104B700001D0022809D10548801FC0682030FBF70A
:104B80003DFB0146E0788847E57070BDE2000020FB
:104B9000FEE700783D2801D00020704701207047D3
:104BA00010B501F09BFEFCF78BFB00282DD0FCF725
:104BB0001BFCFCF723FC184800214170C170052242
:104BC00082700E22027101224271827101721E21D5
:104BD000C1713C2181812821C18101460F4C1031D6
:104BE0002046FBF715FB0C4920461431FBF710FB60
:104BF000094920461831FBF70BFB074804220849F6
:104C00001C3005F06BF904F069FD034800F02BFC43
:104C100004A004F007FE10BD38070020DD170000D7
:104C2000000800084C6F526120524620436F6E66A8
:104C30006967210D0A000000417901290AD0812904
:104C400008D0042906D0C1790448427B914203D19F
:104C500001207047002070474173FBE7A80B00203C
:104C600010B504460A48FBF7C9FA08222146FBF7AB
:104C7000A9FA002808D0082221460648FBF7A2FA24
:104C8000002803D0002010BD012010BD022010BD5F
:104C90000E010020E1A10008074AD17992790902AA
:104CA0001143814201D1012070470449884201D15A
:104CB0000220704700207047940B0020FFFF000087
:104CC000F7B5064684B018201B4D009003206C1CDD
:104CD00028700822B1182046FBF750FA1748FBF756
:104CE0008DFA08220146A018FBF748FA81202074AB
:104CF00000276774B07CA07411480179E1740599AC
:104D00002175090A6175C179827908021043A0757D
:104D1000000AE075681C0099FCF70DFB29464876EF
:104D200001971A210097029700222846069BFBF75D
:104D300039FE002007B0F0BD041400200E01002051
:104D4000940B002010B542780021042A10D0062AC6
:104D50000DD141708170007800282AD0012806D139
:104D600016A004F05FFDFCF73FFBFCF747FB10BD0E
:104D7000417081700078002810D00128F7D112A06E
:104D800004F050FD032232231146104600F06EF964
:104D90000A220221032001F053FF10BD0FA004F0EE
:104DA00041FD032132230222084600F05FF964220C
:104DB000EFE70CA004F036FD10BD0000446566610D
:104DC000756C74210D0A00004D61746368204B6599
:104DD00079205072657373210D0A0000534F5321DF
:104DE0000D0A000046756E63204B6579204C6F6E8E
:104DF00067205072657373210D0A000010B51348C7
:104E000086B0C26A02210A43C262C06A0024084016
:104E100005900320000300900D48019003200390AB
:104E2000029469460B48FDF7EBFA002201210720A6
:104E3000FDF714FC0720FDF707FC0748064904703E
:104E40000120C91C087006B010BD0000001002400F
:104E500000001110000400502500002010B5084A81
:104E6000002803D0012804D0002010BD01214903EF
:104E700001E0012109031046FDF77EFB10BD000093
:104E800000040050F8B50446407800271C4D0E463B
:104E900000280CD0022815D0032821D005280ED1D7
:104EA0002078FFF7DBFF002809D1062024E02078D6
:104EB000FFF7D4FF002803D0022060702E65F8BDF4
:104EC000A770F8BD286D301A3228FAD929652078E4
:104ED000FFF7C4FF002801D003200DE06770EFE763
:104EE0002078FFF7BBFF002808D0286D0549301A4D
:104EF0008842E6D905202E656070F8BD0420FBE7E6
:104F00000400002088130000F7B5054608780C4619
:104F1000002809D0052700263F07012806D00228CF
:104F200015D0032827D072E00120FEBD012D04D04A
:104F3000022D04D0032D04D00FE0002210E0002247
:104F400012E0002214E03846FDF71FFB05E0012DBA
:104F500005D0022D07D0032D09D0267057E001227D
:104F600001210903EFE701220121C902EBE7012238
:104F7000FF210131E7E7201DFBF740F900281BD195
:104F8000211D0298FBF744F96078401E6070012DE6
:104F900004D0022D06D0032D08D00DE000220121FF
:104FA000090306E000220121C90202E00022FF21DC
:104FB00001313846FDF7E9FA201DFBF71FF9029988
:104FC000A278091AE0780002104381421FD9211DFE
:104FD0000298FBF71DF9012D04D0022D05D0032DF9
:104FE00006D00AE00121090304E00121C90201E021
:104FF000FF2101313846FDF7C4FA6078401E0006F3
:10500000000E607003D12670211DFBF701F900200E
:10501000FEBD000010B5144886B0C26A01210A43E3
:10502000C262C06A05240840059019200002009061
:105030000020029003200191240703906946204636
:10504000FDF7DEF9012211032046FDF79EFA012249
:10505000D1022046FDF799FA012211022046FDF700
:1050600094FA06B010BD000000100240520610B5C0
:10507000120E012808D002280ED003280BD10948AF
:10508000032901700BD002E006481038F8E7011D33
:105090000020FBF7BDF810BD02480838F0E7427069
:1050A0004380F4E78C000020F8B50620FDF7C2FA33
:1050B0000020714D01462954401CC0B20828FAD383
:1050C0006D4F0020FF1E7870B8703C4638700C346D
:1050D0006A4E207004213046FDF74EFAC00728D0F2
:1050E00002213046FDF748FAC0077DD03878002805
:1050F000F0D000203870797830466A5C52006A54EB
:105100000121FDF739FAC00703D07978685C401CAB
:105110006854B878401CC0B2B8700728DAD90020AB
:10512000B8707878401CC0B278702178002903D01C
:1051300037E0502020702CE0032832D928789628B8
:1051400022D103214C48FCF7ABF8E97888421BD107
:105150006878AA214840A978C006C906C00EC90EC1
:10516000884211D10A2000F08BF8A0700B2000F0CB
:1051700087F8E070AA202070A8786978400940017B
:10518000C0004018A08066E028785A2805D0692819
:1051900005D06078401C60705DE0442000E0332062
:1051A00020707978042902D92078442827D007294B
:1051B00090D9207833288DD1E97821702879E8704A
:1051C00068792871A8796871E879A871E97107216F
:1051D0002948FCF765F8064603212748FCF760F8E4
:1051E000B04203D1761C00E042E0F6B2E879B0426A
:1051F0002CD1CC2020702048401C60602BE06878C7
:10520000A9784018AA214840E978C006C908000ECC
:10521000C9008842CFD104211748FCF741F8297909
:105220008842C8D10A2000F02BF8A0700B2000F0B3
:1052300027F8E070BB202070E8784007400F20710D
:10524000A878697800020818E08004E06078401CC3
:1052500060705A202070002000F0E8F8032000F071
:10526000E5F8012000F0E2F80620FDF7EDF9F8BDC1
:10527000012038702EE700001701002000040050C4
:1052800070B5052604463607012210213046FDF789
:105290007CF9FCF7A3F820464021084300F072F89F
:1052A00008256006040E012220213046FDF76DF925
:1052B000FCF794F8002220213046FDF766F94021E2
:1052C0003046FDF759F9C00701D0641CE4B26D1EE9
:1052D0002D062D0EE5D1002220213046FDF755F98F
:1052E000FCF77CF8002210213046FDF74EF92046ED
:1052F00070BD000030B5214887B0C16A012211435A
:10530000C162C16A11400591C36A02210B43C362A5
:10531000C06A0525084000240192039105902D07DD
:1053200002946A4610212846FFF75EF96A4620215A
:105330002846FFF759F96A4680212846FFF754F9B5
:1053400001946A46402128460294FFF74DF90C4C1F
:105350006A4602212046FFF747F96A4601212046A6
:10536000FFF742F9002210212846FDF70EF900222E
:1053700020212846FDF709F907B030BD0010024092
:105380000004005070B50824052605463607280697
:1053900001D5012200E0002280213046FDF7F5F81A
:1053A000012220213046FDF7F0F8FCF717F8002223
:1053B00020213046FDF7E9F86806641E050E240634
:1053C000240EE4D170BD000070B5144C2078A17893
:1053D000884207D104211248FEF714FE1148FEF757
:1053E000FFFA70BD104D285CC00904D004210C48A0
:1053F000FEF7FBFD03E004210948FEF703FE2078D9
:10540000295C490029546178491CC9B26170082996
:10541000E7D100216170401C207070BD2801002080
:10542000240B00205C0B00209818002070B5052587
:1054300004462D07012210212846FDF7A6F8FBF7A8
:10544000CDFF2046C0210843FFF79CFF01228021A9
:105450002846FDF79AF8FBF7C1FF002210212846E5
:10546000FDF793F870BD10B5044602798078E11C11
:1054700001F072F9E178607801F050F910BD000098
:1054800070B5FFF7EDFA2D4C206880472D482C4968
:1054900001602D4981602D4941602D49C1602D4930
:1054A0000161A1688847FFF77BFB2B48FCF7D6F921
:1054B000E06980470246284B78210F20FBF780FBEC
:1054C0002648FBF733FB26A004F0ACF9224804F091
:1054D0000FFDFBF71BFB014623A004F0A3F9FBF72C
:1054E000EBFB014624A004F09DF9164D26A03035B3
:1054F000297A04F097F929A004F094F9FBF7F4FA5B
:1055000004F0F6FCFBF7F4FA014627A004F08AF950
:1055100069782AA004F086F9FBF706FB01462CA067
:1055200004F080F92DA004F07DF9E16B002088479C
:105530000021226B0846904770BD00007CA0000847
:10554000415D000808070020A15C0008595D0008C3
:10555000295D0008FD5C00086C0000203EA00008EA
:105560005549443A000000005049443A307825300B
:105570003278210D0A0000004A6F696E3A307825B2
:105580003032780D0A0000005265676973746572E5
:105590003A3078253032780D0A000000486F737475
:1055A000416464723A0000004E776B416464723A61
:1055B0003078253034780D0A0000000052465F43F1
:1055C00068616E6E656C3A3078253032780D0A006D
:1055D0005665723A253032782E0D0A00434F4F5FE0
:1055E000545950450D0A0000EFF3108172B6034A7A
:1055F0001368034381F3108813607047C4000020D0
:10560000EFF3108172B6034A1368834381F3108865
:1056100013607047C4000020014800687047000014
:10562000C4000020F3B583B0019000260279AE4C8F
:10563000001D3546082A32D0AC4B012A36D0032A49
:105640003FD0102A45D0132A51D01946103102916B
:105650001A2A5ED0091D0091162A69D00F1D1E2A34
:1056600075D01C2A74D0182A73D0202A72D0A04971
:10567000292A70D00F46703F062A6DD0502A6CD070
:10568000522A6BD0542A6AD0562A69D0582A68D038
:105690005A2A67D05F2A75D0612A74D020E1092088
:1056A00020709348657052388078FAE041788078AD
:1056B00009020818988102202070657001260546AD
:1056C00001E10420207065709889000AA070187BA1
:1056D0001CE01120207085486570AA300179C278DD
:1056E00009021143090AA1700179C2780CE0142063
:1056F00020707E486570AA30817942790902114391
:10570000090AA1708179427908021043E0700425EA
:10571000D9E04278017912068A188178C0780904A4
:105720000002081810180299FAF772FD1B20AFE06A
:105730004278017912068A188178C078090400023B
:10574000081810180099FAF763FD1720A0E00AE086
:105750001AE02DE040E057E05BE075E07DE081E09D
:1057600089E08DE099E04278017912068918827803
:10577000C07812040002101808183946FAF748FDDC
:105780001F2085E090E094E01D2020706570029855
:10579000FAF734FD000EA0700298FAF72FFD000C06
:1057A000E0700298FAF72AFD000A2071029826E0BC
:1057B0001920207065700098FAF720FD000EA07087
:1057C0000098FAF71BFD000CE0700098FAF716FD40
:1057D000000A2071009812E0212020706570384680
:1057E000FAF70CFD000EA0703846FAF707FD000C22
:1057F000E0703846FAF702FD000A20713846FAF7E1
:10580000FDFC607106255EE02A20207065704879F5
:1058100047E00722227065702A464078022500285A
:1058200006D002280ED0032807D004280AD04AE068
:105830004879C00754D14A7052E0032048700520CF
:1058400038704DE048704BE059784078814202D082
:1058500058700220387051201AE053202070657073
:1058600058781EE099784078814202D098700320E1
:10587000387055200CE0572020706570987810E043
:1058800019794078814202D018710420387059206B
:10589000207065700225012615E05B202070657080
:1058A0001879A07003250EE0602020706570022535
:1058B00007E06220207065700225FBF79FFDFBF773
:1058C00093FD012038700498009001980023C2785D
:1058D00029462046FBF79CFD002E01D003F0FEFE7A
:1058E000002005B0F0BD00006C0500203807002046
:1058F00074000020FF220132811A90421FD00ADC7E
:1059000010281CDA01281CD002281AD004281AD02A
:10591000082814D117E00F2000020A1A81420ED085
:1059200006DCFF39491E0AD0FF39FF39891E06E01F
:1059300001200003101A02D001214903401A072058
:105940007047052070470620704700003EB51C4890
:10595000C16A01242143C162C06A1A4920400290F1
:105960001948E20701600021016442608160C16062
:105970000162416202220461C263FF22C162C2323B
:105980008262016341638161042281634261C1617A
:10599000FBF7C2FF002803D00C490DA003F040FF25
:1059A000012000030190694600940748FBF76AFF55
:1059B000002804D0054906A0103103F031FF3EBD98
:1059C0000010024000240140F0070020DB0200002C
:1059D0002E2E5C5372635C636F6D6D6F6E2E630071
:1059E00008B50C48016B012211430163006B1040A4
:1059F0000022009011460A20FCF730FE0A20FCF736
:105A000023FE002211460B20FCF728FE0B20FCF79A
:105A10001BFE08BD0010024010B51F491F4886B08C
:105A2000002412C004601E49846041600838FEF7FB
:105A3000B5F8002803D0FF211AA003F0F1FE04946A
:105A400004A916480594FDF797FF002804D0FF210C
:105A5000073114A003F0E4FE012001900C20029015
:105A600000940022694603940C48FDF7F1FF0028DA
:105A700004D0FF2110310BA003F0D2FE14210748FF
:105A8000FDF79EFF002804D0FF21153105A003F08B
:105A9000C7FE06B010BD000000080140EC0A00205F
:105AA000FFFF00002E2E5C5372635C74696D2E63E1
:105AB0000000000010B50E480C490160E1214902C8
:105AC000416000218160C1600C22016142618161FD
:105AD0000122D2030162C2614162FEF787FB002806
