:020000040800F2
:10000000A81D0020D500000839830008155F0008EE
:1000100000000000000000000000000000000000E0
:1000200000000000000000000000000011A4000813
:100030000000000000000000E5880008ADB90008DD
:10004000E7000008E700000891A00008E7000008AA
:10005000E7000008611E0008711E0008811E0008EC
:1000600000000000E7000008A11A0008B11A00080B
:10007000E7000008E700000800000000E7000008B3
:100080000000000051BB000800000000000000005C
:1000900041BB000800000000E7000008E70000087E
:1000A000695F0008E7000008E7000008F5CC0008D9
:1000B00011CD0008F97700080000000000000000E2
:1000C0000348854600F03EFC00480047FDDA000882
:1000D000A81D00200448804704480047FEE7FEE7CB
:1000E000FEE7FEE7FEE7FEE75DBA0008C100000894
:1000F00030B50B46014600202022012409E00D46C0
:10010000D5409D4205D31D469540491B2546954047
:1001100040191546521E002DF1DC30BD70B500248B
:100120002546002801DA01244042002901DA012590
:100130004942FFF7DDFFAC4200D04042002C00D026
:10014000494270BDF0B51FB40646002082B0054696
:100150004024019100901BE0019922460F46304651
:1001600000F09CFA049A059B801A994110D310461E
:100170001946224600F082FA361A8F41019722462C
:1001800001200021009F00F079FA38184D410090BD
:100190002046641E0028DFDC019B00982946324679
:1001A00007B0F0BD03460B439B0703D009E008C925
:1001B000121F08C0042AFAD203E00B780370401C17
:1001C000491C521EF9D27047D2B201E00270401CA5
:1001D000491EFBD270470022F6E710B513460A46C7
:1001E00004461946FFF7F0FF204610BD30B505461E
:1001F0002A460B4610781C78521C5B1C002801D044
:10020000A042F7D0002C03D0002802D06D1CEFE7ED
:10021000284630BD30B504460020034600E05B1C94
:10022000934203D2E05CCD5C401BF8D030BD30B5CA
:1002300005460020034600E05B1C934205D2EC5CBF
:10024000C85C201A01D1002CF6D130BD0321001D5D
:10025000401E037812021A43491EF9D51046704712
:10026000034603220870000A491C521EFAD518469C
:1002700070470000F0B507460846584087B0C00FE9
:10028000049048000E46590040084908BC1A8841AD
:1002900005D2384631461E4617460B4602465800E0
:1002A000400810434CD0300D039040055900400DDC
:1002B000490D0590401A0290402872DA1803012176
:1002C000000B09050843019004980092002805D00E
:1002D00001995242002088410092019002984021E9
:1002E0000A1A0199009800F0C9F905460C466B46B8
:1002F00007CB00F0E4F9C0197141039A0E0D0023F9
:10030000D71756401A467A40164344D0049A002A1A
:100310002DD0029A012A039A15DC1205C01A9141C8
:1003200001263605001C7141D20F059ED2070093AD
:10033000019202962A46234600F0B2FA07B0F0BDB9
:1003400038463146FAE71605224A0F46B218C01A57
:10035000B74101210905001C4F4100187F4111469A
:1003600018187941E20F10436D19644113E0E20758
:100370006D0815436408C2071443039A0126120549
:10038000C01A91413605001C7141CE074008304328
:100390004908C01851412A46234600F074FACDE7B7
:1003A000FFE7049801224000C117121A00238B4175
:1003B00004983146C417381AA141EEE730B401243D
:1003C000E407634030BC55E730B40124E4076140E2
:1003D00030BC4FE70000E0FFF0B51FB488B00B99C8
:1003E0000998002448400999C00F4900490809911B
:1003F000C0070B990090490049080B91099908988A
:10040000A64608431CD00B990A98084318D00998AF
:1004100001244000420D4800410D099824050003C5
:10042000000B204309900B980003000B20430B9016
:1004300050181C494018002201901446104605E04F
:10044000002001460DB0F0BD032801DA034600E0AC
:1004500003239C46C11A0AAE0AE05F0008ADED5BBB
:100460004F00F75B7D430027AA187C41491C5B1EA7
:100470006145F2DD410004AB5A522104120C0A43DB
:10048000240C401C0828DFDB01980290009970467C
:1004900001910090059B049A0799069800F000FAD4
:1004A000D0E700000DFCFFFFF0B50C465C4085B0C6
:1004B000E40FE40703944C000026640859009446B6
:1004C000490802460296224321D062460A431ED0C2
:1004D0006200570D4A000E032303550D0124024606
:1004E0002C492405781B1B0B360B4018234326434D
:1004F000614600901C46501AB44103D30098401C3A
:10050000009002E0921800985B41002803DA002076
:10051000014605B0F0BD00200121090507468646C9
:1005200011E064461D46141BB54106D36546521BB7
:10053000B341744607430C43A646CD07400849081B
:10054000284392185B4105460D43EAD110461843F3
:1005500013D06046194650407140084306D06046AB
:10056000101AB34106D20122002306E00022012323
:10057000DB0702E00122D2435310009874460105C4
:10058000381C6141029C039D0019694100F07BF910
:10059000BFE70000FD03000070B54B005B0803439C
:1005A0000BD04B005C0D002633466542B341D41797
:1005B000AD1AA34102DB0020014670BD12053018C0
:1005C000514170BD0EB505490291002100910A46C6
:1005D0000B46019100F064F903B000BD3304000044
:1005E0004A0009030123090B1B051943094B10B5E8
:1005F000520D9A4201DA002010BD064B34339A4264
:1006000003DC9A1A00F04AF810BD034951188840DB
:1006100010BD0000FF030000CDFBFFFFC20FD2079B
:10062000400040080BD0C10D0723DB01C918400270
:100630000905400A1143C2084007114370470020D2
:1006400001467047CB0FDB07490010B54908024649
:100650000A4307D00A0D07240903E401090B121B02
:10066000002A01DC002010BDC900440F0C43C1006A
:10067000E018D205801800F0C5F810BD10B5202A8A
:1006800004DB0146203A9140002010BD9140202318
:100690009C1A0346E3401943904010BD10B5202A30
:1006A00004DB0846203AD040002110BD0B46D34061
:1006B000D0402024A21A91400843194610BD10B51D
:1006C000202A06DBCB170846203A1041C1170B43FE
:1006D00006E00B461341D0402024A21A9140084363
:1006E000194610BD0FB400B589B00CA900910B9943
:1006F0000023CB60204B214A0693079204220192EB
:100700001F4A02921F4A089202466B46002000F0E0
:10071000A6F909B008BC04B0184770B586B0064603
:100720000020C0430190002015460C460091029124
:1007300004903246694604A8FFF7D4FF03460498A4
:100740002118002D05D0002801D00A4600E02246DD
:100750002A6000280DD0002B02DD0098884208D0C6
:10076000081B0190009432466946029404A8FFF7E2
:10077000B9FF06B070BD0000B50C0008D50C00082C
:10078000FFFFFF7FF10700084A0009030123090B5F
:100790001B0519430A4B10B5520D9A4202DA00208C
:1007A000014610BD064B34339A4203DC9A1AFFF718
:1007B00075FF10BD034BD218FFF760FF10BD00009E
:1007C000FF030000CDFBFFFF10B5002904DB01246F
:1007D000E40740428C412146002B04DB1C460123E8
:1007E000DB075242A341994200D1904210BD000064
:1007F00010B50F21C0B2490200F0BCFA10BD70471D
:1008000055667788002904DA401C490001D1400868
:100810004000704770B40024050C05D1102400047A
:1008200002D1002921D01124050E01D10002083483
:10083000050F01D10001241D850F01D18000A41CEA
:10084000002801DB4000641C002908D020252E1B55
:100850000D46F540A14000D001212943084301067F
:100860001B1B000ADB1D02D5002070BC7047DB0596
:10087000181880180029F8DA401C4900F5D170BC1E
:1008800040084000704710B5002B08DA0024401CD7
:10089000614192185B411A4301D14008400010BDEC
:1008A000F0B51FB482B005460C0003D008460CF02A
:1008B000F5FB02E00CF0F2FB2030024600902146EE
:1008C0002846FFF7DBFE049B059A04460F461843B3
:1008D0001143084314D0184610431BD00098402100
:1008E0000A1A18460599FFF7D9FE05460E46009AE2
:1008F00005990498FFF7C2FE084305D0012004E0E3
:100900002046394607B0F0BD0020C11705430E430D
:100910002C43374300990E986305401A7905E40A81
:1009200000220C43FD0A0A3002D500200146E9E707
:100930000105101969410C9C0D9D00196941FFF7D3
:10094000A2FFDFE7064C0125064E05E0E36807CC71
:100950002B430C3C98471034B442F7D3FFF7B4FB59
:10096000ACE10008CCE10008FFB5087885B0154679
:10097000FF2805D0491C2D2804D00022002407E0C0
:1009800000240BE00122F9E70A235C430419491C07
:100990000878FF28F8D1002A00D064420020019096
:1009A0002A7801462D2A01D02B2A04D16D1C2D2A2C
:1009B0000DD00022019200262F78FF2F09D00A22A5
:1009C00000236D1C00F098F938187141F4E70122FA
:1009D000F0E7089AA218039202460A430DD00024B9
:1009E000B24AB14D2646009200F0D6F90490039821
:1009F0000291002807DA47421AE0002105980A46CA
:100A000006C009B0F0BD074612E0F80707D022463D
:100A10002B4630460099FFF7DFFC06460091224640
:100A20002B4610461946FFF7D7FC04460D467F10AB
:100A3000002FEAD10398009B0028029904983246BF
:100A400002DAFFF731FD01E0FFF7C6FC019A002A48
:100A500002D00122D2075140059A03C2D1E7FFB567
:100A600091B0002009900025ED432E209E685C681F
:100A70001F460190B9696D1C129888470090396A29
:100A800088470028F6D10098401C0AD00D20C001EC
:100A90008443002E12DD00982B2809D02D280DD17B
:100AA00003E00020C04315B0F0BD012080020443E4
:100AB000B9696D1C12988847761E009003A96005DD
:100AC00001D52D2000E02B206A461073491C0CA88C
:100AD0000F9102900AE0B9696D1C12988847009046
:100AE0000120400204431398761E0560002E02DDAB
:100AF00000983028EFD001990098884246D1802094
:100B0000044308E00998401E099001204002044374
:100B10001399681C0860B9696D1C761E1298884785
:100B200000903028EED031E00199884205D12006AE
:100B300003D480200443761E1EE000980CF0B2FB24
:100B4000002826D001204002044307A90F98033152
:100B5000761E88420BD200980F99303808700F9893
:100B6000401C0F90200607D50998401E03E0200680
:100B700002D40998401C0990A00502D51399681C5D
:100B80000860B9696D1C129888470090002ECBDC74
:100B900059E0002E57DD0098652801D0452852D134
:100BA000A00550D5032000028443B9696D1C761E50
:100BB000129888470090002E0CDD2B2804D02D2899
:100BC00008D1FF2001300443B9696D1C1298884791
:100BD000761E0090E00501D52D2100E02B21029822
:100BE00001700298401C0290019025E00120400213
:100BF00004430EA902980131761E88420ED2009855
:100C0000029930380006000E087003D1029901984D
:100C100081420AD90298401C029006E0E00501D505
:100C2000234801E0224840420990B9696D1C12989E
:100C30008847009013980560002E04DD00980CF0A2
:100C400031FB0028D2D1F969129888470F99FF200B
:100C50000870029903AA087000200A900B900CA952
:100C60000AA8099BFFF780FEA00502D40120C0431B
:100C700019E72420044209D0E00713D138680B9A01
:100C80000A99031D3B60006806C00BE00B990A98A7
:100C9000FFF7D8FC0146E00704D13868021D3A602E
:100CA000006801602846FEE6000024400000F03F96
:100CB000F1D8FFFF4268002A08D001680B78491C70
:100CC000002B03D0521E06C0184670470121C16098
:100CD000881E70474268002A0BD0C3680168002B49
:100CE00007D183688B4204D0491E521C06C00020E5
:100CF00070470020C0437047F0B51FB486B0002095
:100D00000090019002900698069980B2049007988E
:100D1000090C02040014114307900027089D09984C
:100D200006913E463C4603900398A9B20204000C8B
:100D3000039004982D0C1543484300212246FFF7E9
:100D40009DFCC719714110340E46402CECDB38462F
:100D5000029AFFF793FC009A019B8018009059417A
:100D600002980191103002904028CCDB00980BB023
:100D7000F0BD00007F2801D9002207E0054B4208A2
:100D80009A5CC00700D112091207120F012090408F
:100D90000840704769E100080EB5054A029200223A
:100DA000009213460192FFF77BFD03B000BD0000E7
:100DB0003304000030B58C180278401C13071B0F59
:100DC00001D10378401C120906D10278401C03E0CF
:100DD00005780D70401C491C5B1EF9D101E00B70B9
:100DE000491C521EFBD1A142E6D3002030BD0000B9
:100DF00010B50A46054C022121706070E11C1046B6
:100E0000FFF72EFA0120A070002010BD1001002075
:100E100070B5044600688168490720D581681026AE
:100E20004907002905DA8168890702D481683143BE
:100E3000816002F0B9F905460DE002F0B5F9401BFA
:100E40000A2808D9A06D3043A065E06D0121084350
:100E5000E065084670BD206880684007EDD400203A
:100E600070BD000038B50446064805490068FFF724
:100E70003FF9604300E0401E00900028FBD138BDE0
:100E800040420F00EC000020F8B50446006881687D
:100E90008907890F012925D10168C90722D08168F6
:100EA000052211401025012601290FD18168022257
:100EB0001143816021680320086002F075F907463C
:100EC0000CE002F071F9C01B0A2807D9A06D284375
:100ED000A065E06D3043E0650120F8BD20688068C2
:100EE000C007EED10020F8BDF8B50446006881685F
:100EF0008907890F012902D10168C90722D18168B8
:100F0000114A10261140012500290ED1816829437C
:100F100081600120FFF7A6FF02F046F907460CE0CA
:100F200002F042F9C01B0A2807D9A06D3043A06522
:100F3000E06D2843E0650120F8BD20680068C043EB
:100F4000C007EDD10020F8BD17000080FFB581B0CB
:100F500002981546052209381F46382871D2A8077D
:100F600003D53948807802286BD0E80708D0364886
:100F7000192127380761490164200CF027FF82B24C
:100F8000324E00244D2060438019007909383828FA
:100F900004D2641CE4B2052CF4D352E0052C50D2E8
:100FA000A80703D42848C178491CC170B8B2844648
:100FB000802D2DD0202D2BD0402D29D001990879BE
:100FC000CF7803024D2060433B43801903701B0A16
:100FD00043708B784F781B023B4383701B0AC370AE
:100FE000029B0371097A41710272110A4172002158
:100FF0008171C57162468272120AC27201730D302C
:10100000029A0199FFF7CEF8E80610D5012111E008
:101010004D20604380190B990170090A41700A99AB
:101020008170090AC170029901710C99DBE76806A9
:1010300004D502214D20604380198171204605B0FE
:10104000F0BDFF20FBE700001701002097170020EC
:101050000149002048707047F400002010B5064890
:10106000002101704170817014210448FFF7B3F82A
:1010700000F05CFD002010BD17010020E4130020EB
:1010800000B505F0A3FB0C49002811D005F0A8FB22
:1010900000280DD005F044FB002809D005F054FBD2
:1010A000002805D005F046FB002801D0012000E013
:1010B00000204870C0B200BD1701002000487047F2
:1010C000EE1300200249C87989790002084370476D
:1010D000E41300200148807870470000E4130020EA
:1010E0000148007970470000E41300200249487A63
:1010F000097A000208437047E41300200420704777
:1011000010B500281DD013490446C860001DFFF724
:101110009DF8002819D020460830FFF797F80028DE
:1011200013D020461830FFF791F800280DD0204644
:10113000FFF78CF8002808D0064902202731887074
:1011400010BD05A00BF09AFFFEE707A00BF096FF7D
:10115000FEE70000F000002046756E6320697320F2
:101160004E554C4C210D0A004C6F73732043616C3B
:101170006C4261636B210D0A00000000F8B5454C1C
:101180000546434F2046E1687A78273006780C31CF
:10119000012A0BD1072E09D0002E30D1062404706D
:1011A0000846FFF753F8014620464FE02278072A09
:1011B00025D0052A23D0964206D026700846FFF790
:1011C00045F8014630468847324E273630780028A9
:1011D00016D0032814D0012819D0042826D00228BC
:1011E00043D006284ED0072809D1002430467C7011
:1011F00003212338FEF7EFFF00F098FCB471F8BD2F
:101200008C2125486561FEF7E6FF012038E0F01DDE
:10121000FFF71CF86169691A8842F0D265612846B7
:10122000A56100F0E7FA042030701AE0A0691B49BC
:10123000281A88420CD90520307019A00BF01EFF27
:10124000E0680C30FFF702F8014630788847F8BDB7
:1012500060691749281A8842F9D92846656100F063
:10126000C9FA14A00BF00AFFF8BD60697D21281AA5
:1012700009018842F8D92846656105F0C1FA0420C1
:101280003070F8BD012078700BF042FEF8BD000010
:10129000E4130020F00000200B1700203075000040
:1012A0004A6F696E2054696D654F7574210D0A008F
:1012B00088130000426561636F6E20526571210DD5
:1012C0000A00000010B500F007FD024901208871F6
:1012D00010BD000017010020FFB581B00E46074683
:1012E00008F0F4FE00F0ACFB224C234D002810D097
:1012F00000F01CFC0F2F01D3A77001E00F20A0709D
:10130000002E01D01E2E01D3E67005E01E20E070F5
:1013100002E0607801280DD0002028706070A07174
:10132000E0712071207260721248082213490A305D
:10133000FEF738FF0398002807D01149FEF7D8FEC2
:10134000481CE91DFEF78CFF07E07D20E91D000128
:10135000FEF786FF0BA00BF091FE0498002805D045
:1013600005490B31FEF77CFF05B0F0BD0BA00BF07B
:1013700085FEFEE7E41300201701002061E000086D
:10138000881300004A6F696E44656C617920697347
:10139000204E554C4C210D0A000000004465766932
:1013A0006365204D41432041646472206F72205375
:1013B0004E206973204E554C4C210D0A0000000050
:1013C0000148407870470000E413002010B504463F
:1013D00007F08AFA204604F07BFD002010BD0000D3
:1013E000FFB5044681B000780A9F022821D0C2438D
:1013F000520723D07D4B891E012825D0112823D0E8
:1014000005281AD0062859D003287DD0400614D5C7
:10141000774D1A46697820798C46D17992790902FC
:101420001143EE1C009101286FD0604601286DD059
:1014300091E02046394607F089FAD5E0601C05F0B6
:1014400095F900280AD1CFE0CEB22079E1780002E8
:10145000651C084305F0A6F9002802D0012005B05C
:10146000F0BD28791979884270D1E878A97800020E
:10147000084303990BF0E4FC6878297800020843DC
:1014800005F090F9002809D02078112803D1E879D7
:101490003946FFF7ADFC5749002048706878297835
:1014A0000002084305F07EF9002806D00097314677
:1014B0002846049B039A07F0B1FA95E04D48641C56
:1014C0002B30FEF7C3FE014608222046FEF7A2FE9F
:1014D000002869D120460830054600F03DFE0A2864
:1014E00019D20E225043444A617C801841700399FE
:1014F0008170090AC170617D227D09021143017169
:10150000090A4171082202E00AE01AE041E0294696
:10151000801DFEF747FE374902202031087063E046
:10152000CDB2152D01D0182D5ED1601C05F01EF92D
:10153000002859D03B462946601C039A07F00AFE52
:1015400052E0617A1A79601D914201D0022086E74B
:101550006146002901D0062081E74178027809021E
:101560001143009A914218D161782970C179A9700C
:1015700041780278090211433170090A7170C1780B
:101580008078090201431A484171090A81710120DA
:101590006870E91D3846FEF763FE70783178000206
:1015A00008430099884201D0052058E72078C006FA
:1015B00003D5A8783946FFF71BFC20793A21484328
:1015C0004019E278611D2F38FEF7ECFDA0782179F3
:1015D000884209D1064800970B302978049B039A6A
:1015E00007F01CFA03206870002038E7E41300209D
:1015F00001160020F70000200B170020FEB5194D42
:101600001446EA79AF7912023A43089EA24201D108
:1016100015A023E0134A14320092224600F062F92A
:1016200001466878012801D014A017E0687A2A7A68
:1016300000021043A04202D015488442E8D140295C
:101640000BD80020009001900246029005483346D6
:101650001430FFF77BFC0020FEBD0EA00BF00EFD4A
:101660000120FEBDE41300204473744164647220C1
:101670006973206572726F72210D0A0044657620CD
:101680006973206F66666C696E65210D0A00000043
:10169000FFFF00005246206C656E206572726F720B
:1016A000210D0A003EB51446084A00F04FF90146E4
:1016B000074B0848DB7800226D460DC523464022C3
:1016C0000248FFF743FC00203EBD0000F813002055
:1016D00017010020FFFF000010B505490020087029
:1016E000273108700349487000F020FA10BD00004F
:1016F000F0000020E413002010B504460AF00CFBB3
:10170000204608F033F92046FFF760FE10BD0000C8
:101710000149002008707047F70000200248017856
:10172000491C017070470000F700002010B5034904
:1017300088700BF0EDFB002010BD0000E4130020CA
:1017400010B5002805D0044908710BF0E1FB00201A
:1017500010BD012010BD0000E413002000B508F00A
:1017600043FC02490020887000BD0000F700002003
:1017700002488178491C817070470000F700002002
:101780000249012048710020704700001701002025
:101790000148806870470000DC00002010B564201C
:1017A00001F019FB0021064803F0AEFA0548017864
:1017B0000029FCD00021024803F0CAFA10BD000045
:1017C0000C130020DC00002008B502460748232344
:1017D0000371427100910649001D8B7B5A1C8A736C
:1017E0000022022100F0CEF9002008BD9C0C002050
:1017F00018000020F1B5184D84B005206C1C28702D
:101800001527082215492046FEF7CCFC1448FEF7A0
:101810001DFD08220146A018FEF7C4FC012020741B
:101820000F4800260B38C178A174E674667480787E
:1018300020753946681C00F026F929468875A07C79
:10184000029017210096019620222846049BFFF75C
:101850007DFB002005B0F0BDF813002059E0000822
:101860002201002005484178002904D0C0780028D2
:1018700001D0002070470120704700008800002040
:10188000F8B58C46014610460930C5B21C46581CB6
:1018900001232370CB788E781B02334303701B0A1D
:1018A00043700F4BDE799F7936023E438670360ACD
:1018B000C6701B7903714B79802633434371C97914
:1018C000C1710021017261460930FEF76BFC2946A7
:1018D000601C00F0D8F861194870AD1CE8B2F8BD82
:1018E000E4130020F8B5844608460930069CC5B2CA
:1018F000F42901D90020F8BD112626706270120A61
:10190000A270104A2046D679977936023E43E67097
:10191000360A267112796271F02282710022C27138
:10192000094AD278027243720A4661460A30FEF7CB
:1019300039FC2946601C00F0A6F861194870AD1CFE
:10194000E8B2F8BDE413002017010020F7B50846FF
:101950000A3014460E46C5B2342901D90020FEBD16
:1019600017202070671C0E48FEF770FC0146082205
:101970003846FEF717FCF0203872094832460B381B
:10198000C078787238460A300099FEF70BFC294679
:10199000601C00F078F861194870AD1CE8B2FEBD1B
:1019A0002201002038B50446FFF70AFD012803D1C3
:1019B0000C48007A012801D0012038BD0A480B21CB
:1019C00001710A4949784171084900941E398B7C9C
:1019D000001D5A1C8A740022022100F0D3F8002056
:1019E00038BD0000680F00209C0C0020360000204D
:1019F00010B502460020054B05E01478491E44400E
:101A0000185DC9B2521C0029F7D110BD69E0000869
:101A100010B50A4801785A290DD104462034A17C1A
:101A2000A52908D13021401C00F020F8617C8142BA
:101A300001D1002010BD012010BD0000680F002062
:101A400010B5094C20785A280BD1E07CA52808D184
:101A50001121601C00F017F8A17C814201D1002007
:101A600010BD012010BD0000E4130020034610B596
:101A70003320002204E09C5C2018521CC0B2D2B279
:101A80008A42F8D310BD034610B50020024604E098
:101A90009C5C2018521CC0B2D2B28A42F8D310BD4E
:101AA00010B5024800F0ACFF10BD0000780E002019
:101AB00010B5044800F0A4FF0248403000F0A0FF39
:101AC00010BD0000B80E002010B504686360836884
:101AD000102B036803D099600068C26010BD9A6043
:101AE0000068C16010BD000008B50648C26A022146
:101AF0000A43C262C06A084000904021024801F0D7
:101B0000CFF908BD00100240000400500020401C26
:101B1000C0B21428FBD3704710B54021024800F032
:101B2000DDF9002010BD00002000080810B52021BC
:101B3000024800F0D3F9002010BD000000000808A2
:101B400070B50D460E4C091D049E21700121617077
:101B5000A370E27001462A46201D0CF0DFF82078C1
:101B6000801EC1B2A01CFFF781FF611908712078A7
:101B70003246401CC1B22046FFF794FD002070BDE4
:101B80009C0C0020FFB581B01E4617460D46FFF79E
:101B900017FC012803D11448007A012802D0012043
:101BA00005B0F0BD114C281D207001206070A6709A
:101BB000E7702A46201D01990CF0B0F82078801EAD
:101BC000C1B2A01CFFF752FF61190871FFF78EFA2E
:101BD00002460A98009020780023401CC1B220469B
:101BE000FFF70CFD0020DBE7680F00209C0C0020B5
:101BF000F8B5374C2178002915D00025012914D0DB
:101C0000344E02291BD0324693781279032929D009
:101C1000042927D022467032052933D006293DD029
:101C2000072946D051E0E062F8BD628BE16A5300BB
:101C3000411AD2189142F7D9E062257010E0628B08
:101C4000E16A5300411AD2189142EDD9E062257041
:101C5000FFF76CFF0BF02AF9F178707808F03CF987
:101C600006F08EFB1A49CC6A498B041B4F00C91938
:101C70008C42D9D91649C8620D70F11C184608F07B
:101C800049F9F8BDE16A3C26431A618B71438B42E6
:101C9000F7D9E062257002205070F8BD638BE16ACD
:101CA0005E00411A9B199942F7D9E06204205070F6
:101CB0000BE0628BE16A9300411AD2189142ECD991
:101CC000E0620A21022009F0CDFD2570F8BD000078
:101CD00018000020680F0020FEB5194A0123137078
:101CE0001346143B5C7A1E7A240234435470240A4F
:101CF0009470DC799E79240234430546D470501CDC
:101D0000240AC4701B7903712523437100240D4BF1
:101D10008471DE78C67104729B780A214372FFF7E2
:101D2000B2FE07490C26C872009401942B4600228B
:101D3000314603480294FFF709F93046FEBD000022
:101D4000F813002017010020F8B50546FFF738FB0F
:101D5000012803D11E48007A012801D00120F8BDD6
:101D60001C4C0920207001201B496070487DA07028
:101D7000401C48750021E17021711749261D703102
:101D8000487860718878B070C879F0700846523829
:101D9000807830710721A01CFFF768FE7071FFF793
:101DA0000FFB012807D020782A46401CC1B22046EC
:101DB000FFF778FC0AE0FFF799F9024600952078D2
:101DC0000023401CC1B20348FFF718FC0020F8BDF7
:101DD000680F00209C0C002018000020FEB507466C
:101DE000012040036946888001200290FFF7E8FA4D
:101DF000012801D00120FEBD174C0D2002262070C5
:101E000016496670087BA070401C08730020E070C3
:101E10002071251D324601A9601D0BF08DFFEE706B
:101E200003202871042202A9681D0BF085FF207889
:101E3000801EC1B2A01CFFF719FE6872FFF756F9A9
:101E40000246009720780023401CC1B22046FFF7CD
:101E5000D5FB0020FEBD00009C0C002018000020D7
:101E600010B5012001F0C8F8022001F0C5F810BD3E
:101E700010B5042001F0C0F8082001F0BDF810BD35
:101E800010B5102001F0B8F8202001F0B5F840207E
:101E900001F0B2F8802001F0AFF8FF20013001F02E
:101EA000ABF80120400201F0A7F80120800201F008
:101EB000A3F80120C00201F09FF80120000301F007
:101EC0009BF80120400301F097F80120800301F006
:101ED00093F80120C00301F08FF810BD70B50D46D6
:101EE000064600F0CBFF002403E0301900F07EFF2F
:101EF000241DAC42F9D300F08DFF70BD10B5214A0E
:101F000000219069C305204804D541690223194383
:101F10004161911593699B0505D5436901242343CC
:101F200043616302194393695B0505D5436908243E
:101F300023434361E301194393691B0505D54369B5
:101F40000424234343616302194393699B0405D529
:101F500043691024234343616302194393699B033C
:101F600004D5446920231C43446119439369DB036E
:101F700005D54369402423434361A0020143916195
:101F800010BD0000002002405001002070B5054641
:101F900001F00AF90646184C0AE0681C08D0002D2A
:101FA00004D001F001F9801BA84201D9032070BDC3
:101FB000A069C007F1D1A069800701D50220A06106
:101FC000A069C00511D4A06980050ED4A0694005A0
:101FD0000BD4A069000508D4A069800405D4A069C9
:101FE000800302D4A069C00303D5FFF787FF012057
:101FF00070BD002070BD000000200240F8B56320D5
:10200000C043FF261D4F0024009020460E21484368
:10201000395C03291FD2C519687929790002084360
:102020000BD1A81D08221649FEF7F4F8002822D18A
:10203000687929790002084315D06878012812D1FF
:10204000E978A878090609140143009881420ADD5D
:102050002646009107E0C11948790A790102114327
:1020600008A00BF00BF8641CE4B20A2CCDD30A2EA6
:1020700001D23046F8BD2046F8BD00000B17002005
:1020800061E00008506172655F4E776B4164647275
:102090003A2530347820747279206A6F696E206D29
:1020A00061780D0A0000000010B50E4886B0C26AC3
:1020B00002210A43C262C06A0B4C0840059080208E
:1020C00000900120019000200290032003906946B7
:1020D000204600F09DFF00228021204601F05DF89F
:1020E00006B010BD00100240000400500348C07844
:1020F000002801D000207047012070473F000020D9
:1021000010B5094A0021CB00D458844207D89B1847
:102110009B68834203D9C8008018007910BD491C10
:10212000C9B21529EFD3FEE788DF000810B50748CC
:1021300001F0FAFB064A1168884201D3411A02E015
:10214000044B591A09181060084610BDB41300203A
:10215000E8000020FFFF000070B500F019F80A2821
:1021600010D3094D00240E2060434019082207496E
:10217000801DFEF74FF8002803D0641CE4B20A2C3F
:10218000F1D3204670BD00000B17002061E000086D
:1021900070B50546007800280FD00A4E00240E20A6
:1021A0006043801908222946801DFEF733F8002875
:1021B00005D0641CE4B20A2CF1D3FF2070BD204688
:1021C00070BD00000B1700208021017001214170BB
:1021D00081703821C17005490A7802714A784271CC
:1021E0008A788271C978C1717047000000080008C0
:1021F000F8B5054604464035287D0026012808D05C
:1022000001202875206881688907890F01290ED16E
:1022100001E00220F8BD0168C90708D0A06D2021A7
:102220000843A0650126002028753046F8BDA16D41
:10223000FF220132914302221143A165C16889073F
:10224000890F0091C16889088900C1602068816890
:1022500092071143816000F0A7FF07460EE000F0EF
:10226000A3FFC01B0A2809D9A06D022188431021B1
:102270000843A065002028750120F8BD206880680B
:102280000028ECDB2068C168009A1143C160A06D92
:1022900080088000401CA065C5E70000F8B5064630
:1022A0000D464036317D01290DD00121317501687F
:1022B0008A68520709D5816D20221143816500206B
:1022C00030750120F8BD0220F8BD174B6A68D805AB
:1022D00047109A42154C8A6A2B6812D05B035B0B3D
:1022E0001A438A622968490305D5A1680143A160A0
:1022F0000A20FEF7B7FD2868800312D5A06838438E
:102300000EE05B035B0B9A438A622968490302D59E
:10231000A1688143A1602868800302D5A068B84302
:10232000A06000203075F8BD0110000000270140BA
:1023300070B5040043D0A06D02210843A06520467B
:10234000FEF766FD0026054600283AD0012D32D062
:10235000206841681F4A114041602168D0430860ED
:102360002068816801221207914381602068C1685A
:10237000194A1140C16020680169184A1140016181
:1023800020684169C908C90041612068016A144A8E
:102390001140016220688030416BC909C901416365
:1023A00020688030416BC909C9014163204600F0B3
:1023B000FFF8E665A66540342675284670BD012005
:1023C00070BD2046FEF760FD05460128F3D00120D0
:1023D000A065BDE760F7FFFF00023E8302FCFF3F00
:1023E00000F000F00068006C7047000070B5040059
:1023F00006D0A06D264600254036002802D006E013
:10240000012070BDE5653575204600F0E5F8A06D4A
:10241000C00603D421688868400705D5A06D102147
:102420000843A0653575EBE7A06DFF2201329043AC
:1024300002221043A06588688207920F5A48012A39
:1024400002D10A68D2072BD1032362689B079A4204
:1024500005D05B429A4202D05B009A4209D10A69D8
:10246000920092080A6121680A6963681A430A6146
:102470000CE00A69920092080A6181680F229204B6
:102480009143816081686268114381602168CA68F4
:1024900018239A43CA602168CA68A3681A43CA60AD
:1024A000816801225206914381608168228F520621
:1024B0001143816020688168C90004D481680122C9
:1024C0001207114381602068C168384A1140C16019
:1024D0002169E068022923D000210843216A226B88
:1024E0004903520011430843616B0843A169890302
:1024F0000843E169C90308432168CA681043C860FA
:10250000A06A0146FF39C23905D0E16A0843216853
:10251000CA681043C860606A0121012802D00BE03C
:102520000421DAE7206A002823D0A06D202210437E
:10253000A065E06D0843E065206C012820681FD08D
:102540000169C90703D00169490849000161206890
:102550004169C908C900416120684169E26B1143C2
:102560004161E565A06D80088000401CA0650020E9
:1025700070BD2068C26801231B041A43C260DBE7F8
:102580000269FF239B009A43026120680269636C21
:10259000E66C1A43A36C33431A4302612068026954
:1025A0000A430261D3E70000002701401902FEFF41
:1025B00010B500680649884209D10648416B4215AA
:1025C0009143416305200321000700F069FC10BD21
:1025D0000024014000100240F0B50068114985B0A8
:1025E00088421CD11048416B4215114341630124BC
:1025F000032500266A46052770C23F07694638460C
:1026000000F006FD02206A46039551C2694638462D
:1026100000F0FEFC01220221384600F0BEFD05B0AC
:10262000F0BD00000024014000100240F8B504464F
:102630004069254640350E4608280BD02068C06802
:10264000C00709D0A06D20210843A065002028758F
:102650000120F8BD082700E00C2700F0A5FD009040
:1026600011E0701C0FD0002E05D000F09DFD0099E8
:10267000401AB04207D9A06D04210843A06500208C
:1026800028750320F8BD206800683842E9D0A06DA5
:10269000012149020843A0652068C16809058A0F25
:1026A0000C21002A1AD1226A002A17D102681207C7
:1026B00014D5826853070122002B08DB43688B4343
:1026C0004360A06D130298431043A06506E0A06D1F
:1026D00020231843A065E06D1043E065A069002841
:1026E00001D1206801600020F8BD000070B50446EB
:1026F000216800208968490721D425464035297D75
:1027000001291CD001212975E169012904D0204645
:10271000FEF7EAFB002811D1A16D0A4A1140FF2201
:1027200001321143A1650021E165297522681C2150
:10273000116021688A6804231A438A6070BD0220F0
:1027400070BD0000FEF1FFFFF8B5044600680168A7
:1027500049084900016000F027FD0027254606468C
:1027600020350EE000F020FD811B7D20C00081425D
:1027700007D9E06B20210843E0632F7103206871C3
:10278000F8BD20680068C007ECD12F710120687186
:102790000020F8BD70B5002402462032517902298C
:1027A00003D00421C16301243CE001680B680E25BD
:1027B000AB430B6001680B685B085B000B601A4B56
:1027C0000168994201D1012121E0174B143399424C
:1027D00001D110211BE0144B2833994201D18915F6
:1027E00015E0114B3C33994201D189140FE00E4B97
:1027F0005033994202D10121090408E00A4B6433A5
:10280000994202D10121090501E001210906064B87
:10281000083B59600121517100211171816B002920
:1028200000D08847204670BD08000240F0B500285F
:1028300021D0014620318C46497902291BD00168FC
:102840000A68520852000A6002680021116002689A
:102850005160026891600268D160684C674D674EB4
:10286000664F664A0168143428353C365037914229
:1028700003D101231DE00120F0BDA14201D11023AD
:1028800017E0A94202D1FF23013312E0B14202D185
:1028900001231B030DE0B94202D101231B0408E010
:1028A000564B6433994202D101231B0501E00123F9
:1028B0001B06524908394B600168914201D102233D
:1028C0001BE0A14201D1202317E0A94202D101233C
:1028D0005B0212E0B14202D101235B030DE0B94279
:1028E00002D101235B0408E0444B6433994202D1D6
:1028F00001235B0501E001235B06404908394B6079
:102900000168914201D108231BE0A14201D180233B
:1029100017E0A94202D10123DB0212E0B14202D149
:102920000123DB030DE0B94202D10123DB0408E0FF
:10293000324B6433994202D10123DB0501E00123CC
:10294000DB062E4908394B600168914201D104230E
:102950001BE0A14201D1402317E0A94202D101238B
:102960009B0212E0B14202D101239B030DE0B94268
:1029700002D101239B0408E0204B6433994202D129
:1029800001239B0501E001239B061C4908394B608C
:102990001A4903687831934203D18A6A12091201F5
:1029A00024E0A34202D18A6AF0231EE0AB4203D1A5
:1029B0008A6A0F231B0218E0B34203D18A6A0F23ED
:1029C0001B0312E0BB4203D18A6A0F231B040CE0F5
:1029D0000A4A6432934203D18A6A0F231B0504E03A
:1029E0008B4204D18A6A0F231B069A438A62002114
:1029F000C1636046417101710846F0BD08000240A4
:102A0000F8B504469D4801689C4A9C4E9B4F08328D
:102A1000206813041C363037904201D108221EE092
:102A2000B04201D180221AE0B84202D10122D20282
:102A300015E0924A4432904202D10122D2030EE0C4
:102A40008E4A5832904201D11A4608E08B4A6C32C5
:102A5000904202D10122D20501E00122D206254690
:102A60001140203500293BD00168090738D501689D
:102A7000082291430160814920680831884201D1D0
:102A800008201EE0B04201D180201AE0B84202D1F5
:102A90000120C00215E079494431884202D1012069
:102AA000C0030EE075495831884201D1184608E04C
:102AB00072496C31884202D10120C00501E0012039
:102AC000C0066E494860E06B01210843E0630420C2
:102AD000687100202871616B002901D02046884769
:102AE00066480168654A206808321315904201D192
:102AF00004221EE0B04201D140221AE0B84201D1C6
:102B00001A4616E05D4A4432904202D101229203F5
:102B10000FE05A4A5832904202D10122920408E052
:102B2000564A6C32904202D10122920501E0012204
:102B30009206114238D00168490735D501688906E7
:102B400003D4026804218A4302604C49206808319A
:102B5000884201D104201EE0B04201D140201AE099
:102B6000B84201D1184616E044494431884202D1A6
:102B7000012080030FE041495831884202D10120F1
:102B8000800408E03D496C31884202D10120800573
:102B900001E0012080063949486005206871216BF9
:102BA000002901D02046884734480168334A20680C
:102BB00008325315904201D102221EE0B04201D1E9
:102BC00020221AE0B84201D11A4616E02B4A4432BC
:102BD000904202D1012252030FE0284A583290421B
:102BE00002D10122520408E0244A6C32904202D100
:102BF0000122520501E00122520611423CD0016837
:102C0000890739D50168890603D4016802229143F6
:102C100001601A4920680831884201D102201EE073
:102C2000B04201D120201AE0B84201D1184616E086
:102C300012494431884202D1012040030FE00F497C
:102C40005831884202D10120400408E00B496C3120
:102C5000884202D10120400501E0012040060749D9
:102C60004860E06BE0630120687100202871E16A30
:102C7000002901D020468847F8BD0000000002402E
:102C800070B5002805D0034620335979002902D0B9
:102C900003E0012070BD00211971022159710468FF
:102CA00022683749C5680A40816846692943056931
:102CB0003543294385692943C5692943056A294361
:102CC000114321602F492F4C02687831A24206D16E
:102CD0008A6A120912018A628A6A406849E0294CAC
:102CE0001434A24207D18A6AF024A2438A628A6A13
:102CF000406800013DE0234C2834A24208D18A6A92
:102D00000F242402A2438A628A6A4068000230E0EB
:102D10001C4C3C34A24208D18A6A0F242403A243EB
:102D20008A628A6A4068000323E0164C5034A2424B
:102D300008D18A6A0F242404A2438A628A6A80889E
:102D4000000416E00F4C6434A24208D18A6A0F24B2
:102D50002405A2438A628A6A8088000509E08A42C3
:102D600009D18A6A0F242406A2438A628A6A0079FA
:102D7000000602438A6201205871002070BD0000E5
:102D80000FC0FFFF08000240F8B504462030057967
:102D9000012D1ED0012505710226467120680768A5
:102DA000AF4307602046FEF78FFE2068016831437D
:102DB00001602068016804221143016020680168F5
:102DC0000822114301602068016829430160002046
:102DD000F8BD0220F8BD31B500F0E6F9044600F078
:102DE000E3F90099001B8842F9D338BD70B5074D4F
:102DF00004462846FFF7CAF8002805D1044948616F
:102E000020602846FFF7C2F870BD000050C30000E4
:102E10005001002003484168012211434160002015
:102E20007047000000200240F8B5124D0746287C8C
:102E300014460E46012807D0012028740E48FFF7DB
:102E4000A5F8002802D00CE00220F8BD002169613D
:102E5000022F09D0012F09D0002F09D00648FFF713
:102E600095F800212974F8BD3460FAE73480F8E75A
:102E70003470F6E75001002050C300000548416857
:102E8000C90705D00449C1600449C16000207047EA
:102E90000120704700200240EFCDAB8905040302FA
:102EA000F0B500235DE001249C4022460A4057D043
:102EB00006685F000325BD402E43AC460660DD0872
:102EC000AD002D182E6AAE465D07EF0E0F25BD40F2
:102ED000AE4375462E6286686546AE438660456899
:102EE000A5434560C4686546AC43C4609D081F4C5B
:102EF000AD002D19AF689C07260F0F24B440A446DF
:102F00003C4005273F07B84201D1002714E0184F85
:102F1000B84201D101270FE0164FB84201D1022774
:102F20000AE0154FB84201D1032705E0134FB8421C
:102F300001D1052700E00627B740A74210D1AE68AF
:102F40006446A643AE600E4C2568954325606568CF
:102F500095436560A5689543A560E5689543E56080
:102F60005B1C0A46DA409ED1F0BD00000000014023
:102F70000004005000080050000C0050001C0050DD
:102F80000004014010B5044602F0C2FC01214903CF
:102F900001208C4203D1134906E0887010BD012145
:102FA00009038C4204D110498A78002AF5D010BD5B
:102FB000402C0CD0042CFAD104210C4800F0E4F889
:102FC000C007F4D004F01CFB03F086FF10BD0849D5
:102FD0000A78002A00D10870064800F05BFB05F073
:102FE0003DFA10BD390000203C00002000040050D4
:102FF00030000020DC0C002010B504494A69024270
:1030000002D04861FFF7BEFF10BD00000004014080
:10301000F8B500230124A2E027469F403A4070D033
:103020004D68022D01D0122D14D1DD08AD002D18F0
:1030300000952D6A5E07AC46F50E0F26AE46AE40F3
:103040006546B543AC460E697546AE4065462E43AF
:10305000009D2E624D68012D05D0022D03D0112D4B
:1030600001D0122D16D185680326AC465D00AE4610
:10307000AE406546B543AC46CE687546AE40654643
:103080002E43866046680D79BE43ED06ED0F9D40E8
:103090003543456006685F000325BD40AE46AE433C
:1030A0000D79B446AE07B60FBE4065462E430660A6
:1030B000C6687546AE438D68BD403543C5604D68F2
:1030C000ED004BD5294D6E6B26436E639E08284D4F
:1030D000B6007519AC46AD689E07360F0F27B7408E
:1030E000BD4305273F07B84201D1002715E0214F16
:1030F000B84201D1012710E01F4FB84202D1022788
:103100000BE02BE01D4FB84201D1032705E01C4F17
:10311000B84201D1052700E00627B7402F43654696
:10312000AF60184D2E684F689643FF0300D51643D5
:103130002E606E684F689643BF0300D516436E60DD
:10314000AE684F689643FF0200D51643AE60EE6846
:103150004F689643BF0200D51643EE605B1C0A68B9
:103160001546DD4000D057E7F8BD000000100240D2
:10317000000001400004005000080050000C005006
:10318000001C0050000401400069084000D00120EC
:10319000704742694A4042617047002A01D081610C
:1031A0007047816270470000014800687047000066
:1031B0000000002070B5024640325378202B1CD10D
:1031C0001378012B19D00123137024245470046840
:1031D00025689D432560046825681E03B543256066
:1031E000046825680D432560006801681943016083
:1031F000202050700020107070BD022070BD70B58E
:10320000024640325378202B1BD11378012B18D063
:10321000012414702423537003681D68A5431D60A6
:1032200005682B680F263602B3430902194329604B
:103230000068016821430160202050700020107058
:1032400070BD022070BD7047704770B503689A6901
:103250001968D40507D50C0605D5446C01252C4307
:1032600044642C02DC61530508D50B0606D5436C7B
:10327000082423434364E3010468E361920508D50D
:10328000090606D5416C022211434164110202680D
:10329000D161416C0B22114202D0416C02F008FF57
:1032A00070BD026891691268436B002B00D018470B
:1032B0007047704770B5040006D0254640356878E1
:1032C0000026002802D005E0012070BD2E702046A7
:1032D00000F0E0F92420687020680168490849007E
:1032E00001600F2160680906884321680861216830
:1032F0008A680120C00382438A60E1680129A168CD
:1033000008D021229202114322689160E1680229CB
:1033100002D005E00143F7E701212268C9025160AC
:1033200021684A680F4B1A434A602168CA68824381
:10333000CA60616920690843A169090208432168DC
:10334000C860216AE0690843216808602068016854
:103350000122114301606664202068702663AE700C
:10336000002070BD0080000270470000FFB50546D8
:1033700004464035687883B0202873D10C98002823
:1033800071D00D9800286ED0287801286AD00120CD
:103390002870FFF709FF0746012200901923D10387
:1033A000204603F0F7F8002876D1222068704020EC
:1033B000A870002666640C9860620D98608566634C
:1033C0000E980090019704A90EC9204602F0DAFF7A
:1033D000002804D0606C2E70042860D05CE0618D01
:1033E00009208002FF2905D9FF22228501231B061F
:1033F000009006E0618D21850090208D0123C2B2EE
:103400005B062046049903F0B3F8009700220421DC
:1034100020460E9B03F0BEF800283DD12068416A8B
:10342000606A421C62620170208D401E81B221855B
:10343000608D401E6085002921D1608D00281ED03E
:1034400000970022802120460E9B03F0A3F800285D
:1034500022D1608DFF2807D9FF22228501231B0678
:10346000009608E02AE01AE0608D20850096208D05
:103470000123C2B25B062046049903F079F8608DFF
:103480000028C2D13A4620460E9903F0A7F800283A
:1034900007D0606C042802D0032007B0F0BD0120E3
:1034A000FBE721682020C86121684A68044B1A4064
:1034B0004A606870AE702E700020EEE70220ECE7E4
:1034C00000E800FEFFB5054604464035687883B045
:1034D000202876D10C98002874D00D98002871D03F
:1034E000287801286DD001202870FFF75DFE07467F
:1034F000012200901923D103204603F04BF8002845
:1035000053D1212068704020A870002666640C9872
:1035100060620D98608566630E980090019704A91B
:103520000EC9204602F063FF002804D0606C2E70A4
:1035300004286AD039E0608DFF2805D9FF22228552
:1035400001231B06009606E0608D20850096208DE5
:103550000123C2B25B062046049903F009F83A46FB
:1035600020460E9903F061F8002803D0606C04280F
:103570004BD01AE0606A411C616221680078886261
:10358000608D401E6085208D401E0004000C20854B
:1035900024D1608D002821D0009700228021204670
:1035A0000E9B02F0F7FF002802D0032007B0F0BD09
:1035B000608DFF2807D9FF22228501231B06009674
:1035C00008E024E021E0608D20850096208D012315
:1035D000C2B25B062046049902F0CAFF608D002843
:1035E000BDD13A4620460E9902F0F8FF0028BDD121
:1035F00020682021C16120684268064B1A40426061
:103600006970AE702E700020D0E70120CEE7022056
:10361000CCE7000000E800FEF8B50646006819494E
:10362000194C0225194F884210D1E06A2843E06204
:10363000E06A28400090A06B29058843A063C02160
:103640003846FFF72DFC172000F08EF9104930683E
:10365000884215D1002040367070E06A2843E0624D
:10366000E06A28400090A06B012189058843A0638F
:10367000032189023846FFF713FC182000F074F983
:10368000F8BD00000054004000100240000400504B
:1036900000580040F0B5064600682749274C02252F
:1036A000012787B088421DD1E06A2843E062E06AC2
:1036B000029728400590C02000901220019003201E
:1036C0000390694604971E48FFF7A2FCA06B2905EA
:1036D0000843A06300221146172000F067F9172065
:1036E00000F04CF917493068884223D12020403639
:1036F0007070E06A2843E062E06A02972840059013
:1037000003208002009012200190032003900620E5
:10371000049069460A48FFF77BFCA06B01218905EC
:103720000843A06300221146182000F03FF918203A
:1037300000F024F907B0F0BD005400400010024032
:10374000000400500058004070477047024801686C
:10375000491C0160704700000000002010B50648B9
:103760000168402211430160002000F007F800F0DA
:10377000DFF8002010BD00000020024010B5044614
:1037800007487D21C9000068FCF7B2FC01F00CF984
:1037900000222146501E00F009F9002010BD000053
:1037A000EC00002030B50224024620321346947308
:1037B0004268012A09D0826AA405A24205D10268A2
:1037C000D46807256D02AC43D460026815690124F2
:1037D0002543156102689161006801690422114363
:1037E00001619C73002030BD0222014620318A73A2
:1037F00000680269520852000261012088730020AB
:10380000704710B500280FD00222014620310C4627
:103810008A7301680A69520852000A6100F04EF882
:103820000020A073607310BD012010BDF8B5040026
:1038300005D025462035A87B002802D006E00120CF
:10384000F8BD00206873204600F04EF80220A873EF
:103850002068C26884466368012B01D11E20824320
:1038600013486169814201D0124802401248A6689B
:10387000024018463043676A266A3E433043A66AD0
:1038800030431043012B03D12369E2681A431043EC
:10389000074A914205D0A2691143E26902430846F2
:1038A00010436146C8600120A8730020F8BD0000E5
:1038B000FFFF00003F1FFFFFFEF119FF10B500687A
:1038C0000649884208D10648816B4900490881634E
:1038D00020210448FFF7E4FA10BD0000007C0040FE
:1038E000001002400004005000B500680B4985B08C
:1038F000884210D10A48816BC204114381632020A1
:1039000000900221002001910290049103906946E9
:103910000448FFF77DFB05B000BD0000007C0040BF
:1039200000100240000400500068C06970470000A9
:1039300010B50C48416B012211434163816B0204B5
:103940001143816300221146501F00F02FF800221E
:103950001146901E00F02AF800221146501E00F079
:1039600025F810BD00100240C106C90E0120884094
:10397000014908607047000080E100E0C106C90EFF
:1039800001208840014908607047000000E100E024
:1039900005490968C206D20E01209040014201D0BB
:1039A000012070470020704700E200E010B504F0ED
:1039B000C5FC10BD0A4B1A689208920002431A60B7
:1039C00008480369042213430361012906D040BF5C
:1039D00020BF20BF016991430161704730BFF9E703
:1039E0000070004000ED00E0F8B5474903460124AF
:1039F0000020E403434D444A4031082B70D00EDCD4
:103A0000012B3DD0022B55D0042B19D1CB680326B6
:103A1000B602334059D0CF14BB4243D058E0102BEC
:103A20006BD0202B0CD10B690969032501272D04CC
:103A30003F0429407E00B94203D199052CE020467D
:103A4000F8BDB14203D19907FAD53048F8BDA94273
:103A5000FCD111688903F9D51168032000050140E4
:103A600001200005091A09D0091A05D0814201D1A7
:103A70002748F8BD2748F8BD2748F8BD2748F8BDB6
:103A8000CB689B079B0F0AD0022B0BD0012B0ED0CB
:103A9000032BF4D1096989050029D0DBF8BD00F0BA
:103AA000BBF9F8BD11684907FBD52846F8BD00F001
:103AB000C3F9F8BDCB680C26334006D0082BF1D0F3
:103AC000042BF4D00C2BE5D0F8BD00F095F9F8BD2F
:103AD000012292029342EAD0B342DBD0F8BDFFE765
:103AE000C96803231B031940EFD00124640363104A
:103AF000A142D7D09942DAD0F0E7916B4902E4D4E1
:103B0000ECE700000024F400001002408890000060
:103B100020A1070000093D0040420F0080841E00E4
:103B2000F8B504460078544D800672D5524E0027F1
:103B3000403EB06BC00004D4B06BA9050843B0632D
:103B400001274E480168C90511D401688215114347
:103B50000160FFF729FB009005E0FFF725FB0099C6
:103B6000401A642837D845480068C005F5D5326842
:103B70000321090560680A400140914208D0810391
:103B8000890F032904D13168890301D50120F8BDCB
:103B90002A69032109040A4022D0084090421FD01C
:103BA000207880061CD528692A6988430121C90428
:103BB0000A432A612A698A432A612861C0050FD510
:103BC000FFF7F2FA009008E0FFF7EEFA0099411AC9
:103BD0002B48814201D90320F8BD28698005F3D51F
:103BE00061688803800F032805D13268000582438D
:103BF00001400A43326028690322616812041140BF
:103C000008432861002F04D0B16B012000078143D5
:103C1000B1632078C00705D0E868A16880088000FB
:103C20000843E8602078800705D5E8680C218843C0
:103C3000E1680843E8602078400706D5E86803217A
:103C40008902884321690843E8602078000706D587
:103C5000E86803210903884361690843E860207824
:103C6000000606D5E868032189048843A169084352
:103C7000E8600020F8BD00004010024000700040E5
:103C800088130000F8B5054653480E460068C00783
:103C9000C00FB0420AD25048016849084900314378
:103CA00001600068C007C00FB0426FD128784B4C4C
:103CB000800705D5E068F0218843A9680843E060E3
:103CC0002878C00752D06868022817D0032818D077
:103CD0002168012818D08905002957DAE168890888
:103CE00089000143E160FFF75FFA6968074602292E
:103CF00012D003291CD0012926D033E02168890382
:103D0000EAE721688901E7E74907E5E7FFF74CFAA9
:103D1000C11B3348814223D8E0680007800F022886
:103D2000F4D123E0FFF740FAC11B2D48814217D898
:103D3000E0680007800F0328F4D117E0FFF734FA9A
:103D4000C11B274881420BD8E0680007800F01287B
:103D5000F4D10BE0FFF728FAC11B2148814201D9B9
:103D60000320F8BDE0680007800FF3D11A4801680E
:103D7000C907C90FB1420BD901684908490031434D
:103D800001600068C007C00FB04201D00120F8BD3B
:103D90002878400706D5E068072109028843E968CA
:103DA0000843E0602878000707D5E0680721C902CA
:103DB00088432969C9000843E06000F03DF8E168E4
:103DC000084A0906090F515CC840074908600020ED
:103DD000FFF7D4FC0020F8BD002002400010024094
:103DE0008813000038E00008EC000020014800685B
:103DF00070470000EC000020044805490068C968CD
:103E0000044A4905490F515CC8407047EC00002046
:103E10000010024051E00008044805490068C968E4
:103E2000044A8904490F515CC8407047EC000020E7
:103E30000010024051E0000810B5184AD1680C206B
:103E4000084004280BD0082810D00C2810D0506847
:103E50000004410F0120C003491C884010BD1068B8
:103E6000C00601D50E4810BD0E4810BD0E4810BD4D
:103E700088020E4B000F185C0902D368890F491C99
:103E8000DB0301D5084A05E01268D20601D5044AD1
:103E900000E0044A5043FCF72BF910BD001002402B
:103EA00000093D000024F40000127A0048E00008F8
:103EB000F8B504460078F24DC0074AD0E86800071C
:103EC000800F022807D0E8680007800F032809D177
:103ED000E868C00306D5286880033AD560680028E2
:103EE00073D036E0012062680004824203D1296861
:103EF0000143296011E0052301211B0489049A4232
:103F00002A6802D10A432A60F1E782432A602A68BC
:103F100002400092286888432860606800280CD01E
:103F2000FFF742F9064604E0FFF73EF9801B6428DC
:103F30007ED828688003F7D50BE0FFF735F90646F1
:103F400004E0FFF731F9801B6428F1D8286880036A
:103F5000F7D42078800741D5E8681F270007800F35
:103F60003F02012807D0E8680007800F032809D125
:103F7000E868C00306D42868400717D5E068012820
:103F800023D113E0E068002817D029680922914363
:103F900001432960FFF708F9064604E0FFF704F93A
:103FA000801B0228C4D828684007F7D568682169B3
:103FB000B84309020843686010E0286840084000E0
:103FC0002860FFF7F1F8064605E090E0FFF7ECF80F
:103FD000801B0228ACD828684007F7D42078C00698
:103FE00076D5E868A74E0007800F0BD0A06900289F
:103FF0005DD02868FF21013108432860FFF7D4F81D
:10400000074644E02868800502D5A06900286ED0E4
:10401000206A69683140884212D905F025FF0028DE
:10402000AED16868216AB04308436860686800E000
:10403000BBE00002217F000A0906084368600FE028
:104040006968B143014369606868217F0002000A22
:10405000090608436860206A05F006FF00288FD132
:10406000206A410B0120C003491C8840E968090609
:104070000A0F8549895CC840844908600020FFF721
:104080007DFB25E0FFF790F8C01B02288AD828683E
:104090008005F7D56868216AB0430843686068689E
:1040A000217F0002000A09060843686010E02968C1
:1040B000FF20013081432960FFF776F8064604E0CF
:1040C000FFF772F8801B02286FD828688005F7D4A4
:1040D00020786F4E000723D560690028306910D022
:1040E000012108433061FFF75FF8074605E0C5E0AE
:1040F000FFF75AF8C01B022857D830698007F7D558
:104100000EE0400840003061FFF74EF8074604E03B
:10411000FFF74AF8C01B022847D830698007F7D458
:104120002078400762D5A86B0027C00005D4A86B93
:10413000012109070843A863012756480168C905FA
:1041400011D40168821511430160FFF72DF800902A
:1041500005E0FFF729F80099401A642825D84D4852
:104160000068C005F5D5FF20A2680130824203D166
:1041700031690143316111E001218902002A07D030
:1041800005231B029A4203D132690A433261EFE7E9
:10419000326982433261306988433061A068002807
:1041A0000FD0FFF701F8009007E060E0FEF7FCFF9A
:1041B0000099411A3848814259D830698005F5D5AF
:1041C0000DE0FEF7F1FF009006E0FEF7EDFF00992D
:1041D000411A314881424AD830698005F5D4002F10
:1041E00004D0A96B012000078143A963606A0028FD
:1041F00042D0E9680907890F03293FD00126360616
:104200000228286805D0B0432860FEF7CDFF044699
:104210002FE0B0432860FEF7C7FF074604E0FEF733
:10422000C3FFC01B022822D828688001F7D4E16AA6
:10423000A06AEA680843216BFD231B049A431143DB
:104240000843E860286830432860FEF7ADFF044665
:1042500004E0FEF7A9FF001B022808D828688001A7
:10426000F7D509E0FEF7A0FF001B022801D90320C3
:10427000F8BD28688001F5D40020F8BD0120F8BD04
:104280000010024000E0000038E00008EC000020D0
:10429000401002400070004088130000704730B5A5
:1042A000014620310A78012A15D001220A70022322
:1042B0004B700468CA236362046853236362036813
:1042C0009C6820252C439C600068FF2343624A7051
:1042D0000020087030BD022030BD10B507F00AFE86
:1042E00010BD000070B50446006881688025C904CF
:1042F00000290BDAC068C00508D52046FFF7EDFF9E
:104300002168C8682840FF388238C8602068816802
:1043100089040BD5C068800508D52046FFF7BEFF8D
:104320002068C168054A29408918C16001200449F4
:104330004004486101202034607070BD7FFDFFFFA4
:1043400000040140F8B505460446203528780128C8
:104350001DD001202870022068702268CA20506297
:10436000226853205062FF2001300026FF2781423F
:104370001CD121688A6882438A6020688168012292
:10438000120391438160FEF70FFF009009E00220C5
:10439000F8BDFEF709FF0099411A7D20C000814257
:1043A0001BD82068C068C007F3D020E0206881686F
:1043B0000122520291438160206881681201914379
:1043C0008160FEF7F1FE00900DE0FEF7EDFE009932
:1043D000411A7D20C000814205D920684762032030
:1043E00068702E70F8BD2068C0688007EDD5206821
:1043F0004762012068702E700020F8BDF0B50C46B1
:10440000FF219C460131254640268F051D4B203556
:104410008A4204D161620168C869496C05E00121E2
:10442000490261620168086A896C8202920E2270F8
:104430004204520E62704206520EA270020C4904EF
:104440003240490CE27061608100890E297001469A
:1044500039401840E1616061604600280FD1207842
:1044600005F0D6FD2070607805F0D2FD6070A07870
:1044700005F0CEFDA070287805F0CAFD2870002058
:10448000F0BD00008080808010B500680B46406859
:10449000C021C94301400002000ECC04D870E40ED4
:1044A0005C708C06A40E0904490F9C701970002AD8
:1044B0000AD105F0ADFDD870587805F0A9FD587007
:1044C000987805F0A5FD9870002010BD30B50B461A
:1044D0000168896A5960016809694904490C996051
:1044E000006804680F482146014088024D04800E90
:1044F00018706D0E49065D70490E99706102490E83
:1045000040242140D970002A0AD105F081FD18709D
:10451000587805F07DFD5870987805F079FD987011
:10452000002030BD7F7F7F0070B5040005D0254698
:1045300020356878002802D006E0012070BD0020F8
:104540002870204600F042F8022068702168CA20D6
:104550004862216853204862204605F07DFDFF2116
:104560000028206803D0416204206870E5E7826873
:10457000154B1A408260226890686368A6691843E8
:1045800023693343184390602268E0681061206813
:10459000026923891B041A4302612068C2688023D0
:1045A0009A43C2602068C26C92089200C264E269B9
:1045B000606902432068C36C1A43C2642068416288
:1045C00001206870002070BDBFFF8FFF10B500682C
:1045D000084988420DD1084801690122920411431B
:1045E0000161002211460220FFF7E0F90220FFF7E7
:1045F000C5F910BD0028004040100240FEB5064637
:104600000446203630780B46012842D00120307015
:104610000220707020681D46002720358068002A1F
:1046200039D0400655D5187805F0F2FC287805F009
:10463000EFFC19789878090408435978DA78090268
:10464000120411430843297809060843D96908432D
:1046500059690843054699695868084300902168DC
:10466000CA204862216853204862FF205A6A0130FC
:10467000802182424AD122689368834393602268F2
:10468000D0680840FF388238D060FEF78DFD019079
:1046900029E00220FEBD400600D4DF70187805F046
:1046A000BFFC0204587805F0BBFC00020243987876
:1046B00005F0B6FC0243D87800040243287805F0E0
:1046C000AFFC00060243D86902435869024315460D
:1046D000C1E7DF70AAE7FEF767FD0199411A7D2067
:1046E000C00081422AD82068C068C007F3D0206883
:1046F000C56121680098486420688168FF22013202
:104700001143816020688168120130E0206882686E
:1047100001235B029A4382602068C2680A401D49F7
:104720005118C160FEF740FD01900EE0FEF73CFD20
:104730000199411A7D20C000814206D92168FF20DD
:104740004862032070703770FEBD2068C068800723
:10475000ECD520680562216800988864206881682B
:1047600001225202114381602068816812011143C5
:10477000816009480268012149040A430260826895
:104780000A4382602168FF20486201207070377000
:104790000020FEBD7FFDFFFF00040140F8B5054687
:1047A0000446203528780B46012815D001202870B2
:1047B000022068705878002A10D005F029FC9878FB
:1047C00005F026FCD8789E780004064358781978BE
:1047D00000024903084316E00220F8BDC10603D5D4
:1047E000EF2108400A305870D87805F019FC06040B
:1047F000587805F015FC00020643987805F010FC87
:1048000006431878400306432168CA20486221689D
:1048100053204862204605F01FFC0027002811D1D4
:1048200010480640206846602068C1688022914395
:10483000C1602068806880060CD4204600F08CF8A7
:10484000002807D02168FF204862042068702F707C
:104850000120F8BD2168FF204862012068702F7098
:104860000020F8BD3FFFFF00F8B50646044620369D
:1048700030780D4601280ED0012030700220707073
:10488000206800278068002A07D040061AD52878BB
:1048900005F0BEFB17E00220F8BD400600D4EF7023
:1048A000287805F0BDFB0204687805F0B9FB00022A
:1048B0000243A87805F0B4FB0243E8780004024301
:1048C00000920BE0EF702978A87809040843697812
:1048D000EA78090212041143084300902168CA20B3
:1048E0004862216853204862204605F0B5FB002845
:1048F0001FD1184900980840216808602068816825
:1049000001229204914381602969E8680843216883
:104910008A68104388602068C16880229143C16022
:104920002068806880060CD4204600F015F8002826
:1049300007D02168FF204862042070703770012082
:10494000F8BD2168FF204862012070703770002098
:10495000F8BD00007F7F7F0070B504460068C16825
:10496000A0229143C160FEF71FFC7D260546F6009C
:1049700006E0FEF719FC401BB04201D9032070BDD0
:104980002068C0688006F4D5002070BD0422044968
:104990000428086902D09043086170471043FBE780
:1049A00000E000E070470000094910B5401E884251
:1049B00001D9012010BD074C60610321081F03F0DD
:1049C000BDFC0020A06107202061002010BD000078
:1049D000FFFFFF0000E000E010B5FFF7E3FF10BDB0
:1049E00070B502462032137D012B1BD001231375B5
:1049F00002245475046865687026B54365600468D0
:104A000065680E68354365600468A5688026B5430F
:104A1000A5600068846849680C4384605375002071
:104A2000107570BD022070BD02462032137D012B2F
:104A300007D00123137500680165537500201075B8
:104A400070470220704770B5040005D02546203518
:104A5000687D002802D006E0012070BD0020287586
:104A6000204600F00BF802206875211D206807F031
:104A700077F801206875002070BD000010B500684F
:104A8000084988420CD10848816B10221143816388
:104A9000002211461120FEF789FF1120FEF76EFF5C
:104AA00010BD000000100040001002400268D368F2
:104AB00001210B43D360006802680A4302600020B2
:104AC000704700000168CA6852085200CA60006856
:104AD000016A044A114203D1016849084900016092
:104AE000002070471111000070B500680E4988421F
:104AF00014D10E4C012560780D4E00280FD00128EE
:104B00000CD100206070FFF771F93168C000496B6B
:104B10006268891AFBF7ECFAA060257070BD6570B9
:104B20003068406B606070BD00080140DC00002010
:104B30000C130020F8B5064604462036307D0D469D
:104B400001283DD00120307502207075002A39D02F
:104B5000042A46D0082A57D02B68297B20689E4615
:104B60008C466B68016A0122120391430162C1699C
:104B7000026A03273F02B9431B020B430F210903BB
:104B80008B4361460907090C194305235B039A43CC
:104B900073460A273B401B031343C161036220682D
:104BA000C169032292029143C1612068C169AA6868
:104BB00012021143C1610120707500203075F8BDEB
:104BC0000220F8BDEB6806CD083D206807F062F8CA
:104BD000206882690C218A43826120688169AA6801
:104BE0000FE0EB6806CD083D206807F07BF82068F1
:104BF0008269032189028A43826120688169AA68E7
:104C0000120211438161D6E788CD28792168844654
:104C1000086AFF22013290430862C8690A6A800864
:104C200080003843F027B84367463F073F0E0743ED
:104C30000520400282430A20034018021043CF613E
:104C400008622068C1690C229143C1612068C16972
:104C50002A68AEE710B50221044620346175016868
:104C60000A6A064B1A4203D10A68520852000A60C7
:104C700000F020F800206075207510BD11110000B3
:104C800070B5040005D025462035687D002802D087
:104C900006E0012070BD00202875204600F01CF8B9
:104CA00002206875211D206806F05AFF01206875F2
:104CB000002070BD10B500680549884207D105483D
:104CC000416B0422914341631420FEF74DFE10BD59
:104CD000000801400010024010B5006808498842F1
:104CE0000CD10848416B0422114341630022114654
:104CF0001420FEF75BFE1420FEF740FE10BD0000FE
:104D0000000801400010024010B502680446002966
:104D100006D0042907D0082914D00C2907D114E0A3
:104D2000D068022301E0D06804231843D060012238
:104D3000206806F03DFF20680168012211430160F0
:104D4000002010BDD0680823EFE7D0681023ECE7FF
:104D500010B502680446002906D0042907D00829A6
:104D600018D00C2907D118E0D068022301E0D068E0
:104D700004239843D0600022206806F019FF2068C1
:104D8000016A074A114203D10168490849000160DC
:104D9000002010BDD0680823EBE7D0681023E8E7B7
:104DA0001111000070B50446006801690025C9436F
:104DB0008907002915DBC168C943890711D4E91E99
:104DC000016101202075206880698007204602D09B
:104DD000FFF78AFE04E000F0BDF8204600F096F9E7
:104DE000257520680169C943490717D4C168C943BB
:104DF000490713D40421C9430161022020752068AA
:104E000080698005800F204602D0FFF76DFE04E028
:104E100000F0A0F8204600F079F9257520680169B6
:104E2000C943090716D4C168C943090712D4082128
:104E3000C9430161042020752068C06980072046AD
:104E400002D0FFF751FE04E000F084F8204600F0A5
:104E50005DF9257520680169C943C90617D4C16881
:104E6000C943C90613D41021C94301610820207524
:104E70002068C0698005800F204602D0FFF734FE0D
:104E800004E000F067F8204600F040F9257520683E
:104E90000169C943C90708D1C168C943C90704D119
:104EA000891E0161204600F055F920680169C94357
:104EB000490609D4C168C943490605D44021C943FC
:104EC0000161204600F052F970BD000030B50124A8
:104ED0000368A40700221C49022087B0A34216D110
:104EE000CB6A01242343CB62C96A01902140840329
:104EF00005200094059105070490029203926946EB
:104F00002846FEF785F801222146284617E00F4C77
:104F1000A34216D1CB6A0343CB62C96A0190014018
:104F20000591039010210420094C009104900292F5
:104F300069462046FEF76CF8012210212046FEF754
:104F40002CF907B030BD00000010024000140140F1
:104F5000000400507047F8B5064604462036307D00
:104F60000D4601280DD001203075022070750427F0
:104F7000002A08D0042A16D0082A2AD00C2A4DD19B
:104F800037E00220F8BD206806F01DFE2068816928
:104F900008221143816120688169B94381612068D9
:104FA0008169EA6812E0206806F025FE20688269BF
:104FB0000121C9020A4382612068816901229202AB
:104FC0009143816120688169EA681202114381611D
:104FD00024E0206806F028FE2068C26908210A4300
:104FE000C2612068C169B943C1612068C169EA68CA
:104FF00012E0206806F033FE2068C1690122D20267
:105000001143C1612068C269012189028A43C261DA
:105010002068C169EA6812021143C16101207075FC
:1050200000203075F8BD000010B502210446203480
:10503000617501680A6A064B1A4203D10A68520870
:1050400052000A6000F020F800206075207510BD45
:105050001111000070B5040005D025462035687D8B
:10506000002802D006E0012070BD002028752046EF
:1050700000F026F802206875211D206806F070FDFA
:1050800001206875002070BD10B5012201689207EB
:105090000948914205D1816B4908490081630F207D
:1050A00007E0064A914206D1416B202291434163B9
:1050B0001620FEF759FC10BD0010024000140140FC
:1050C00010B50122016892070E4891420AD1816B06
:1050D000012211438163002211460F20FEF766FC76
:1050E0000F200CE0084A91420BD1416B2022114362
:1050F0004163002211461620FEF758FC1620FEF7E9
:105100003DFC10BD0010024000140140704710B576
:1051100004460068012206F04BFD20680168012268
:1051200011430160002010BD10B504460068002244
:1051300006F03EFD2068016A054A114203D101686C
:10514000490849000160012020346075002010BD2D
:105150001111000010B5044900680968884201D1A6
:1051600002F0B4FA10BD00007C13002070477047B5
:1051700070B5044660300546407A21280FD120687A
:10518000816809060BD58168802291438160206E79
:10519000002801D0FDF7D8FA204607F0F0FBA87AE6
:1051A00022280FD12068816849060BD581684022EA
:1051B00091438160606E002801D0FDF7C5FA20465A
:1051C00007F0CEFB002070BD70470000F8B5026804
:1051D0000446D06911680607360F07D1830605D546
:1051E0008B0603D5204607F0D3FBF8BD9568202336
:1051F000002E65D0EE07F60FFF2721370F4037430B
:105200005ED0C70706D0CF0504D501271762E26E2E
:105210003A43E266820708D5EA0706D027680222E9
:105220003A62E26E04273A43E266420708D5EA078B
:1052300006D0256804222A62E26E02252A43E2662D
:10524000020709D50A461A40324305D023680822CE
:105250001A62E36E1343E366E26E002AC5D080064D
:1052600004D5880602D5204607F092FBE06E0007C1
:1052700003D42068806840061CD5204607F070FBE8
:1052800020688168490611D5826840218A4382607E
:10529000606E00280AD01D498163606EFDF77AFABE
:1052A0000028A2D0606E816B8847F8BD2046FFF7CA
:1052B0008BFFF8BD2046FFF787FF0020E066F8BDB2
:1052C0002646C7026036002F0ADA6D0208D5012093
:1052D000000510627372B3722046FFF748FFF8BDF5
:1052E000050605D50D0603D5204607F09FFCF8BD41
:1052F0004006FCD54806FAD52046146840218C4368
:105300001460737200F013FAF8BD0000B9C8000809
:1053100070B5040005D025466035687A002802D0B3
:1053200006E0012070BD00202872204600F06EF8D3
:105330002420687220680168490849000160606A99
:10534000002802D0204607F021FA204607F060FB33
:105350000128E7D0206841680922D20291434160C8
:10536000206881682A2291438160206801680122B7
:1053700011430160204607F06FFA70BD10B5044676
:1053800000681D4B05221D49120798420ED1486B3B
:1053900001239B0398434863032149021046FDF70C
:1053A0007FFD606EFDF742FA1B200FE0144B984220
:1053B0000FD1886B01235B04984388630C2110464E
:1053C000FDF76EFD606EFDF731FA1C20FEF7CCFA9A
:1053D00010BD0C4A9042FBD1886B0122920490438D
:1053E0008863032189020848FDF75AFD606EFDF7C6
:1053F0001DFA1D20EAE700000038014000100240BD
:10540000004400400048004000040050F0B506464B
:105410005A4B026800245A4801210327042587B00B
:105420009A4233D1426B8B031A434263C26A0A43E6
:10543000C262C06A01AA084005907802009002206A
:10544000049583C2052069460007FDF7E1FD4E4D36
:105450004C48AC60EC6081C5EC602C616C618020D4
:10546000AC61A8604848083DFDF70AFC002804D05C
:10547000FF213B3145A007F0FFFD756600220121A9
:105480001B20AE62FEF792FA1B2038E0464B9A4290
:1054900039D1826B01235B041A438263C26A0A43D7
:1054A000C262C06A01AAC007C00F05900C2000901C
:1054B0000220049583C2052069460007FDF7A8FD78
:1054C0003A4F3048BC602830FC6021C7FC603C612A
:1054D0007C618020BC61B8603448083FFDF7D0FB98
:1054E000002804D0FF21673128A007F0C5FD7766AA
:1054F000002211461C20BE62FEF758FA1C20FEF75F
:105500003DFA07B0F0BD2A4B9A42FAD1826B0123D3
:105510009B041A438263C36A02221343C362C06AB4
:10552000029110400590032080020090039704959B
:10553000019269461F48FDF76BFD12481E4D3C3035
:105540002860AC600520EC6068606C61AC61EC6167
:1055500080202C6228612846FDF792FB002804D0A9
:10556000FF21963109A007F087FD756600221146DC
:105570001D20AE62FEF71AFA1D20C0E70038014078
:105580000010024030000240780E00202E2E2F53D3
:1055900072632F73746D33326C3078785F68616C2E
:1055A0005F6D73702E63000000440040B80E002051
:1055B0000048004000040050F80E0020F8B50546F1
:1055C00004466035A87A202841D100290BD0002A52
:1055D00009D00123A0681B03984206D12069002846
:1055E00003D1C80701D00120F8BD287A01282ED0A8
:1055F000012028725820616502530026E6662220A9
:10560000A872616E1348C862616E13480863616EC8
:1056100012484863606E13468663676D21683A4698
:105620002431606EFDF7B0FB2E7220680168FF2206
:1056300001321143016020688168012211438160B9
:10564000206881684022114381600020F8BD02205B
:10565000F8BD000017C9000857C90008CDC80008E8
:1056600002F08EFE7047FFB5064604466036707A3B
:1056700083B00D46202858D1002D0CD00598002865
:1056800009D00120A1680003814207D120690028C8
:1056900004D1E80702D0012007B0F0BD307A01281C
:1056A00043D0012030720020E06621207072FDF7A7
:1056B0007BFD01902746403705983882059878820F
:1056C00018E0788A401E7882069800900022802197
:1056D0002046019B07F0DDFA002818D10120A168BF
:1056E0000003814202D12069002812D02168287865
:1056F00088626D1C788A0028E3D106980090002209
:1057000040212046019B07F0C4FA002808D003205E
:10571000C2E728882168C005C00D8862AD1CE9E792
:105720002020707200203072B6E70220B4E7704784
:1057300001460A7800201346303B092B02D810019D
:105740000D4A06E01346413B052B04D810010A4AD6
:10575000703A8018C0B249780A46303A092A02D80D
:105760000243D0B270470A46413A052AFAD837397F
:105770000143C8B27047000000FDFFFF7CB506463C
:105780001A484168C9430907FBD4194C606B651579
:105790002843606300211748FCF72AFD1648009053
:1057A0001648019069461348FCF778FDA014019053
:1057B000694600960F48FCF771FD0E48FCF796FF0E
:1057C0000021C9430B48FCF731FF0A48FCF70AFEE9
:1057D000084980B20A6893680226334393600968D7
:1057E00003220A60616BA94361637CBD00700040C5
:1057F0000010024030100020FFFF070001100000E1
:1058000010B500F00BFB0C484068804704F0E4FA48
:105810000A48FCF78DFD0A48FDF7FEFE08484C30AB
:10582000FFF7ACFD07480078012803D00448BC30DE
:10583000FFF7A4FD10BD0000F4DE000830100020CA
:10584000DC0C00203F00002010B5EFF3108472B68E
:10585000FFF7D6FF0548016804221143016084F375
:10586000108801210846FEF7A5F810BD0070004021
:1058700010B5EFF3108472B600F060FB84F310886B
:1058800010BD0000014600200A0A00D00820084A86
:10589000114201D004221043064A114201D00222D3
:1058A0001043054A114201D001210843704700000E
:1058B000F0F00000CCCC0000AAAA000038B50B2301
:1058C0001B07C518114B0FD01C152D1B18D02D1BF5
:1058D00019D0A542DD6A05D108242543DD62DB6AC3
:1058E000234007E08024F8E7DC6A01252C43DC62D2
:1058F000DB6A2B40009311601146FDF789FB38BD30
:10590000DD6A0224E9E7DD6A0424E6E700100240CC
:1059100010B5FFF7B7FF810002484058002800D0BB
:10592000804710BD9010002010B5FDF72DFC10BD74
:1059300070B51C4615460E460846FFF7A3FF002C1F
:105940000DD0074980000C50304602F0AFFA0446F3
:1059500000222946FEF72AF82046FEF70FF870BD10
:105960009010002010B5D2B2FDF717FC10BD00005A
:1059700070B505252D07002202212846FDF70DFCF4
:105980000120FFF7FBFE10494843000B401D84B285
:1059900021460EA007F072FB1048844201D964240E
:1059A0000AE0E1200001844201D8012404E005213D
:1059B000201AFAF7B3FBC4B2012202212846FDF7F0
:1059C000ECFB204670BD0000881800004261742086
:1059D0007664643A25640D0A00000000041000009B
:1059E0000F490A8ACB69D218120EC2710A8ACB6992
:1059F000D218120C82718A8A8B8BD218120A4271C9
:105A00000A7D0B7FD21802718A69120EC2708A69F0
:105A1000120C82700A8B120A4270097E0170704764
:105A20004000F81F70B5410EC0017D220023FAF737
:105A300089FB054600F080F8044600E000BF00F056
:105A40007BF8001BA842F9D370BD0000F8B50646EC
:105A500000240D4622462748FEF738FD0022314635
:105A600024486F68FEF710FD002229462148FEF702
:105A70002DFD6868B842F1D100201F4A1F4BF17814
:105A800003E087070AD0E418401C8142F9D8880750
:105A900006D0707800211A4A401E14E0A418F3E7DB
:105AA000174A707800210C32401E04E0535C154FF9
:105AB0007B431C19491C8842F8D806E0535C114FFF
:105AC0007B431C19491C8842F8D86878A9783C2285
:105AD00050430A182878E12109014843B178094B5D
